:020000040800F2
:10000000687E0020450100087B0600087306000892
:10001000770600089D030008A90C000800000000F6
:10002000000000000000000000000000290A000895
:10003000A103000800000000DD070008150B000800
:100040005F0100085F0100085F0100085F01000810
:100050005F0100085F0100085F010008A3030008BA
:100060005F0100085F0100085F0100085F010008F0
:100070005F0100085F0100085F0100085F010008E0
:100080005F0100085F0100085F0100085F010008D0
:100090005F0100085F0100085F0100085F010008C0
:1000A0005F0100085F0100085F0100085F010008B0
:1000B0005F0100085F0100085F0100085F010008A0
:1000C0005F0100085F0100085F0100085F01000890
:1000D0005F0100085F0100085F0100085F01000880
:1000E0005F0100085F0100085F0100085F01000870
:1000F0005F0100085F0100085F0100085F01000860
:100100005F0100085F0100085F0100085F0100084F
:100110005F0100085F0100085F0100085F0100083F
:100120005F0100085F0100085F0100085F0100082F
:10013000DFF80CD000F0D2F8004800471921000881
:10014000687E00200648804706480047FEE7FEE735
:10015000FEE7FEE7FEE7FEE7FEE7FEE7FEE7FEE777
:10016000350B00083101000840EA01039B0703D06A
:1001700009E008C9121F08C0042AFAD203E011F8E6
:10018000013B00F8013B521EF9D27047D2B201E0A8
:1001900000F8012B491EFBD270470022F6E710B58C
:1001A00013460A4604461946FFF7F0FF204610BDE5
:1001B00030B505462A460B4612F8010B13F8014BE1
:1001C00008B1A042F8D01CB1002802D06D1CF1E7A4
:1001D000284630BD10B5044604E00B7800F8013B1A
:1001E00003B1491C521EF8D2204610BDCAB2401EAF
:1001F00010F8011F8A4202D00029F9D1002070476F
:10020000421C10F8011B0029FBD1801A704730B541
:1002100004460020034600E05B1C934203D2E05CEE
:10022000CD5C401BF8D030BD034611F8012B00F81F
:10023000012B002AF9D11846704730B50546002039
:10024000034600E05B1C934205D2EC5CC85C201ABC
:1002500001D1002CF6D130BD0246C9B200E0401CED
:100260000378002BFBD102E003788B4203D0401EC1
:100270009042F9D2002070472DE9F05F054600203A
:1002800092469B4688460646814640241BE0284607
:1002900041464746224600F042F853465A46C01AA5
:1002A000914110D311461846224600F029F82D1A24
:1002B00067EB01084F4622460120002100F020F89C
:1002C00017EB00094E41201EA4F10104DFDC484673
:1002D00031462A464346BDE8F09F0000064C074DD4
:1002E00006E0E06840F0010394E807009847103406
:1002F000AC42F6D3FFF720FF146F0008346F0008FC
:10030000202A04DB203A00FA02F1002070479140D5
:10031000C2F1200320FA03F3194390407047202ACA
:1003200004DB203A21FA02F00021704721FA02F39F
:10033000D040C2F12002914008431946704770B581
:100340008D1810F8014B14F0030201D110F8012BA5
:10035000231106D110F8013B03E010F8016B01F8FE
:10036000016B521EF9D1ABB110F8012B04F00C0453
:100370008A1A0C2C03D0A2EB84129B1C08E010F804
:10038000014BA2EB0422F8E712F8014B01F8014BF4
:100390005B1EF9D5A942D4D3002070BD00BFFEE793
:1003A000704710B50024022000F00EF820B10220A2
:1003B00000F004F802F066FE10BD0000014908607C
:1003C0007047000014040140014600200022074B42
:1003D0001B6803EA0102054B14331B680B4013B181
:1003E0000AB1012000E00020704700000004014035
:1003F000002123498279002A3AD00A46126803680C
:100400009A430B461A600A1D126803689A430B1D33
:100410001A60027911440A6803681A430A60184A8C
:100420000832126803689A43154B08331A601A1D84
:10043000126803689A43124B0C331A604279102AEF
:100440000ED11A1F126803681A430D4B08331A6045
:100450001A1D126803681A43094B0C331A600DE029
:100460000749427911440A6803681A430A6005E0A3
:10047000027911440A6803689A430A6070470000D1
:100480000004014008B5012144F27C0000F0A8F905
:100490002020ADF8000010208DF8030003208DF817
:1004A00002006946184800F057F84820ADF80000EF
:1004B0006946164800F050F81020ADF80000694673
:1004C000134800F049F84FF48450ADF80000694635
:1004D0000D4800F041F880210B4800F0C8F84FF4B7
:1004E0008051094800F0C3F81021094800F0BFF816
:1004F0000220ADF8000048208DF803006946054849
:1005000000F02AF808BD0000000C01400014014072
:10051000001001400008014030B500228B071C0F7D
:100520000F2303FA04F20B4B8C1053F8243093433F
:10053000084C8D1044F8253023468C1053F8243095
:100540008C07240F00FA04F42343024C8D1044F866
:10055000253030BD080001402DE9F041024600255C
:100560000026002000230024002791F803C00CF08F
:100570000F0591F803C00CF0100CBCF1000F03D074
:1005800091F802C04CEA050591F800C0BCF1000FDB
:1005900031D0146800202BE04FF0010C0CFA00F36E
:1005A000B1F800C00CEA03069E4220D183004FF050
:1005B0000F0C0CFA03F7BC4305FA03FC4CEA0404E5
:1005C00091F803C0BCF1280F06D14FF0010C0CFAD2
:1005D00000FCC2F814C00AE091F803C0BCF1480F57
:1005E00005D14FF0010C0CFA00FCC2F810C0401C01
:1005F0000828D1D31460B1F800C0BCF1FF0F34DD7E
:10060000546800202EE000F1080C4FF0010808FAB1
:100610000CF3B1F800C00CEA03069E4221D183001E
:100620004FF00F0C0CFA03F7BC4305FA03FC4CEA3D
:10063000040491F803C0BCF1280F05D100F1080CA7
:1006400008FA0CF8C2F8148091F803C0BCF1480F06
:1006500007D100F1080C4FF0010808FA0CF8C2F8B5
:100660001080401C0828CED35460BDE8F0810161A1
:10067000704700BFFEE700BFFEE770470EB54FF4BE
:10068000C06000F057F807208DF8080000208DF8B2
:1006900009008DF80A0001208DF80B0002A800F077
:1006A00011F801210020FFF737FF02200090002001
:1006B0008DF804000C208DF805006846FFF798FEC1
:1006C0000EBD000070B5002100230F22C47804B3D2
:1006D000154C246804F4E064C4F5E064210AC1F117
:1006E0000403CA40447804FA03F184781440214397
:1006F00009010E4C0678A155047804F01F05012469
:10070000AC4005786D11AD0005F1E025C5F800415C
:1007100009E0047804F01F050124AC40044D06787C
:10072000761145F8264070BD0CED00E000E400E0D5
:1007300080E100E002490143024A11607047000075
:100740000000FA050CED00E02DE9F041804600269E
:10075000002500270024154940F2DC5000F0ECFE93
:10076000054615B90020BDE8F081A9B2002203209A
:1007700002F02CF906462EB929460DA000F0D2FA57
:100780000020F0E734460BE06289084BD919606815
:10079000FFF7EAFC608907442468AF4200D301E018
:1007A000002CF1D100BF3046DDE70000940D0020A1
:1007B0005061636B6574526563656976653A207054
:1007C0006275665F616C6C6F63206661696C202C7A
:1007D0006C656E3D25750A09000000007047000039
:1007E00029B1064A92690243044B9A6104E0034A24
:1007F00092698243014B9A617047000000100240E9
:1008000010B500F097F901210846FFF7E9FF10BD88
:1008100030B500210022002400232D4D6D6805F025
:100820000C0121B1042905D0082923D105E0294D67
:10083000056022E0274D05601FE0254D6D6805F439
:100840007012234D6D6805F48034022505EB924249
:100850001CB9214D554305600BE01D4D6D6805F435
:1008600000351DB11C4D5543056002E0194D55433F
:10087000056002E0174D056000BF00BF144D6D68B4
:1008800005F0F0010909154D6B5C0568DD40456018
:100890000F4D6D6805F4E061090A104D6B5C456809
:1008A000DD4085600A4D6D6805F46051C90A0B4D45
:1008B0006B5C4568DD40C560054D6D6805F44041E1
:1008C000890B074D6B5CC568B5FBF3F5056130BD61
:1008D0000010024000127A0000093D0028000020AC
:1008E0003800002000B587B001210803FFF778FF2A
:1008F000E020ADF8040001208DF8060018208DF8E6
:10090000070001A91C48FFF727FE1020ADF80400DE
:1009100001208DF8060010208DF8070001A9164867
:10092000FFF71AFE10211448FFF7A1FE0020ADF8D2
:1009300008004FF48270ADF80A000020ADF80C00FA
:10094000ADF80E00ADF810004FF40070ADF81200D5
:100950001020ADF814000020ADF816000720ADF807
:10096000180002A9054800F041F80121034800F0F1
:1009700023F807B000BD000000080140003001402E
:1009800010B5044600BF02210A4800F021F80028F3
:10099000F9D02146074800F027F800BF012105489B
:1009A00000F016F80028F9D0024800F01AF8C0B29A
:1009B00010BD00000030014021B1028842F0400229
:1009C000028004E002884FF6BF731A40028070472D
:1009D0000246002013890B400BB1012000E00020EB
:1009E00070470146888970478181704710B50022A1
:1009F000028802F441520B884C8823438C8823439D
:100A0000CC8823430C8923434C8923438C8923437B
:100A1000CC8923431A430280838B4FF2FF74234017
:100A200083830B8A038210BD704710B500F002F873
:100A300010BD00000CB50020019000903348006804
:100A400040F480303149086000BF3048006800F44D
:100A5000003000900198401C0190009818B901984E
:100A6000B0F5A06FF1D12948006800F4003010B152
:100A70000120009001E0002000900098012843D15F
:100A80002348006840F010002149086008460068CB
:100A900020F0030008600846006840F0020008608B
:100AA0001A48406819494860084640684860084646
:100AB000406840F4806048600846406820F47C103C
:100AC00048600846406840F4E810486008460068FE
:100AD00040F08070086000BF0C48006800F00070B3
:100AE0000028F9D00948406820F003000749486011
:100AF0000846406840F00200486000BF0348406874
:100B000000F00C000828F9D10CBD000000100240D4
:100B10000020024005480068143004490860044879
:100B20000068801C02490860704700000000002037
:100B30002400002010B51348006840F0010011495E
:100B4000086008464068104908400E494860084659
:100B500000680E4908400B4908600846006820F408
:100B6000802008600846406820F4FE0048604FF48A
:100B70001F008860FFF759FF4FF0006004490860CC
:100B800010BD0000001002400000FFF8FFFFF6FE5D
:100B900008ED00E021B1828942F40052828104E034
:100BA00082894DF6FF731A40828170470246002009
:100BB000B1F5007F00D100BF13880B400BB10120BD
:100BC00000E00020704700002DE9F04786B00546A0
:100BD0000E460024A24600BFA1460027B08900B1FE
:100BE00000BF2F462C8A4CF6FF700440F088044367
:100BF0002C82AC894EF6F3100440B088318908434A
:100C0000718908430443AC81AC8A4FF6FF4004402D
:100C1000B0890443AC8201A8FFF7FAFD1F48874260
:100C200002D1DDF810A001E0DDF80CA0A88900F4E5
:100C3000004040B10AEBCA0000EB0A1031684900DD
:100C4000B0FBF1F807E00AEBCA0000EB0A103168CC
:100C50008900B0FBF1F86420B8FBF0F00401200932
:100C6000642101FB1089A88900F4004040B13220C2
:100C700000EBC900B0FBF1F000F00700044308E00E
:100C8000322000EB09106421B0FBF1F000F00F00FE
:100C900004432C8106B0BDE8F08700000038014015
:100CA000C1F308028280704700BFFEE700B585B03F
:100CB00001218803FFF794FD4FF40070ADF8100098
:100CC00003208DF8120018208DF8130004A9134892
:100CD000FFF742FC4FF48060ADF8100004208DF85F
:100CE000130004A90D48FFF737FC4FF4E1300090E2
:100CF0000020ADF80400ADF80600ADF80800ADF82E
:100D00000C000C20ADF80A0069460548FFF75CFFAF
:100D100001210348FFF73EFF05B000BD0008014078
:100D2000003801400FB4054B10B503A9044A0298DE
:100D300000F02CF810BC5DF814FB00009D180008B2
:100D40007C0700200FB41CB50A46521ECDE90002F4
:100D500007A9054B6A46069800F018F8009A00218A
:100D600011701CBC5DF814FBEF11000802E008C80C
:100D7000121F08C1002AFAD170477047002001E015
:100D800001C1121F002AFBD1704700002DE9FF4F5F
:100D90008DB00F460546002606E025280BD0DDE97C
:100DA0000F1290476D1C761C28780028F5D111B0E1
:100DB0003046BDE8F08F0024A246A1460122EC494E
:100DC00000E0044315F8013F203B02FA03F008421B
:100DD000F7D128782A2810D06FF02F022878A0F1B8
:100DE0003001092914D80AEB8A0102EB410144F0D1
:100DF000020400EB010A6D1CF0E701CF5FEA000A74
:100E000003D544F40054CAF1000A44F002046D1CF6
:100E100028782E2817D115F8010F44F004042A2849
:100E20000ED06FF02F022878A0F1300109290AD8DE
:100E300009EB890102EB410100EB01096D1CF2E7AE
:100E400057F8049B6D1C28786C280FD006DC4C28C2
:100E500017D068280DD06A2814D104E0742810D067
:100E60007A280FD10DE044F400140AE044F4801411
:100E700001E044F440146978814202D104F5801401
:100E80006D1C6D1C2A786E2A1FD00CDC632A31D0B1
:100E900004DC002A8BD0582A11D1A3E0642A68D040
:100EA000692A0CD165E0732A2ED004DC6F2A73D036
:100EB000702A04D19BE0752A6FD0782A6ED0104634
:100EC000DDE90F129047761C50E1C4F3025002286E
:100ED00006D0032809D0042801CF09D0066045E1D7
:100EE00001CFF117C0E9006140E101CF06803DE18B
:100EF00006703BE117F8040B8DF8000000208DF818
:100F00000100EB46012003E057F804BB4FF0FF302F
:100F100061074FF0000102D40DE008F1010188469D
:100F200049450FDA8045F8DB1BF808100029F4D199
:100F300008E008F1010188468142FADB1BF808103D
:100F40000029F6D1DDE90F23AAEB080081462146EE
:100F500000F036F9304400EB080604E0DDE90F123A
:100F60001BF8010B9047B8F10108F7D2214648461B
:100F7000F7E00A21C4F302534FF0000B0891022B53
:100F800004D001CFC117032B09D00AE0FF1D27F0C1
:100F90000707F7E8020108E032E01FE020E000B2B6
:100FA000C117042B01D140B2C117031E71F1000318
:100FB00007DA4FF0000CD0EB0C006CEB01012D2395
:100FC00002E0230504D52B238DF82430012303E010
:100FD000E30701D02023F7E7984658E00A2110E004
:100FE00010210EE010204FF0000B08900CE01021B3
:100FF0004FF0000B44F004044FF00809089103E09F
:1010000008214FF0000B0891C4F30253022B04D0C7
:1010100001CF0021032B06D006E0FF1D27F00707B4
:10102000F7E8020103E080B2042B00D1C0B24FF018
:10103000000823072BD5702A07D0DDF820C08CF0DC
:10104000100C5CEA0B0C05D00EE040238DF8243028
:10105000012308E050EA010306D030238DF8243044
:101060008DF8252002239846DDF820C08CF0080C6E
:101070005CEA0B0C0BD150EA010301D1630706D5E2
:1010800030238DF824304FF00108A9F10109582AC6
:1010900004D038A20B9208AA0A920BE03AA2F9E710
:1010A0005B46089AFFF7E8F80B9B9B5C0A9A521E76
:1010B0000A92137050EA0102F2D10A98ADEB0000D7
:1010C00000F1200B600702D524F4803401E04FF0DA
:1010D0000109D94502DDA9EB0B0000E0002000EB7F
:1010E0000B0141440890AAEB010AE00306D4DDE9B4
:1010F0000F232146504600F063F806444FF00009E4
:1011000008E009A911F80900DDE90F12904709F17B
:101110000109761CC145F4DBE0030CD5DDE90F23A2
:101120002146504600F04CF8064404E0DDE90F1279
:1011300030209047761C0899481E08900029F5DC5D
:1011400008E00A980A990078491C0A91DDE90F1213
:101150009047761CBBF10001ABF1010BF1DC21469D
:101160005046DDE90F2300F019F806446D1C1BE61C
:10117000092801003031323334353637383961626D
:101180006364656600000000303132333435363731
:101190003839414243444546000000002DE9F04102
:1011A000044600251E461746880404D405E0394647
:1011B0002020B0476D1C641EF9D52846BDE8F0819B
:1011C0002DE9F041044600251E469046C80301D58E
:1011D000302700E02027880404D505E04146384642
:1011E000B0476D1C641EF9D52846BDE8F0814A68F9
:1011F000002A06D00A68531C0B6010704868401E15
:101200004860704730B5044613E0106805782068E0
:1012100005701068401C10602068401C2060188811
:10122000401E1880A088401EA0808D4201D102205F
:1012300030BDA088002802DD18880028E5DC188869
:1012400008B90020F4E70BE0106805781888401E04
:1012500018801068401C10608D4201D10320E7E720
:1012600018880028F0DC0120E2E7016082807047E6
:10127000F0B50B46144619461E19751E0BE04E7844
:101280000F7806EB0726B2B28618B0B2904201DAA8
:10129000461CB0B2891CA942F1D3A9420AD10E78EA
:1012A000002707EB0626B2B28618B0B2904201DAE8
:1012B000461CB0B2F0BD0000014800687047000055
:1012C00024000020014691F82000062821D1124870
:1012D000007800F00100E0B1088A104A1268528AD2
:1012E00090420CDD088A0D4A1268528A801A0882E0
:1012F0000A4A48681268528A1044486005E00A8A1F
:1013000048681044486000200882012081F82000CD
:1013100070470020FCE700007400002078000020E7
:1013200070B5044610206A490860FF22002110466B
:1013300000F040FA00BF1D2000F0B5F900F00100F8
:101340000028F8D00020634908600021082000F040
:101350000DFA0021092000F009FA00210C2000F00C
:1013600005FA00210D2000F001FAFE210A2000F00C
:10137000FDF919210B2000F0F9F9FF21042000F0FC
:10138000F5F91921052000F0F1F9FF21062000F000
:10139000EDF91F21072000F0E9F9B021382000F015
:1013A000E5F93F21282000F0E1F93021292000F063
:1013B000DDF9F921302000F0D9F9F721312000F0D2
:1013C000D5F90D21C02000F0D1F90021C12000F095
:1013D000CDF93322C221802000F0ECF91221C62081
:1013E00000F0C4F90C21C72000F0C0F91521C42079
:1013F00000F0BCF9DC21CA2000F0B8F90521CB20AF
:1014000000F0B4F92178E42000F0B0F96178E5202B
:1014100000F0ACF9A178E22000F0A8F9E178E3202F
:1014200000F0A4F92179E02000F0A0F96179E12031
:1014300000F09CF9E42000F036F9217888422FD1A1
:10144000E42000F030F90546294623A0FFF76AFCA6
:10145000E52000F028F90546294623A0FFF762FCA5
:10146000E22000F020F90546294623A0FFF75AFCA8
:10147000E32000F018F90546294623A0FFF752FCA7
:10148000E02000F010F90546294623A0FFF74AFCAA
:10149000E12000F008F90546294623A0FFF742FCA9
:1014A0004FF48071002000F0E5F84FF480711020B7
:1014B00000F0E0F81F2000F03FF9C1221B2180203E
:1014C00000F078F904221F21802000F073F970BD2C
:1014D00010080140400000204D4141445235203D5C
:1014E0002025780D0A0000004D4141445234203D32
:1014F0002025780D0A0000004D4141445233203D23
:101500002025780D0A0000004D4141445232203D13
:101510002025780D0A0000004D4141445231203D04
:101520002025780D0A0000004D4141445230203DF5
:101530002025780D0A0000002DE9F04105460F46F0
:10154000392000F0B0F810B90020BDE8F08129483A
:101550000178002000F00AF926480088C0F307212E
:10156000012000F003F900213A2000F0C3F82149DE
:10157000086000213A2000F0BDF81E49096841EAE0
:1015800000201C49086000213A2000F0B3F804460E
:1015900000213A2000F0AEF844EA0024241F002184
:1015A0003A2000F0A7F8064600213A2000F0A2F801
:1015B00046EA0026681EA04200D26C1E06F080009B
:1015C00008B9002403E03946204600F077F80948BE
:1015D00001780C2000F0CAF806480088C0F3072103
:1015E0000D2000F0C3F840221E21802000F0E2F818
:1015F0002046AAE74000002070B504460D4600BF13
:101600001F2000F050F800F008000028F8D1FF215A
:10161000022000F0ABF81921032000F0A7F8FF200A
:101620002044C1B2062000F0A1F841F6FF1020448A
:10163000C0F30721072000F099F8002211467A2014
:1016400000F0B8F82946204600F09CF808221F2137
:10165000802000F0AFF81C2000F025F800F0020018
:1016600038B11F2000F068F808221F21A02000F0E8
:10167000A1F870BD70B505460C462946D42000F08F
:1016800075F8E1B2D62000F071F8C4F30721D72035
:1016900000F06CF800BFEA2000F005F800F001004F
:1016A0000028F8D170BD10B50446204600F044F87B
:1016B0002146002000F01EF810BD000070B5054660
:1016C0000C4610200A4908603A20FFF759F905E056
:1016D0006D1E0020FFF754F92070641C002DF7D117
:1016E0000020207010200249091F086070BD000012
:1016F0001408014070B505460C46002610200D491F
:10170000086004F01F0040EA05063046FFF738F98C
:10171000FF20FFF735F9064604F0800018B1FF20DE
:10172000FFF72EF9064610200249091F08603046CF
:1017300070BD00001408014010B5044604F06000BC
:101740000949097888420ED003221F21A02000F009
:1017500031F8C4F341121F21802000F02BF804F06F
:1017600060000149087010BD3C00002070B50446BF
:101770000D462046FFF7E0FF2A462146402000F0B4
:1017800019F870BD70B504460D4610200849086070
:101790007A20FFF7F5F804E0641E2878FFF7F0F8E8
:1017A0006D1C002CF8D110200149091F086070BD84
:1017B000140801402DE9F04104460D461646002765
:1017C00010200949086005F01F0040EA0407384668
:1017D000FFF7D6F837463846FFF7D2F8102002490F
:1017E000091F0860BDE8F0811408014010B50446E7
:1017F00004F007017520FFF7B9FF10BD2DE9F04196
:101800000446E769204600F07BFC054615B9002038
:10181000BDE8F0816E68B08900F078FCB0F5006F2B
:1018200003D0A0F6060068B900E000BF21462846B4
:101830002269904728B100BF00BF284601F08AFA0C
:10184000002504E0284601F085FA002500BF00BF0E
:101850000120DDE770B504460D46208D10B16128EA
:1018600014D103E000BF6120208500BF202128465D
:10187000FEF7BCFC461C3246074904F1280001F083
:1018800013FC08B9002070BD00BF00BF00BF0020DE
:1018900020850220F7E70000C118000870B5044653
:1018A0000D46E1B20548FFF7FBF900BF40210348B0
:1018B000FFF77CF90028F9D0204670BD00380140C0
:1018C00070B504462546284600F0C2FB064633465E
:1018D00004A240F6CA7104480068FFF733FA80B2E8
:1018E00070BD0000253575006800002070B5044605
:1018F0002546B5F8AC00064931F8103005A240F68F
:10190000CA7106480068FFF71DFA80B270BD00007A
:101910002C7800202535750A0000000068000020A2
:1019200070B505462C469C2000590D490968498A26
:10193000884205DD0A480068408AC4F8A00003E038
:101940009C200059C4F8A00098340648A268216879
:101950000068FEF709FC2089983C80B270BD000049
:1019600078000020680000202DE9F04F8BB005467C
:101970000A950A9DB5F8AC0000EB8000234901EB05
:10198000C004E08800F0EEFA0646608800F0EAFA4B
:10199000C7B2608800F0E6FA4FEA2028208800F0FD
:1019A000E1FA00F0FF09208800F0DCFA4FEA202A73
:1019B000A08800F0D7FA8346607E00F0100008B1DE
:1019C000212200E02022208A08B12A2300E02023DF
:1019D000A07EE17ECDE90832CDE90610607E00F000
:1019E0000F000B4951F820005B460A4A40F6CA71C5
:1019F000CDE900A9CDE90287CDE904600648006879
:101A0000FFF7A0F980B20BB0BDE8F08F387100206D
:101A1000C40000206C6E00086800002063212E22A4
:101A200082700A2291FBF2F302FB13123032C27071
:101A3000002202717047312101713221C1713321BD
:101A400081723A21417300210174704710B5044638
:101A5000204600F009F894F89600012802D12046AB
:101A600000F03EF910BD000070B586B00446A088B5
:101A700038B1A0F20F1048B1022825D0462870D105
:101A8000DAE000BF40F20F10A08000BF2021201D2F
:101A900001F07AFB10B9002006B070BD00BF04222F
:101AA000744904F15000FEF7C8FB40B100BF10209C
:101AB0007149087000BF0020A0800120ECE700BF42
:101AC00040F21110A08000BF2021201D01F05CFB1E
:101AD00008B90020E0E700BF94F850002F2808D094
:101AE00000BF10206449087000BF0020A0800120C2
:101AF000D2E75120005D202803D05120005D3F280F
:101B00007ED15120005D3F282CD15620005D312828
:101B100028D15AA15C48FEF74BFB0546002D4FD05B
:101B20005AA12846FEF744FB0546062259A1E81DA6
:101B3000FEF750FB022259A105F11800FEF74AFBFF
:101B400057A12846FEF734FB054657480068FEF7C4
:101B500057FB06463246544801682846FEF73AFBD2
:101B60002EE081E05120005D3F2829D15620005D04
:101B7000322825D14DA14448FEF71AFB0546FDB198
:101B800042A12846FEF714FB054606224AA1E81D9D
:101B9000FEF720FB02224AA105F11800FEF71AFB0E
:101BA0003FA12846FEF704FB054646480068FEF7BD
:101BB00027FB06463246434801682846FEF70AFBE3
:101BC00041A13148FEF7F4FA05463DB101A8FFF7FF
:101BD00025FF281F042201A9FEF7FCFA3BA1284695
:101BE000FEF7E6FA054645B101A8FFF724FF1022EB
:101BF00001A905F12100FEF7EDFA1422364900E0B3
:101C000004E004F18200FEF7E5FA0CE0201D01F08B
:101C100045FA401E04F1500100220A54142204F136
:101C20008200FEF7D7FA012084F896001BE000BF7F
:101C300040F25510A08000BF0A21201D01F0A4FA37
:101C400008B9002028E700BF0822244904F1500009
:101C5000FEF7F3FA38B9201D01F020FA801E04F1D6
:101C6000500100220A54E2E700BF0020A0800220B9
:101C700012E700003B6B0008740000204C45443024
:101C8000D7B4CCAC00000000F5000020636F6C6F8F
:101C9000723A23003542354235420000C3F000005D
:101CA000687474703A000000B00000204C45443164
:101CB000D7B4CCAC000000003030464630300000D5
:101CC000C1C10000AC000020A1E60000525443CA8C
:101CD000B1BCE43A00000000806B0008966B00087D
:101CE00070B50446B4F84C00E5283AD005DC48B19C
:101CF000E0281DD0E22868D127E0EA284ED0ED2860
:101D000063D157E004F1980104F1820000F0BAF9C0
:101D100010BB04F19801304800F0B4F92E4904F1E9
:101D20008200FEF781FA00BFE020A4F84C0000BF5B
:101D30002A49204601F0FEFA08B9002070BD00BF14
:101D400000BFE220A4F84C0000BF204601F0C2FA18
:101D500008B90020F2E734E000BFE520A4F84C0009
:101D600000BF1F49204601F0E5FA08B90020E5E769
:101D700000BF2E2104F18200FEF738FA0546A5B116
:101D8000062218492846FEF758FA70B90020A4F830
:101D90004E0000BFEA20A4F84C0000BF204600F02F
:101DA00025F808B90020C9E70BE000BFED20A4F832
:101DB0004C0000BF204601F08DFA08B90020BDE7B5
:101DC00000BF10200849087000BF00BF0020A4F821
:101DD0004C000220B2E700008C6B0008F36B000897
:101DE0009F6B0008446D0008740000202DE9F0414D
:101DF0000446B4F84E0030B18F282BD0912836D04D
:101E0000B0287DD18CE09FE0D4F898000078252898
:101E100046D1D4F898004078212841D1D4F89800D0
:101E2000C01CC4F8A4009C200059C01EC4F8A8001F
:101E3000D4F8A40010F8010C3A2813D1D4F8A41057
:101E4000481C04F1980100F01DF900BF8F20A4F890
:101E50004E0000BF204601F03DFA10B90020BDE859
:101E6000F08112E000BF9120A4F84E0000BFD4F82A
:101E7000A40000F0CFF80746D4F8A460314620460D
:101E8000B84708B90020EAE700BF204600F084FD0B
:101E90009834E06820602169983C9C20015153E00F
:101EA0009C2000592E490968498A884205DD2C4842
:101EB0000068408AC4F8A00003E09C200059C4F8E0
:101EC000A000D4F898000078252807D1D4F89810FD
:101ED000481C2521FEF78AF9054605E02521D4F89E
:101EE0009800FEF783F90546ADB1D4F89800A842F2
:101EF00011D054F8980F281AA060A068983C00E010
:101F000028E017490968498A884204DB14480068B8
:101F1000408AC4F8A00000BFB020A4F84E0000BF63
:101F2000204601F001FB08B9002098E700BF54F8F3
:101F3000980FA168084444F898099C200059D4F8E7
:101F4000A010411A9C2001519C20005900283FF705
:101F50005BAF00BF00BF0020A4F84E0002207EE768
:101F6000780000200146080240EA212080B2704734
:101F700010B52648006800F11C042548007800F0E0
:101F80001000002840D12248007800F020000028EE
:101F90003AD11F48007800F08000002834D11C4856
:101FA000007800F04000B0B1312204F15001201D52
:101FB00001F0BCF8312204F1500104F1280001F0D5
:101FC000B5F80020A4F84C0084F896002070204654
:101FD000FFF73CFD18E0A4B10D48007800F00800C0
:101FE00058B12078401C20702078142803DB202072
:101FF0000749087001E0002020702046FFF726FD09
:1020000002E020200249087010BD00007800002086
:102010007400002070B505460B4C0FE0216808687D
:10202000FEF7EEF806462168324608682946FEF7B4
:1020300004F910B92068406870BD241D206800288C
:10204000ECD10248F8E70000B4000020BB290008EA
:1020500070B506460025094C0BE03046616800F07B
:1020600037F818B9064830F8150070BD681C85B2FD
:102070002468002CF1D10020F7E70000106B000865
:10208000507A00202DE9F04107460D4600260E4CFF
:1020900015E03846616800F01BF868B9A068286050
:1020A000E0686860094830F81600401C074921F8CC
:1020B00016000120BDE8F081701C86B22468002C57
:1020C000E7D10020F6E70000106B0008507A0020EE
:1020D00010B502460B46002100BF585C28B1505C89
:1020E0000D2802D0505C0A2801D1002010BD505CA0
:1020F0005C5CA04201D00120F8E7481CC1B2ECE7CB
:1021000010B504462046FEF71FFB10BD0146080629
:10211000000C40EA1120704700BF00BFFEF770FBC3
:10212000FEF7ACFAFEF7AEF9FEF7C0FD5C49B1F17F
:10213000807F01D301201DE021F07F40401E4FF041
:10214000E022506150170F22002807DA13071E0EF5
:10215000544B00F00F052D1F5E5503E013071D0EB5
:10216000514B1D5400BF00204FF0E022906107202A
:102170001061002008B100BFFEE74CA0FEF7D2FDC1
:1021800058A0FEF7CFFD57A0FEF7CCFD63A0FEF7E9
:10219000C9FD70A0FEF7C6FD7CA0FEF7C3FD89A0B7
:1021A000FEF7C0FD4FA0FEF7BDFD94A0FEF7BAFDFF
:1021B000FEF798FB01F0D6F902F040F800BF4AF6AE
:1021C000C0009C49088041F20100488000BF00BF68
:1021D000084600889849088096484088488000BF93
:1021E00000BF4AF6C0009349088040F201104880C1
:1021F00000BF00BF08460088904908808D4840888D
:10220000488000BF00BF4FF6FF708A490880FF205A
:10221000488000BF00BF084600888949088085487B
:102220004088488000BF00240EE004EB840085490C
:1022300001EB400030B1002004EB8401814A02EB45
:1022400041018880601CC4B20A2CEEDB00BF4AF654
:10225000C0007849088041F20110488000BF49F26F
:102260001F71744803F018FA77490860084600683F
:1022700018B149F21F100968888049F21F716D4832
:1022800003F00AFA704908600846006818B149F27C
:102290001F200968888001E002F040F8FCE7000098
:1022A00000F9150018ED00E000E400E02A2A2A2ACF
:1022B0002020202020202028432920434F505952FD
:1022C00049474854203230313320D6C6D4ECD5DFCC
:1022D000BFC6BCBC202020202A2A2A2A2A2A2A0D4E
:1022E0000A0000002A20202020202020202020205A
:1022F00020202020202020202020202020202020DE
:1023000020202020202020202020202020202020CD
:102310002020202020202A0D0A0000002A20202032
:1023200020204D4355C6BDCCA83A53544D333246B8
:1023300031303356455436202020202020202020C4
:1023400020202020202020202020202020202A0D96
:102350000A0000002A2020202020D2D4CCABCDF8C7
:10236000D3B2BCFE3A454E4332384A3630202020A4
:10237000202020202020202020202020202020205D
:102380002020202020202A0D0A0000002A202020C2
:102390002020B9CCBCFEBFE2A3BA332E35202020CA
:1023A000202020202020202020202020202020202D
:1023B00020202020202020202020202020202A0D26
:1023C0000A0000002A2020202020C0FDB3CCB0E667
:1023D000B1BE3A20302E3220202020202020202084
:1023E00020202020202020202020202020202020ED
:1023F0002020202020202A0D0A0000002A2A2A2A34
:102400002A2A2A2A2A2A2A2A2A2A2A2A2A2A2A2A2C
:102410002A2A2A2A2A2A2A2A2A2A2A2A2A2A2A2A1C
:102420002A2A2A2A2A2A2A2A2A2A2A2A2A2A2A0D29
:102430000A00000004000020540000205800002082
:102440005C000020C87700200C00002070B5054615
:1024500015B900BF00BF70BD00BF05F0030020B17B
:1024600026A0FEF75FFC00BFFEE700BF00BF2C48C0
:102470000068854203D32B480068854204D32AA014
:10248000FEF750FC00BFFEE700BF2548006885420C
:1024900003D32448006885420AD300BF00BF284800
:1024A000B0F8B400401C81B22548A0F8B410D2E7BF
:1024B000A5F1080400BF207920B922A0FEF732FC64
:1024C00000BFFEE700BF002020712348006884425F
:1024D00001D221480460208811490988611A411AF3
:1024E0001748B0F8AE00401A81B21548A0F8AE10F7
:1024F000204600F0D7FC00BFADE700006D656D5FC2
:10250000667265653A2073616E69747920636865E7
:10251000636B20616C69676E6D656E74000000000E
:1025200044000020480000206D656D5F667265659F
:102530003A206C6567616C206D656D6F7279000083
:10254000DC5F00206D656D5F667265653A206D65C4
:102550006D2D3E75736564004C0000202DE9F04739
:10256000054615B90020BDE8F087E81C20F00300FF
:1025700085B20C2D00DA0C25B5F5204F01DD0020C9
:10258000F1E76748008867490988401A86B2B5E0D4
:10259000644800688419207900287DD1218806F1DB
:1025A0000800081AA84277D3218806F10800091A02
:1025B00005F11400814232D306F1080028441FFAC5
:1025C00080F85848006800EB080700203871208820
:1025D00038807E80A4F80080012020713888B0F512
:1025E000204F05D038884F4909680844A0F8028078
:1025F00000BF4D48B0F8AE1005F10800084481B2A4
:102600004948A0F8AE10B0F8B010B0F8AE00814262
:1026100004DA4548B0F8AE10A0F8B0101BE0012075
:10262000207100BF20883F490988611A411A3E483D
:10263000B0F8AE00084481B23B48A0F8AE10B0F844
:10264000B010B0F8AE00814204DA3748B0F8AE10EE
:10265000A0F8B01000BF32480068844226D130484C
:10266000D0F8009005E0B9F800002E49096800EBA9
:10267000010999F8040018B12C4800688145F2D18D
:102680002748C0F8009000BF0068284909688842C0
:102690000AD02348006800E02DE0007920B124A092
:1026A000FEF740FB00BFFEE700BF00BF00BF04F124
:1026B000080028441D490968884204D923A0FEF770
:1026C00031FB00BFFEE700BF00BF04F0030020B1F4
:1026D0002AA0FEF727FB00BFFEE700BF00BF04F003
:1026E000030020B131A0FEF71DFB00BFFEE700BFD5
:1026F00004F1080037E70B480068865BC5F5204009
:10270000B0423FF745AF00BF00BF0748B0F8B20086
:10271000401C81B20448A0F8B210002023E700005A
:102720004C00002044000020DC5F00204800002016
:102730006D656D5F6D616C6C6F633A20216C6672C4
:1027400065652D3E75736564000000006D656D5F05
:102750006D616C6C6F633A20616C6C6F6361746562
:1027600064206D656D6F7279206E6F742061626F89
:1027700076652072616D5F656E642E006D656D5FBC
:102780006D616C6C6F633A20616C6C6F6361746532
:1027900064206D656D6F72792070726F7065726CF8
:1027A0007920616C69676E65642E00006D656D5FF0
:1027B0006D616C6C6F633A2073616E69747920632C
:1027C0006865636B20616C69676E6D656E7400008F
:1027D00070B504460D4605B970BD00BF05F0030095
:1027E00020B10DA0FEF79EFA00BFFEE700BF2E4607
:1027F000114800EB0410C088401E81B20E4800EB67
:102800000410C1800D4850F8240030600B4840F897
:10281000246000BFE0E700006D656D705F66726563
:10282000653A206D656D2070726F7065726C7920ED
:10283000616C69676E65640094600020701300200D
:1028400070B5044600BF0A2C04DB23A0FEF76AFA29
:10285000002070BD00BF284850F82450002D2CD017
:102860002549286841F8240000BF244800EB0410E3
:10287000C088401C81B2214800EB0410C1801F4871
:1028800000EB041001891D4800EB0410C088814250
:1028900007DA1A4800EB0410C188184800EB04104E
:1028A000018100BF00BF05F0030020B114A0FEF7B6
:1028B00039FA00BFFEE700BF0BE000BF00BF0F48C2
:1028C00000EB04104089401C81B20C4800EB04105E
:1028D00041812846BDE700006D656D705F6D616CDC
:1028E0006C6F633A2074797065203C204D454D50E3
:1028F0005F4D4158000000007013002094600020DC
:102900006D656D705F6D616C6C6F633A206D656DA8
:10291000702070726F7065726C7920616C69676E7F
:102920006564000010B504462046FEF7F9FC40F24D
:1029300076411420FEF79EFE0220FEF757FF10BDE1
:1029400070B504460D46208D10B1C3281CD107E098
:102950000020A4F8AC0012E000BFC320208500BF17
:1029600022460C4904F1280000F09EFB08B9002023
:1029700070BD00BFB4F8AC00401CA4F8AC00B4F8C3
:10298000AC001A28E8D300BF00BF00202085022039
:10299000EEE70000ED18000870B5044654F8A40FE7
:1029A0000A21FDF723FC451C2188691A89B2606859
:1029B000401A606044F8A45970BD0246108D00B9F9
:1029C00000BF00BF00201085022070472DE9F05F96
:1029D00083460F46914600BF00BFBBF1000F09D0F0
:1029E000BBF1010F08D0BBF1020F07D0BBF1030F01
:1029F00008D105E036260BE0222609E00E2607E086
:102A0000002605E000BF83A0FEF78CF900BFFEE7BB
:102A100000BFB9F1000F76D0B9F1010F74D0B9F150
:102A2000020F72D0B9F1030F70D10920FFF708FF30
:102A3000044600BF00BF24B900F02EFA0020BDE814
:102A4000F09F84F80C900020206006F110002044D4
:102A5000C01C20F00300606000BF207900F003007C
:102A600020B173A0FEF75EF900BFFEE700BF27812B
:102A7000F01C20F00300C0F58460B84201DD384648
:102A800004E0F01C20F00300C0F58460608100BF0A
:102A900061896068014404F58660814204D970A0B0
:102AA000FEF740F900BFFEE700BF00BFF01C20F0BA
:102AB0000300C0F58460002804DC76A0FEF732F93C
:102AC00000BFFEE700BF0120E081A2466089A7EBBE
:102AD000000851E00920FFF7B3FE054635B900F0C4
:102AE000DBF9204600F036F90020A8E785F80C90C5
:102AF000002068732860CAF8005000BF4FF6FF70CE
:102B0000804509DB03E03BE062E062E072E06EA03A
:102B1000FEF708F900BFFEE700BFA5F808801FFA1E
:102B200088F0B0F5846F02DA1FFA88F001E04FF404
:102B30008460688105F11000686000BF287900F0AA
:102B4000030020B165A0FEF7EDF800BFFEE700BF6F
:102B500000BF61896068014404F58660814204D940
:102B60003FA0FEF7DFF800BFFEE700BF0120E881CD
:102B70006889A8EB0008AA46B8F1000FAADC3FE07C
:102B800006F1130121F00302F91C21F003011144A5
:102B900088B2FFF7E3FC04460CB900204FE704F1CC
:102BA00010003044C01C20F0030060602781678162
:102BB0000020206084F80C9000BF207900F0030012
:102BC00020B152A0FEF7AEF800BFFEE700BF17E04D
:102BD00000BF0820FFF734FE04461CB900BF00BF49
:102BE00000202CE70020606027816781206084F846
:102BF0000C9005E000BF50A0FEF794F800BFFEE780
:102C000000BF0120E0810020607300BF00BF2046AC
:102C100015E70000706275665F616C6C6F633A2047
:102C20006261642070627566206C61796572000073
:102C3000706275665F616C6C6F633A207062756676
:102C400020702D3E7061796C6F61642070726F70BE
:102C500065726C7920616C69676E656400000000C4
:102C6000636865636B20702D3E7061796C6F616481
:102C7000202B20702D3E6C656E20646F6573206E76
:102C80006F74206F766572666C6F77207062756600
:102C900000000000504255465F504F4F4C5F425578
:102CA0004653495A45206D757374206265206269E8
:102CB00067676572207468616E204D454D5F414CB9
:102CC00049474E4D454E540072656D5F6C656E20F0
:102CD0003C206D61785F7531365F74007062756697
:102CE0005F616C6C6F633A207062756620712D3E77
:102CF0007061796C6F61642070726F7065726C794D
:102D000020616C69676E6564000000007062756622
:102D10005F616C6C6F633A20706275662D3E706106
:102D2000796C6F61642070726F7065726C7920616C
:102D30006C69676E65640000706275665F616C6CDB
:102D40006F633A206572726F6E656F757320747968
:102D5000706500002DE9F047044664B900BF24B94E
:102D600035A0FDF7DFFF00BFFEE700BF00BF00BFDB
:102D70000020BDE8F08700BF00BF00BF207B68B126
:102D8000207B01280AD0207B022807D0207B032843
:102D900004D02CA0FDF7C6FF00BFFEE700BF002651
:102DA00045E000BFE089002804DC2CA0FDF7BAFF55
:102DB00000BFFEE700BFE089401E1FFA80F8A4F8BC
:102DC0000E80B8F1000F2ED1276800BF00BF257B11
:102DD000607B00F0020078B1A14600BFD9F8100076
:102DE00020B924A0FDF79EFF00BFFEE700BF2046EC
:102DF000D9F81010884712E0032D04D1214609208C
:102E0000FFF7E6FC0BE0012D01D0022D04D1214695
:102E10000820FFF7DDFC02E02046FFF717FB701CDF
:102E2000C6B23C4602E000BF00BF002400BF002C39
:102E3000B7D130469DE700007020213D204E554C13
:102E40004C000000706275665F667265653A2073BB
:102E5000616E6520747970650000000070627566AF
:102E60005F667265653A20702D3E726566203E2071
:102E70003000000070632D3E637573746F6D5F6684
:102E80007265655F66756E6374696F6E20213D20A3
:102E90004E554C4C0000000001200149087070475D
:102EA0005000002070B5044600BF2F4800688442DF
:102EB00004D22EA0FDF736FF00BFFEE700BF00BF23
:102EC00030480068844204D32FA0FDF72BFF00BFD9
:102ED000FEE700BF00BF207920B132A0FDF722FF3E
:102EE00000BFFEE700BF00BF2088B0F5204F04DD23
:102EF00033A0FDF717FF00BFFEE700BF20881A4987
:102F000009684518AC4215D0287998B91D48006861
:102F100085420FD035480068A84201D1334804608B
:102F20002888208010480088201A29880E4A1268B4
:102F30001144488060880C4909684618A64211D09F
:102F4000307978B929480068A04201D12748066045
:102F50002088308004480088301A2188024A12688C
:102F60001144488070BD000044000020706C7567FB
:102F70005F686F6C65733A206D656D203E3D207211
:102F8000616D000048000020706C75675F686F6CB1
:102F900065733A206D656D203C2072616D5F656ED2
:102FA00064000000706C75675F686F6C65733A2031
:102FB0006D656D2D3E75736564203D3D20300000CC
:102FC000706C75675F686F6C65733A206D656D2D09
:102FD0003E6E657874203C3D204D454D5F53495A07
:102FE000455F414C49474E45440000004C000020DD
:102FF0002DE9F04104460D460520064602461248DA
:1030000001682046FDF703F9B0B910480068FDF7E4
:10301000F7F807463A460D4801680D480068FDF785
:10302000A3F80A480068FDF7EBF807463946084858
:10303000006802F013FB04E029460548006802F02E
:103040000DFBBDE8F0810000740700207807002028
:103050006800002070B504460D460648006806A1C9
:103060000A6802604968416008210248006802F06D
:10307000F5FA70BD6800002061707064617461329F
:103080000000000010B5002400BF0348FEF7B6FBA7
:103090000446002CF9D110BD8007002001468A8B20
:1030A000088B101A80B270472DE9F04104460D4696
:1030B0001646608810B1EE282FD11BE02DB900BF55
:1030C000002060800120BDE8F0813046A8472082C2
:1030D000144800686060002084F8200000BF124897
:1030E000007800F0040008B13046A84700BFEE2089
:1030F000608000BF2046FEF7E5F80746204600F056
:10310000C1F807400FB90020DDE700BF208A002882
:10311000E5DC002084F8200000BF00BF00206080B4
:103120000220D0E7680000207400002070B504463B
:103130000E461546002084F820006082E660E561B6
:10314000AAB2314604F11400FEF78FF80020208067
:10315000608070BD0146488A002801DD012070476B
:1031600091F82000022804D1032081F820000020DB
:10317000F5E70448007800F0020008B10120EEE70E
:103180000020ECE77400002070B504460D4660880E
:1031900020B1A0F21B10002836D10EE0A08B82B225
:1031A00004F11400E168FEF760F800BF608AA0B97E
:1031B00000BF40F21B10608000BF2046FFF7CAFF2F
:1031C00008B9002070BD00BF022084F8200011481B
:1031D0000068A06010480088608204F1120304F1C6
:1031E00008022946981CFEF70DF800F0020000289E
:1031F000DCD02046FFF752FF28B9002084F82000D9
:1032000000BF6080DEE700BF00BF002060800220BA
:10321000D8E7000068000020700000202DE9F04190
:1032200004460E461546608810B1CF2824D110E020
:103230002DB900BF002060800120BDE8F0816660EC
:103240002582002084F820000FE000BFCF2060809E
:1032500000BF2046FEF736F80746204600F012F879
:1032600007400FB90020E8E700BF208A0028ECDC07
:10327000002084F8200000BF00BF002060800220F2
:10328000DBE7000010B5044694F82000062804D1BE
:103290000E48007800F00400A8B1208A0C490968A3
:1032A000498A884206DD0A4A1268518A606802F03B
:1032B000D5F903E0218A606802F0D0F9062084F88D
:1032C0002000012010BD0020FCE700007400002059
:1032D0007800002010B50446208D10B1632821D15C
:1032E00004E000BF00BF6320208500BF22461049D4
:1032F00004F12800FFF7D8FE08B9002010BD00BF78
:103300009C200059D4F8A010411A9C20015154F877
:10331000980FA168084444F898099C200059002897
:10332000E0DC00BF00BF002020850220E6E70000AF
:10333000211900082DE9F04104460E46208DCA28C7
:1033400065D007DC78B1C12811D0C52829D0C8289C
:103350007ED144E0CC2872D0CE287AD0D02879D043
:10336000D228F5D1B1E000BFC120208500BF304692
:10337000FCF746FF07463A46314604F12800FFF7BE
:103380004DFF10B90020BDE8F08100BF2E2104F1EF
:103390008200FCF761FF05468DB900BFC52020857E
:1033A00000BF5448FCF72CFF07463A46514904F148
:1033B0002800FFF733FF08B90020E4E793E0052277
:1033C00029464D48FCF739FF28B1062229464B48CB
:1033D000FCF733FF88B900BFC820208500BF4848EC
:1033E000FCF70EFF07463A46454904F12800FFF76F
:1033F00015FF08B90020C6E775E0042229464148B8
:10340000FCF71BFF88B900BFCA20208500BF3E48DB
:10341000FCF7F6FE07463A463B4904F12800FFF761
:10342000FDFE08B90020AEE75DE0042229463748DA
:10343000FCF703FFA8B900BFCC20208500BF3448AB
:10344000FCF7DEFE07463A46314904F1280002E067
:103450004AE010E027E0FFF7E1FE08B9002092E71C
:1034600041E0042229462B48FCF7E7FE88B900BF5B
:10347000CE20208500BF2848FCF7C2FE07463A460A
:10348000254904F12800FFF7C9FE08B900207AE7B2
:1034900029E0042229462148FCF7CFFE88B900BF65
:1034A000D020208500BF1E48FCF7AAFE07463A46FA
:1034B0001B4904F12800FFF7B1FE08B9002062E7BC
:1034C00011E000BFD220208500BF1648FCF798FE0F
:1034D00007463A46134904F12800FFF79FFE08B952
:1034E000002050E700BF00BF00BF00202085022061
:1034F00049E70000136D00083E6D0008446D0008A8
:103500006B6C0008506D0008876C0008556D000852
:10351000BE6C00085A6D0008DA6C00085F6D000888
:10352000F66C00084E6C000810B50446208D10B1F2
:10353000702811D103E000BF7020208500BF04F186
:103540002800D4F8A020D4F89810FFF767FE08B937
:10355000002010BD00BF00BF00BF0020208502205A
:10356000F7E7000010B50248FFF7DCF9002010BDB6
:10357000A000002010B5034940F2DC50FDF7DCFF4D
:1035800080B210BD3461002010B5034903480088A3
:10359000FEF732F810BD00003461002070000020FA
:1035A00010B50648007820F080000449087000F04B
:1035B00007F903A000F0A2FE10BD0000A600002045
:1035C0007463705F636C69656E742061626F72749E
:1035D0006564210D0A00000010B50548006800F17F
:1035E0001C040020A06003A000F088FE10BD0000B5
:1035F000780000207463705F636C69656E7420618D
:10360000636B6564210D0A0010B50648007820F050
:1036100080000449087000F0D3F803A000F06EFEAB
:1036200010BD0000A60000207463705F636C6965C4
:103630006E7420636C6F736564210D0A00000000D6
:1036400010B50B48006800F11C040A48007840F0EF
:1036500080000849087008A000F050FE002020708B
:10366000A0600BA060606068FCF7CAFDA06010BDA0
:1036700078000020A60000207463705F636C6965A9
:103680006E7420636F6E6E6563746564210D0A004D
:10369000414C49454E54454B2053544D3332204202
:1036A0006F61726420436F6E6E656374656420534E
:1036B00075636365737366756C6C79210D0A000020
:1036C00010B53948006800F11C043848007800F053
:1036D000200008B1FFF764FF3448007800F0800054
:1036E00008B100F093F83148007800F0100008B1FC
:1036F000FFF78AFF2D48007800F0400008B1FFF77F
:103700009FFF2A48007800F0010008B1FFF764FF2E
:103710002648007800F00200C8B12548007800F083
:10372000400020BB23480088C72804DD0020224930
:10373000096881F8C700204801682048FCF774FD3B
:103740001B48007840F04000194908700FE0184805
:10375000007800F0200050B118486060FCF750FD80
:10376000A0601348007820F02000114908700F482D
:10377000007800F0040098B90C48007800F00200CE
:1037800070B90A48007800F0010048B9074800788D
:1037900000F0400020B90548007800F0080008B1AA
:1037A00000F024F810BD0000780000207400002014
:1037B000A60000207000002068000020C0780020D3
:1037C00038B500BF4AF6C000ADF8000046F20170FF
:1037D000ADF8020000BF4FF4AF60FEF7C3FB044634
:1037E0002146684600F0A2FC38BD000010B506482E
:1037F000006800F11C04A068002803DDD4E9010181
:1038000001F02CFF10BD00007800002010B5054825
:10381000007820F080000349087003A000F06EFDDE
:1038200010BD0000A60000207463705F636C6965C2
:103830006E742074696D656F7574210D0A00000047
:1038400010B5104800688088B0F5A04F04D0A0F5EE
:103850003040043830B902E0FEF78AFB03E000F0A4
:103860009FF800E000BF00BF06480068C088A0F5D0
:10387000F040053810B9FFF723FF00E000BF00BF9C
:1038800010BD00007800002010B50548007820F039
:1038900080000349087003A000F030FD10BD000057
:1038A000A70000207463705F736572766572206193
:1038B000626F72746564210D0A00000010B505483E
:1038C000006800F11C040020A06003A000F016FDB9
:1038D00010BD0000780000207463705F736572761D
:1038E00065722061636B6564210D0A0010B505489F
:1038F000007820F080000349087003A000F0FEFC6F
:1039000010BD0000A70000207463705F73657276BD
:10391000657220636C6F736564210D0A00000000FE
:1039200010B50B48006800F11C040A48007840F00C
:1039300080000849087008A000F0E0FC002020701A
:10394000A0600BA060606068FCF75AFCA06010BD2E
:1039500078000020A70000207463705F73657276A2
:10396000657220636F6E6E6563746564210D0A0075
:10397000436F6E6E65637420746F20414C49454EF1
:1039800054454B2053544D333220426F61726420B2
:103990005375636365737366756C6C79210D0A00EA
:1039A00010B53948006800F11C043848007800F070
:1039B000200008B1FFF768FF3448007800F080006D
:1039C00008B100F07DF83148007800F0100008B12F
:1039D000FFF78CFF2D48007800F0400008B1FFF79A
:1039E0009FFF2A48007800F0010008B1FFF766FF4A
:1039F0002648007800F00200C8B12548007800F0A1
:103A0000400020BB23480088C72804DD002022494D
:103A1000096881F8C700204801682048FCF704FCC9
:103A20001B48007840F04000194908700FE0184822
:103A3000007800F0200050B118486060FCF7E0FB0F
:103A4000A0601348007820F02000114908700F484A
:103A5000007800F0040098B90C48007800F00200EB
:103A600070B90A48007800F0010048B907480078AA
:103A700000F0400020B90548007800F0080008B1C7
:103A800000F00EF810BD0000780000207400002047
:103A9000A700002070000020680000208879002026
:103AA00010B50648006800F11C04A068002803DD7A
:103AB000D4E9010101F0D2FD10BD00007800002022
:103AC00010B50548007820F080000349087003A075
:103AD00000F014FC10BD0000A70000207463705FAC
:103AE0007365727665722074696D656F7574210DEA
:103AF0000A00000070B504460D46208D10B1AB28B9
:103B000027D112E00020A4F8AC001DE0B4F8AC000E
:103B100000EB8000114901EBC000407E00F00F0077
:103B200068B100BFAB20208500BF22460C4904F1DC
:103B30002800FFF7B9FA08B9002070BD00BFB4F83B
:103B4000AC00401CA4F8AC00B4F8AC002828DDDBC5
:103B500000BF00BF002020850220EEE73871002062
:103B60006919000810B50446FDF7A6FB2168401A44
:103B70006168884201DB012010BD0020FCE7D0E92C
:103B8000001211440160704770B504460D4665602F
:103B9000FDF792FB206070BD10B51848007800F06A
:103BA0000200D0B1164800688088A0F511401F3887
:103BB00018B1B0F5807F0ED106E012480188124896
:103BC0000068FFF715FA07E00E4801880E48006804
:103BD000FFF740FA00E000BF0EE00848007800F070
:103BE000080048B106480068C088A0F517401F3893
:103BF00000B900E000BF00BF10BD0000740000204D
:103C00007C0000207000002068000020C2780A4478
:103C1000194BDA70827802EB21229A7042785A703E
:103C200002781A701A469278B2EB212F0ADA1A46F5
:103C30005278521C5A701A4652781AB91A4612789B
:103C4000521C1A700C4AD278CBB29A4212DA0A4A43
:103C50009278521C084B9A701A46927852B91A46BA
:103C60005278521C5A701A4652781AB91A4612786B
:103C7000521C1A70704700008800002010B50446DE
:103C800021460D4800680830FFF7C0FF0B48007858
:103C90000949096808720948417807480068417273
:103CA000064881780448006881720448C178024857
:103CB0000068C17210BD000078000020880000205C
:103CC00010B5444800882A2803D2002041490880C2
:103CD00010BD00203F4908803F480068808AB0F549
:103CE000807F03D0B0F5007F70D159E03A4800687A
:103CF000C08C3A490988884251D137480068008D04
:103D00003649498888424AD13348016816310068EB
:103D10001C3000F079F94FF400702F49096888824F
:103D20002D4800682C490968D1F816200262498B99
:103D30008184294800682A490A68C0F816208988C1
:103D400041832548006826490A68C0F8062089880A
:103D5000418121480068204909680A6A0260898C0B
:103D600081801D480068808B1B490968C8841A48F7
:103D70000068C18B184800680185184800881649FA
:103D8000096888831548418813480068C1834FF447
:103D9000C1601149096888812A200E49088015E010
:103DA0000D480068C08C0D49098888420DD10A4829
:103DB0000068008D09494988884206D10648016893
:103DC000163100681C3000F01FF900BF00BF00BFB3
:103DD0007EE70000700000209800002054000020C2
:103DE0006000002010B56548C08B6549098888428D
:103DF0000CD16248008C62494988884206D15F48EC
:103E000060490A68026089888180A6E05B48C08BAF
:103E10005D49098808405D4909885B4A128811405C
:103E200088420BD15548008C57494988084057496A
:103E30004988554A52881140884208D000BF5448EA
:103E400000885449088052484088488008E000BFF4
:103E50004A48C08B4F4908804848008C488000BFC2
:103E600000204D49087016E04B48007800EB4000F8
:103E70004A4901EB8004474800882188884205D1DF
:103E8000444840886188884200D108E04248007870
:103E9000401C41490870404800780828E4DB00BF16
:103EA0003D480078082853D1FF2206213C4800688D
:103EB000FCF76CF93A4800680021016281843848B7
:103EC000006838490A68C0F806208988418134486A
:103ED000006834490A68C0F816208988418300BF09
:103EE0002C4800882E490968C8842A4841882C48F3
:103EF0000068018500BF00BF244800882849096880
:103F000088832248418826480068C18300BF4FF457
:103F1000807023490968888221490968C88108207E
:103F20001F490968088206201D4909688874042011
:103F30001B490968C8744FF4C16019490968888130
:103F40000E483630184908602A201849088010BDEC
:103F50000A486168016021898180084811490A681E
:103F6000C0F80620898841810820044988810F48CB
:103F700000880E300D49088000BFE8E7346100205A
:103F8000D2570008CC5700085C00002054000020E5
:103F9000580000209000002094000020607800204D
:103FA00098000020600000206800002070000020C1
:103FB00012490978491C114A11700021104A1170E8
:103FC00017E00F49097801EB41010E4A02EB81002D
:103FD00001884288114339B1817A084A1278511A0E
:103FE000782901DB0021016005490978491C044A50
:103FF0001170034909780829E3DB70479600002017
:10400000940000206078002010B502460023424C46
:1040100023701FE0404B1B7803EB43033F4C04EB42
:10402000830003888BB143887BB113880488A34243
:104030000BD153884488A34207D10B6843608B8817
:104040000381374B1B78837210BD334B1B785B1C8D
:10405000314C2370304B1B78082BDBDB00232E4CBC
:10406000237010E02C4B1B7803EB43032B4C04EB29
:104070008300038813B9438803B908E0264B1B78F3
:104080005B1C254C2370244B1B78082BEADB00BFFC
:10409000214B1B78082B34D10023224C2370224C57
:1040A00023701D4C23701DE01B4B1B7803EB430357
:1040B0001A4C04EB8300837A194C2478E31A194CC8
:1040C0002478A34209DD837A154C2478E31A154C31
:1040D0002370114B1B78144C23700F4B1B785B1C07
:1040E0000D4C23700C4B1B78082BDDDB0E4B1B7823
:1040F000094C237023461B7803EB4303074C04EB66
:104100008300136803600B6843608B880381044B52
:104110001B78837200BF97E794000020607800202E
:1041200096000020970000209500002030B504463E
:104130000D4600BF3D480088401C3C4908800846A9
:104140000088B0F5FA4F02DB4FF480500880002061
:104150003749087015E03648007800EB8000354993
:1041600001EBC002507E38B130480088FDF7FAFEFE
:104170009188884200D1DDE72D480078401C2C4909
:1041800008702B4800782828E5DB00220020284909
:10419000087018E02648007800EB8000254901EB04
:1041A000C003587E08B91A4611E0587E072805D189
:1041B0001AB1987E917E884200DD1A461C4800782C
:1041C000401C1B4908701A4800782828E2DB00BF11
:1041D0000AB9002030BD02205076174800781073CD
:1041E00015484178517381789173C178D17340F645
:1041F000CA7050829082012010820020D076012067
:10420000907603201076002090751020D075074816
:104210000088FDF7A7FE9080D58000BF2088108021
:104220006088508000BF1046D4E700008600002060
:104230008C000020387100208200002000202149DD
:1042400008700AE0002020491E4A127821F8120066
:104250001C480078401C1B4908701A480078282820
:10426000F0DB0020174908700DE00020154909789F
:1042700001EB8101154A02EBC10148761148007833
:10428000401C104908700F4800782828EDDB4FF4D7
:1042900080600F49088000200A4908700DE0002066
:1042A0000849097801EB81010A4A02EB4101888043
:1042B00004480078401C03490870024800780A2826
:1042C000EDDB70478C0000207877002038710020EB
:1042D00086000020C877002010B51422064900206F
:1042E000FCF7C6FF044614B94FF6FF7010BD204618
:1042F000FDF738FEFAE700004261002010B50446E1
:10430000214602A0FCF70EFD10BD000075495020AB
:104310006C6F673A25730D0A0000000010B5414824
:10432000007858B901203F49087032213E48FFF714
:104330002BFC4FF47A713D48FFF726FCFFF71AF982
:104340003B49088008460088002824DD4FF40060BF
:10435000FDF708FE3749898988420BD1012000F01A
:1043600073F83348008800285ADDFFF73BFDFFF75C
:104370000BF955E040F60600FDF7F4FD2D4989895B
:1043800088424DD1FFF79CFC29480088002847DD72
:10439000FFF7FAF844E02448FFF7E4FB00283FD099
:1043A0002148FFF7ECFB002415E000BF04EB84007C
:1043B000214901EBC00021490860022000F044F8C7
:1043C00000BF1B480088002803DDFFF70BFDFFF747
:1043D000DBF8601CC4B2282CE7DB002415E000BF2A
:1043E00004EB8400164901EB4000164908600520E3
:1043F00000F02AF800BF0E480088002803DDFFF710
:10440000F1FCFFF7C1F8601CC4B20A2CE7DB0748D7
:10441000FFF7A8FB20B10548FFF7B1FBFFF7C8FD88
:1044200010BD000020000020100000201800002017
:1044300070000020346100203871002078000020D6
:10444000C87700207C00002070B50546FE4804684F
:10445000042D00D1B2E2FD48FD490860FD49086025
:10446000032D0FD1607E00F00F00032808D1208AB1
:1044700030B90820F8490870FFF7E2F900F05FBF93
:1044800001F0E0B8022D6ED1F448C078401CC0B2F3
:10449000F249C87078B908468078401CC0B288706C
:1044A00048B908464078401CC0B2487018B9084660
:1044B0000078401C08700020E9490880E94908801C
:1044C000607E072802D0607E052808D1A07E401CAF
:1044D000A076A07E782861D1002060765EE0607EC4
:1044E00000285BD0208A00284DD0A17E481EA076EF
:1044F000002953D1E07E082808D0607E022802D02F
:10450000607E012810D1E07E05280DD10020607664
:104510008020D1490870FFF793F91421CB48363831
:1045200080F82F1000F0E5BFE07E042801DD0420B4
:1045300000E0E07E03218140A176E07E401CE07631
:10454000C948C08C401C81B2C748C184607E00F05D
:104550000F00092822D2DFE800F02105070D132102
:1045600014211500EBE31AE00021B848363880F832
:104570002F10E5E30420B8490870FFF761F9E0E384
:1045800000BF00BFDEE3607E00F00F00032805D10E
:104590000820B1490870FFF753F96FE770E7052D60
:1045A00018D1B2480068808898B10020A6490860F8
:1045B000A6480C38A6490860A64908600020A94909
:1045C0000880A74908800820A3490870FFF7E4FA8B
:1045D000F4E155E7A4484088401CA34948809B4823
:1045E0003638807B45280BD008460088401C088060
:1045F0000846C088401CC8809DA0FFF77FFE3FE7AB
:1046000092483638417C007C01EB002094490988AF
:10461000884208DC8D483638417C007C01EB002064
:104620008F49088003E09CA0FFF768FE28E78748D1
:104630003638007D00F03F0018B984483638407D98
:1046400060B189480088401C8749088008468089F5
:10465000401C88819CA0FFF751FE11E7A04800880C
:10466000A0490988884205D19D4840889D494988CC
:10467000884213D075483638C08B994909888842DA
:1046800006D172483638008C95494988884205D051
:1046900075480088401C74490880F1E6FFF71CFE4D
:1046A0004FF6FF7188420CD06F480088401C6E495D
:1046B00008800846C089401CC8818BA0FFF71EFEF9
:1046C000DEE662483638C07D062800D1CEE15F487C
:1046D0003638C07D112800D162E05C483638C07D94
:1046E00001280CD060480088401C5F4908800846BB
:1046F000008A401C088281A0FFF700FEC0E65A48ED
:10470000808A401C81B2584881825048363890F8DF
:10471000220008280ED05448408A401C5249488242
:104720000846008B401C81B24F4801837AA0FFF7F6
:10473000E5FDA5E600214548363880F82210808C3A
:104740004FF6F771884208DB40483638808C0930D4
:1047500081B23E483638818407E03C483638808C48
:10476000083081B239483638818400BF374836383E
:10477000418BC183818B018400BF00BF58480188F1
:10478000324836384183564841883048363881832C
:1047900000BF3548C08A401C81B23348C182FDE366
:1047A0002F4800881C382E49088028480C38284992
:1047B00008602A38008DA0B100F0DAFF4FF6FF71D3
:1047C00088420ED02848808D401C2749888508469D
:1047D000408E401C81B22448418655A0FFF78EFDD3
:1047E0004EE6584821490860CCE02048006880889F
:1047F00040B316483638808C1C490968898888423D
:1048000020D11A480068C08838B110483638408C2A
:1048100016490968C988884214D11448006800887C
:1048200030490988884206D11048006840882D49DF
:104830004988884207D00D480068008842490988A5
:10484000884283E099E097E0780000206A610020C8
:10485000680000206C00002074000020820000200E
:1048600070000020720000202C7800207C000020C6
:1048700069703A20696E76616C696420766572733E
:10488000696F6E206F7220686561646572206C6567
:104890006E6774682E00000069703A207061636B67
:1048A00065742073686F72746572207468616E201D
:1048B0007265706F7274656420696E20495020685B
:1048C00065616465722E000069703A2066726167E6
:1048D0006D656E742064726F707065642E000000E8
:1048E00054000020C857000869703A2062616420B3
:1048F000636865636B73756D2E00000069703A2004
:104900006E65697468657220746370206E6F7220C2
:1049100069636D702E00000069636D703A206E6FE0
:10492000742069636D70206563686F2E000000005D
:104930007564703A2062616420636865636B7375A7
:104940006D2E0000C8770020C457000806D1FE482D
:1049500000684088FD49498888420DD0FC48408B5A
:10496000F94909680988884207D1F948808BF649D6
:1049700009684988884200D10EE0F34800680A308F
:10498000F1490860F0480168F2488142FFF42DAF18
:10499000F1A0FFF7B3FC73E50020F849086002209E
:1049A000F7490870EA482A30F6490860F649086075
:1049B0000020F6490880FFF7EFF800BFF3480088B1
:1049C00000B95DE5F14800881C30F14908800846CF
:1049D00000880112DE480174ED480178DC4841741A
:1049E000D9480068017ADA4881751121C175E74814
:1049F00000880830C0F30721E4480078083041EA15
:104A0000002081B2D248C18400210185CE480068CF
:104A10008188CF484184CC480068C188CC488184D3
:104A200000BFDC480188CA484183DA484188C84849
:104A3000818300BF00BFC44800680188C448C183A7
:104A4000C14800684188C248018400BF3630CD4962
:104A5000086000F08DFEC04381B2BD480185008D25
:104A600018B94FF6FF71BA480185F2E3CA48808B46
:104A7000401C81B2C848818300F008FE4FF6FF71E8
:104A800088420ED0C448408B401CC3494883084626
:104A9000008C401C81B2C0480184C0A0FFF72EFCEE
:104AA000EEE4C34C17E0607EA0B1A948808CA188D9
:104AB00088420FD1A648408CE18888420AD1A44898
:104AC000408B2188884205D1A148808B618888422B
:104AD00000D111E22834B7488442E4D99C4890F8C8
:104AE0002F0000F03F00022800D021E09848808C81
:104AF000B14908800020B14908700EE0B048AF49C4
:104B0000097830F81100AC490988884200D19AE050
:104B1000AA480078401CA9490870A84800782828AD
:104B2000ECDB9D48408D401C81B29B48418500BF15
:104B3000874890F82F0000F0040000B1A0E49648E8
:104B4000808C401C81B2944881841421804880F874
:104B50002F1028208E49088050217D4880F82E1083
:104B600090F8290095490870794890F82D1080F840
:104B7000291092480178764880F82D1090F8280086
:104B80008E490870724890F82C1080F828108B48D5
:104B900001786F4880F82C1090F82700874908703A
:104BA0006B4890F82B1080F82710844801786848EB
:104BB00080F82B1090F8260080490870644890F81F
:104BC0002A1080F826107D480178614880F82A1064
:104BD00090F82D00401CC1B25D4880F82D10B1B98D
:104BE00090F82C00401CC1B2594880F82C1071B9C3
:104BF00090F82B00401CC1B2554880F82B1031B9F9
:104C000090F82A00401CC1B2514880F82A10504840
:104C1000408C694908804E48818C418466480188EF
:104C20004B48818400BF418BC183818B018400BFCD
:104C300000BF584801884648418356484188444847
:104C4000818300BFFDE3002400205C49087030E050
:104C50005A48007800EB8000554901EBC000407EC7
:104C600030B95648007800EB800001EBC00424E026
:104C70005248007800EB80004D4901EBC000407EB7
:104C8000072811D14CB14D48007800EB800001EBB2
:104C9000C000807EA17E884206DD4848007800EB97
:104CA0008000434901EBC00444480078401C43495C
:104CB0000870424800782828CADB00BF4CB9364843
:104CC000008D401C81B2344801853EA0FFF716FBE1
:104CD00064E42A4804600320A07620760020A075B2
:104CE0000420E0750020E0761948808CA0801848E8
:104CF000408CE08000BF1648408B20801448808B99
:104D0000608000BF01206076374800782073364805
:104D1000417861738178A173C178E17301202082A9
:104D20000B4890F82910E17290F82810A17290F8C1
:104D30002710617290F826002072012056E0BAE038
:104D4000BEE03EE3A4E200007C000020C45700085F
:104D5000346100202C7800207564703A206E6F203A
:104D60006D61746368696E6720636F6E6E656374EE
:104D7000696F6E20666F756E640000007800002019
:104D800074000020680000206C00002072000020E9
:104D900070000020540000202C7800207463703ACA
:104DA0002062616420636865636B73756D2E00001B
:104DB00038710020507700208E0000208C000020E9
:104DC000787700207463703A20666F756E64206E89
:104DD0006F20756E7573656420636F6E6E656374A6
:104DE000696F6E732E00000082000020FEF746FF00
:104DF000F74890F82E0000F0F00050285ADD00200F
:104E0000F44908704AE0F34800783630F049085C0D
:104E1000F14908700846007800B94AE0EE48007889
:104E2000012805D1EB480078401CEA49087035E0BC
:104E3000E9480078022820D1E64800783730E44974
:104E4000085C042819D1E34800783930095CE1484E
:104E500000783830DE4A105C41EA0020DF490880E3
:104E60000846008840F6CA71884201DD084601E024
:104E7000DA4800886082A0821BE0D648007837308C
:104E8000D349085C00B914E0D24800783730D049E3
:104E9000085CD04909780844CE490870CC4890F89D
:104EA0002E000521C1EB2010CA490978B1EB800F13
:104EB000A9DB00BF00BF1021C54880F82F1000BF3C
:104EC000C34890F82F0040F00201C14880F82F102D
:104ED000022180F83610042180F837100F2180F865
:104EE0003810CA2180F839102C20BD490880602173
:104EF000B74880F82E1005E3BA4804600020BA498C
:104F00000870B34890F82F0000F0040050B1002062
:104F10006076B6A0FFF7F2F92020B3490870FEF7DB
:104F20008FFC8FE3AA4890F82E0000118000A94959
:104F30000870AB4800880978401A1438A8490880DE
:104F4000607E00F00F00022806D1A14890F82F00E3
:104F500000F03F00122824D0A1480088002805DC7A
:104F60009B4890F82F0000F00300D0B1984890F8CB
:104F70002600217A884213D1954890F82710607A4C
:104F800081420DD1924890F82810A07A814207D131
:104F90008F4890F82910E07A814200E032E300D097
:104FA000A2E28B4890F82F0000F01000F0B3208AA6
:104FB000E0B3218A04F10C00FEF728FE844890F843
:104FC0002A0094490978884245D1814890F82B00FD
:104FD0009049497888423ED17D4890F82C008D490F
:104FE0008978884237D17A4890F82D008949C97864
:104FF000884230D1874800782073864841786173B1
:105000008178A173C178E173E07EE8B9217EA27E48
:10501000891A48B2A17DA0EBE10148B2A17D01440B
:10502000A175002801DA414248B200E013E0E17DB9
:10503000A0EBA10148B2E17D0144E175E17DA27DD3
:1050400001EBE201217600BF012067490870207E54
:10505000A07600202082607E00F00F0009286AD22E
:10506000DFE800F0690525E6F6F5F4F3B5005E48E3
:10507000007800F00100C8B10320607640205A4952
:1050800008700020208256480088002808DD084665
:10509000007840F00200087051480088FEF7EEFDED
:1050A00000205D490880FEF7CBFB48E1CAE24E488C
:1050B000007800F00100E8B3454890F82F0000F0B8
:1050C0003F00122836D1424890F82E0000F0F00040
:1050D00050285DDD00203F4908704DE03D480078D4
:1050E00036303B49085C3C4908700846007800B9F6
:1050F0004DE039480078012805D136480078401C39
:105100003449087038E034480078022823D1314807
:10511000007837302E49085C04281CD12D480078CF
:105120003930095C2B4800783830294A105C41EA54
:10513000002001E072E0D5E1284908800846008897
:1051400040F6CA71884201DD084601E02348008824
:105150006082A0821BE01F48007837301C49085C41
:1051600000B914E01B48007837301949085C194928
:105170000978084417490870154890F82E00052151
:10518000C1EB201013490978B1EB800FA6DB00BFFB
:10519000032060760E4890F8260020720C4890F8A4
:1051A0002710617290F82810A17290F82910E1720E
:1051B0000120FEF763FD42200B4908700020208289
:1051C0000749088014490880FEF73AFBB7E01AE166
:1051D000346100208C0000208D0000208E00002013
:1051E0007000002078000020740000207463703A82
:1051F00020676F742072657365742C2061626F7212
:1052000074696E6720636F6E6E656374696F6E2E6E
:105210000000000088000020720000202020FE49CD
:105220000870FEF70DFB0020FC49096848767FE412
:10523000FB4890F82F0000F0010070B3607E00F092
:10524000100050BB208A28B1FCE140E140E11DE1A3
:10525000E6E0B2E1F3490988491C88B2FEF70EFD89
:10526000ED48007840F01000EB490870ED480088E8
:10527000002804DD0846007840F002000870FEF7C0
:10528000DFFA01202082082060760020E07600BF4F
:105290001121E34880F82F102BE1FFE7E04890F858
:1052A0002F0000F02000B8B1DD4890F8351090F8DC
:1052B000340041EA0020DC4909680844DA49086002
:1052C000D74890F8351090F8340041EA0020D549CD
:1052D0000988081AD3490880D248008800280DDDC3
:1052E000607E00F0100048B9CB48007840F0020022
:1052F000C9490870CB480088FEF7C0FCC84890F840
:10530000311090F8300001EB0020C8490880A08AD5
:105310000988884202DBC548008810B9A08AC349C1
:105320000880C24800886082BB48007800F0030013
:10533000F0B30020BE490880FEF782FA00BFB648ED
:10534000007800F0200040B10020B9490880607664
:105350001421B34880F82F10CBE0AF48007800F05C
:10536000100068B10020B24908800120208204208A
:1053700060760020E0761121A94880F82F10B8E06F
:10538000AB480088002819DDA348007800F0010030
:1053900008B100202082208A68B9608AA44909885F
:1053A000884202DA608AA2490880A148008800E0A9
:1053B00028E0208202E0208A9D4908800020E076D3
:1053C00000BF9C48006898490860994800880028F8
:1053D0000BDD208A002808DD208A283091490880CA
:1053E00018218F4880F82F1087E08B48007800F054
:1053F000020038B128208B4908801021884880F8A5
:105400002F107AE01EE18448007800F0010030B1EE
:1054100000206076102080490870FEF711FA61E0E4
:1054200080480088002803DD7E480088FEF726FCBF
:105430007B4890F82F0000F00100B8B17648007862
:1054400000E0A1E000F0010028B107206076002014
:10545000A076208201E0062060760120FEF70EFC97
:1054600010206D490870FEF7EBF93DE06A480078BE
:1054700000F0010020B10520607600202082E1E0EC
:1054800068480088002800DD2EE0DBE065480088E1
:10549000002803DD63480088FEF7F0FB604890F8C1
:1054A0002F0000F0010060B1072060760020A07698
:1054B0000120FEF7E3FB102057490870FEF7C0F902
:1054C00012E058480088002800DD0DE0BAE00BE04B
:1054D0005148007800F0010018B1072060760020E4
:1054E000A07600BF00BFADE010214D4880F82F101E
:1054F00000BF28204B49088000BF5021484880F851
:105500002E1000BF217A464880F82A10617A80F870
:105510002B10A17A80F82C10E17A80F82D10217BD5
:1055200080F82610617B80F82710A17B80F8281076
:10553000E17B80F829100621C175A1884184E188AA
:10554000818400BF3C480188354841833A484188FE
:105550003348818300BF00BF2188C18361880184F3
:1055600000BF607E00F0100030B100212C4880F8B0
:10557000311080F8301006E00F21294880F83010F3
:10558000CA2180F8311000BF402125488175254887
:105590000088011222480174224801782048417491
:1055A000002180F8351080F83410418600F06EF844
:1055B000C04381B21A48418600BF4520184988730C
:1055C00000211748C173417501751C480088401CB3
:1055D0001A4908800846008801121148817417484A
:1055E00001780F48C17400210183FEF775FEC043A6
:1055F00081B20B4801831248C08B401C81B2104815
:10560000C18300BF0E488088401C0D49888000205F
:105610000149087070BD000074000020780000206F
:105620003461002070000020680000208E000020FF
:10563000720000206C000020540000208000002038
:105640002C7800200020034908800349087000BF1F
:1056500070BD0000700000207400002070B504468A
:105660000D46002D0CDD07490D8007480068844277
:1056700006D008460288214603480068FAF774FD00
:1056800070BD0000720000206C00002010B50620E4
:1056900000F074F810BD000030B503460C4600BFA2
:1056A00030480088401C2F49088008460088B0F523
:1056B000FA4F02DB4FF48050088000202A4908701E
:1056C00013E028480088FCF74DFC2749097801EBD6
:1056D0008101264D05EB41018988884200D1DFE731
:1056E00021480078401C204908701F4800780A288B
:1056F000E7DB002200201C49087014E01A480078FB
:1057000000EB8000194901EB4000808830B9164851
:10571000007800EB800001EB400208E012480078BE
:10572000401C11490870104800780A28E6DB00BFC9
:105730000AB9002030BD0B480078000209490988E9
:1057400040EA21209080D48013B90020106005E049
:1057500000BF188810805888508000BF4020107209
:105760001046E7E7860000208C000020C877002064
:1057700010B5112000F002F810BD000070B504460D
:105780000F48417C007C01EB0020143885B22819B9
:1057900086B208220A491A313046FBF769FD0646EF
:1057A0002A46074922313046FBF762FD064616B904
:1057B0004FF6FF7070BD3046FCF7D4FBFAE70000EF
:1057C00034610020FFFFFFFF00000000FFFFFFFF2C
:1057D000FFFFFFFFFFFF0000DC6E00085518000808
:1057E000CC6E0008F53A0008E86E00084129000870
:1057F000434C4F5345440053594E2D524356440099
:1058000053594E2D53454E540045535441424C4933
:10581000534845440046494E2D574149542D3100C7
:1058200046494E2D574149542D3200434C4F534960
:105830004E470054494D452D57414954004C415362
:10584000542D41434B0000002F70726F63657373DA
:1058500065732E7368746D6C0025213A202F68657E
:10586000616465722E68746D6C0A3C68313E5379D0
:105870007374656D2070726F6365737365733C2F0D
:1058800068313E3C62723E3C7461626C65207769AF
:105890006474683D2231303025223E0A3C74723EE9
:1058A0003C74683E49443C2F74683E3C74683E4EEC
:1058B000616D653C2F74683E3C74683E5072696F40
:1058C000726974793C2F74683E3C74683E506F6C0A
:1058D0006C2068616E646C65723C2F74683E3C7429
:1058E000683E4576656E742068616E646C65723CD6
:1058F0002F74683E3C74683E50726F6373746174B9
:10590000653C2F74683E3C2F74723E0A252120703E
:10591000726F6365737365730A25213A202F666F72
:105920006F7465722E68746D6C002F3430342E687D
:10593000746D6C003C68746D6C3E0A20203C626F94
:105940006479206267636F6C6F723D227768697457
:1059500065223E0A202020203C63656E7465723EFD
:105960000A2020202020203C68313E343034202D75
:105970002066696C65206E6F7420666F756E643C7E
:105980002F68313E0A2020202020203C68333E47EB
:105990006F203C6120687265663D222F223E68655B
:1059A00072653C2F613E20696E73746561642E3CA4
:1059B0002F68333E0A202020203C2F63656E7465DB
:1059C000723E0A20203C2F626F64793E0A3C2F68A9
:1059D000746D6C3E002F66696C65732E7368746D10
:1059E0006C0025213A202F6865616465722E687409
:1059F0006D6C0A3C68313E46696C65207374617455
:105A00006973746963733C2F68313E0A3C63656E49
:105A10007465723E0A3C7461626C652077696474D7
:105A2000683D22333030223E0A3C74723E3C74643E
:105A30003E3C6120687265663D222F696E64657820
:105A40002E68746D6C223E2F696E6465782E6874C2
:105A50006D6C3C2F613E3C2F74643E0A3C74643E86
:105A600025212066696C652D7374617473202F691C
:105A70006E6465782E68746D6C0A3C2F74643E3CCD
:105A800074643E3C696D67207372633D222F6661CA
:105A900064652E706E6722206865696768743D31A1
:105AA000302077696474683D25212066696C652D16
:105AB0007374617473202F696E6465782E68746DD9
:105AC0006C0A3E203C2F74643E3C2F74723E0A3CAC
:105AD00074723E3C74643E3C6120687265663D228F
