:020000040800F2
:10000000E07D0020450100085F0600085706000853
:100010005B060008810300088D0C0008000000004A
:100020000000000000000000000000000D0A0008B1
:100030008503000800000000C1070008F90A000855
:100040005F0100085F0100085F0100085F01000810
:100050005F0100085F0100085F01000887030008D6
:100060005F0100085F0100085F0100085F010008F0
:100070005F0100085F0100085F0100085F010008E0
:100080005F0100085F0100085F0100085F010008D0
:100090005F0100085F0100085F0100085F010008C0
:1000A0005F0100085F0100085F0100085F010008B0
:1000B0005F0100085F0100085F0100085F010008A0
:1000C0005F0100085F0100085F0100085F01000890
:1000D0005F0100085F0100085F0100085F01000880
:1000E0005F0100085F0100085F0100085F01000870
:1000F0005F0100085F0100085F0100085F01000860
:100100005F0100085F0100085F0100085F0100084F
:100110005F0100085F0100085F0100085F0100083F
:100120005F0100085F0100085F0100085F0100082F
:10013000DFF80CD000F0C4F8004800472D2100087B
:10014000E07D00200648804706480047FEE7FEE7BE
:10015000FEE7FEE7FEE7FEE7FEE7FEE7FEE7FEE777
:10016000190B00083101000840EA01039B0703D086
:1001700009E008C9121F08C0042AFAD203E011F8E6
:10018000013B00F8013B521EF9D27047D2B201E0A8
:1001900000F8012B491EFBD270470022F6E710B58C
:1001A00013460A4604461946FFF7F0FF204610BDE5
:1001B00030B505462A460B4612F8010B13F8014BE1
:1001C00008B1A042F8D01CB1002802D06D1CF1E7A4
:1001D000284630BD10B5044604E00B7800F8013B1A
:1001E00003B1491C521EF8D2204610BDCAB2401EAF
:1001F00010F8011F8A4202D00029F9D1002070476F
:10020000421C10F8011B0029FBD1801A70470346DD
:1002100011F8012B00F8012B002AF9D1184670477C
:1002200030B505460020034600E05B1C934205D232
:10023000EC5CC85C201A01D1002CF6D130BD02461E
:10024000C9B200E0401C0378002BFBD102E0037828
:100250008B4203D0401E9042F9D2002070472DE916
:10026000F05F0546002092469B468846064681463A
:1002700040241BE0284641464746224600F041F80C
:1002800053465A46C01A914110D311461846224689
:1002900000F028F82D1A67EB01084F46224601208E
:1002A000002100F01FF817EB00094E41201EA4F1B9
:1002B0000104DFDC484631462A464346BDE8F09F4C
:1002C000064C074D06E0E06840F0010394E80700A3
:1002D00098471034AC42F6D3FFF72EFF146B00089A
:1002E000346B0008202A04DB203A00FA02F10020D7
:1002F00070479140C2F1200320FA03F31943904064
:100300007047202A04DB203A21FA02F000217047CE
:1003100021FA02F3D040C2F120029140084319466D
:10032000704770B58D1810F8014B14F0030201D11D
:1003300010F8012B231106D110F8013B03E010F84F
:10034000016B01F8016B521EF9D1ABB110F8012B12
:1003500004F00C048A1A0C2C03D0A2EB84129B1C10
:1003600008E010F8014BA2EB0422F8E712F8014B69
:1003700001F8014B5B1EF9D5A942D4D3002070BD12
:1003800000BFFEE7704710B50024022000F00EF811
:1003900020B1022000F004F802F0B2FE10BD00000F
:1003A0000149086070470000140401400146002024
:1003B0000022074B1B6803EA0102054B14331B683C
:1003C0000B4013B10AB1012000E00020704700008B
:1003D00000040140002123498279002A3AD00A46CC
:1003E000126803689A430B461A600A1D1268036874
:1003F0009A430B1D1A60027911440A6803681A4374
:100400000A60184A0832126803689A43154B083389
:100410001A601A1D126803689A43124B0C331A6053
:100420004279102A0ED11A1F126803681A430D4B25
:1004300008331A601A1D126803681A43094B0C33FB
:100440001A600DE00749427911440A6803681A43AB
:100450000A6005E0027911440A6803689A430A6059
:10046000704700000004014008B5012144F27C00FF
:1004700000F0A8F92020ADF8000010208DF803004E
:1004800003208DF802006946184800F057F848200C
:10049000ADF800006946164800F050F81020ADF89D
:1004A00000006946134800F049F84FF48450ADF855
:1004B000000069460D4800F041F880210B4800F02B
:1004C000C8F84FF48051094800F0C3F810210948DA
:1004D00000F0BFF80220ADF8000048208DF80300BE
:1004E0006946054800F02AF808BD0000000C0140EC
:1004F00000140140001001400008014030B5002206
:100500008B071C0F0F2303FA04F20B4B8C1053F8CC
:1005100024309343084C8D1044F8253023468C102A
:1005200053F824308C07240F00FA04F42343024CC0
:100530008D1044F8253030BD080001402DE9F04110
:10054000024600250026002000230024002791F801
:1005500003C00CF00F0591F803C00CF0100CBCF1B7
:10056000000F03D091F802C04CEA050591F800C0D5
:10057000BCF1000F31D0146800202BE04FF0010CCB
:100580000CFA00F3B1F800C00CEA03069E4220D139
:1005900083004FF00F0C0CFA03F7BC4305FA03FC81
:1005A0004CEA040491F803C0BCF1280F06D14FF0C7
:1005B000010C0CFA00FCC2F814C00AE091F803C068
:1005C000BCF1480F05D14FF0010C0CFA00FCC2F849
:1005D00010C0401C0828D1D31460B1F800C0BCF191
:1005E000FF0F34DD546800202EE000F1080C4FF0BE
:1005F000010808FA0CF3B1F800C00CEA03069E42A9
:1006000021D183004FF00F0C0CFA03F7BC4305FA1D
:1006100003FC4CEA040491F803C0BCF1280F05D197
:1006200000F1080C08FA0CF8C2F8148091F803C025
:10063000BCF1480F07D100F1080C4FF0010808FA8F
:100640000CF8C2F81080401C0828CED35460BDE8D6
:10065000F0810161704700BFFEE700BFFEE7704711
:100660000EB54FF4C06000F057F807208DF8080071
:1006700000208DF809008DF80A0001208DF80B008C
:1006800002A800F011F801210020FFF737FF022037
:10069000009000208DF804000C208DF805006846BD
:1006A000FFF798FE0EBD000070B5002100230F2259
:1006B000C47804B3154C246804F4E064C4F5E06421
:1006C000210AC1F10403CA40447804FA03F1847892
:1006D0001440214309010E4C0678A155047804F01A
:1006E0001F050124AC4005786D11AD0005F1E02532
:1006F000C5F8004109E0047804F01F050124AC406E
:10070000044D0678761145F8264070BD0CED00E0EA
:1007100000E400E080E100E002490143024A116088
:10072000704700000000FA050CED00E02DE9F041F3
:1007300080460026002500270024154940F2DC50A1
:1007400000F004FF054615B90020BDE8F081A9B20C
:100750000022032002F0C2F906462EB929460DA058
:1007600000F0D2FA0020F0E734460BE06289084B33
:10077000D9196068FFF7F8FC608907442468AF4224
:1007800000D301E0002CF1D100BF3046DDE70000CE
:100790007C0D00205061636B6574526563656976FA
:1007A000653A20706275665F616C6C6F632066618C
:1007B000696C202C6C656E3D25750A0900000000EF
:1007C0007047000029B1064A92690243044B9A61BE
:1007D00004E0034A92698243014B9A61704700002A
:1007E0000010024010B500F097F901210846FFF70C
:1007F000E9FF10BD30B500210022002400232D4D5B
:100800006D6805F00C0121B1042905D0082923D118
:1008100005E0294D056022E0274D05601FE0254DCC
:100820006D6805F47012234D6D6805F4803402255F
:1008300005EB92421CB9214D554305600BE01D4D5F
:100840006D6805F400351DB11C4D5543056002E08F
:10085000194D5543056002E0174D056000BF00BF0C
:10086000144D6D6805F0F0010909154D6B5C0568C4
:10087000DD4045600F4D6D6805F4E061090A104DDB
:100880006B5C4568DD4085600A4D6D6805F460511C
:10089000C90A0B4D6B5C4568DD40C560054D6D6850
:1008A00005F44041890B074D6B5CC568B5FBF3F55A
:1008B000056130BD0010024000127A0000093D00C1
:1008C000240000203400002000B587B00121080377
:1008D000FFF778FFE020ADF8040001208DF8060056
:1008E00018208DF8070001A91C48FFF727FE1020EB
:1008F000ADF8040001208DF8060010208DF80700E7
:1009000001A91648FFF71AFE10211448FFF7A1FEAF
:100910000020ADF808004FF48270ADF80A00002006
:10092000ADF80C00ADF80E00ADF810004FF40070FB
:10093000ADF812001020ADF814000020ADF816003C
:100940000720ADF8180002A9054800F041F8012180
:10095000034800F023F807B000BD00000008014084
:100960000030014010B5044600BF02210A4800F0E3
:1009700021F80028F9D02146074800F027F800BFE9
:100980000121054800F016F80028F9D0024800F0CF
:100990001AF8C0B210BD00000030014021B1028839
:1009A00042F04002028004E002884FF6BF731A4012
:1009B000028070470246002013890B400BB10120D2
:1009C00000E00020704701468889704781817047A8
:1009D00010B50022028802F441520B884C88234350
:1009E0008C882343CC8823430C8923434C8923439D
:1009F0008C892343CC8923431A430280838B4FF293
:100A0000FF74234083830B8A038210BD704710B5A7
:100A100000F002F810BD00000CB50020019000901D
:100A20003348006840F480303149086000BF3048E6
:100A3000006800F4003000900198401C019000987C
:100A400018B90198B0F5A06FF1D12948006800F4F9
:100A5000003010B10120009001E0002000900098CB
:100A6000012843D12348006840F010002149086064
:100A70000846006820F0030008600846006840F05F
:100A8000020008601A4840681949486008464068F2
:100A900048600846406840F4806048600846406806
:100AA00020F47C1048600846406840F4E810486034
:100AB0000846006840F08070086000BF0C4800687D
:100AC00000F000700028F9D00948406820F00300C9
:100AD000074948600846406840F00200486000BF8F
:100AE0000348406800F00C000828F9D10CBD000054
:100AF00000100240002002400548006814300449FC
:100B0000086004480068801C0249086070470000C3
:100B1000000000202000002010B51348006840F0BD
:100B200001001149086008464068104908400E4914
:100B30004860084600680E4908400B4908600846AE
:100B4000006820F4802008600846406820F4FE0019
:100B500048604FF41F008860FFF759FF4FF00060B6
:100B60000449086010BD0000001002400000FFF8BA
:100B7000FFFFF6FE08ED00E021B1828942F4005249
:100B8000828104E082894DF6FF731A4082817047AA
:100B900002460020B1F5007F00D100BF13880B4052
:100BA0000BB1012000E00020704700002DE9F04764
:100BB00086B005460E460024A24600BFA146002787
:100BC000B08900B100BF2F462C8A4CF6FF7004405C
:100BD000F08804432C82AC894EF6F3100440B088B0
:100BE00031890843718908430443AC81AC8A4FF6CC
:100BF000FF400440B0890443AC8201A8FFF7FAFD2E
:100C00001F48874202D1DDF810A001E0DDF80CA0FA
:100C1000A88900F4004040B10AEBCA0000EB0A10BA
:100C200031684900B0FBF1F807E00AEBCA0000EBBD
:100C30000A1031688900B0FBF1F86420B8FBF0F0CD
:100C400004012009642101FB1089A88900F40040F7
:100C500040B1322000EBC900B0FBF1F000F007001A
:100C6000044308E0322000EB09106421B0FBF1F0EE
:100C700000F00F0004432C8106B0BDE8F0870000AF
:100C800000380140C1F308028280704700BFFEE7D0
:100C900000B585B001218803FFF794FD4FF4007083
:100CA000ADF8100003208DF8120018208DF8130005
:100CB00004A91348FFF742FC4FF48060ADF8100020
:100CC00004208DF8130004A90D48FFF737FC4FF4FA
:100CD000E13000900020ADF80400ADF80600ADF85A
:100CE0000800ADF80C000C20ADF80A006946054874
:100CF000FFF75CFF01210348FFF73EFF05B000BD91
:100D000000080140003801400FB4054B10B503A99D
:100D1000044A029800F040F810BC5DF814FB000093
:100D2000B1180008640700200FB41CB50A46521E13
:100D3000CDE9000207A9054B6A46069800F02CF899
:100D4000009A002111701CBC5DF814FBFB11000817
:100D50000FB4084B10B504A902AA039800F01CF8C0
:100D6000044602A9002000F053FA204610BC5DF8AA
:100D700014FB00001112000802E008C8121F08C18D
:100D8000002AFAD170477047002001E001C1121F0C
:100D9000002AFBD1704700002DE9FF4F8DB00F46B0
:100DA0000546002606E025280BD0DDE90F12904706
:100DB0006D1C761C28780028F5D111B03046BDE8AE
:100DC000F08F0024A246A1460122EC4900E0044332
:100DD00015F8013F203B02FA03F00842F7D12878CA
:100DE0002A2810D06FF02F022878A0F130010929AD
:100DF00014D80AEB8A0102EB410144F0020400EB33
:100E0000010A6D1CF0E701CF5FEA000A03D544F444
:100E10000054CAF1000A44F002046D1C28782E2800
:100E200017D115F8010F44F004042A280ED06FF0F2
:100E30002F022878A0F1300109290AD809EB89018D
:100E400002EB410100EB01096D1CF2E757F8049B2E
:100E50006D1C28786C280FD006DC4C2817D0682829
:100E60000DD06A2814D104E0742810D07A280FD14C
:100E70000DE044F400140AE044F4801401E044F46A
:100E800040146978814202D104F580146D1C6D1CF8
:100E90002A786E2A1FD00CDC632A31D004DC002AA9
:100EA0008BD0582A11D1A3E0642A68D0692A0CD1CA
:100EB00065E0732A2ED004DC6F2A73D0702A04D127
:100EC0009BE0752A6FD0782A6ED01046DDE90F12AC
:100ED0009047761C50E1C4F30250022806D0032844
:100EE00009D0042801CF09D0066045E101CFF117F0
:100EF000C0E9006140E101CF06803DE106703BE1C1
:100F000017F8040B8DF8000000208DF80100EB4667
:100F1000012003E057F804BB4FF0FF3061074FF0AA
:100F2000000102D40DE008F10101884649450FDABD
:100F30008045F8DB1BF808100029F4D108E008F11F
:100F4000010188468142FADB1BF808100029F6D11E
:100F5000DDE90F23AAEB08008146214600F036F9AF
:100F6000304400EB080604E0DDE90F121BF8010B2A
:100F70009047B8F10108F7D221464846F7E00A2128
:100F8000C4F302534FF0000B0891022B04D001CFA1
:100F9000C117032B09D00AE0FF1D27F00707F7E868
:100FA000020108E032E01FE020E000B2C117042B8C
:100FB00001D140B2C117031E71F1000307DA4FF0EF
:100FC000000CD0EB0C006CEB01012D2302E023059B
:100FD00004D52B238DF82430012303E0E30701D04F
:100FE0002023F7E7984658E00A2110E010210EE090
:100FF00010204FF0000B08900CE010214FF0000B78
:1010000044F004044FF00809089103E008214FF070
:10101000000B0891C4F30253022B04D001CF00212E
:10102000032B06D006E0FF1D27F00707F7E80201B3
:1010300003E080B2042B00D1C0B24FF000082307B8
:101040002BD5702A07D0DDF820C08CF0100C5CEA9C
:101050000B0C05D00EE040238DF82430012308E06E
:1010600050EA010306D030238DF824308DF8252076
:1010700002239846DDF820C08CF0080C5CEA0B0CCB
:101080000BD150EA010301D1630706D530238DF857
:1010900024304FF00108A9F10109582A04D038A2E0
:1010A0000B9208AA0A920BE03AA2F9E75B46089A6B
:1010B000FFF7D5F80B9B9B5C0A9A521E0A9213709D
:1010C00050EA0102F2D10A98ADEB000000F1200BCA
:1010D000600702D524F4803401E04FF00109D945BE
:1010E00002DDA9EB0B0000E0002000EB0B01414406
:1010F0000890AAEB010AE00306D4DDE90F2321469C
:10110000504600F063F806444FF0000908E009A9D2
:1011100011F80900DDE90F12904709F10109761C69
:10112000C145F4DBE0030CD5DDE90F232146504631
:1011300000F04CF8064404E0DDE90F12302090473F
:10114000761C0899481E08900029F5DC08E00A98EA
:101150000A990078491C0A91DDE90F129047761C24
:10116000BBF10001ABF1010BF1DC21465046DDE99A
:101170000F2300F019F806446D1C1BE60928010036
:1011800030313233343536373839616263646566FD
:1011900000000000303132333435363738394142BF
:1011A00043444546000000002DE9F0410446002577
:1011B0001E461746880404D405E039462020B0476F
:1011C0006D1C641EF9D52846BDE8F0812DE9F0417B
:1011D000044600251E469046C80301D5302700E08E
:1011E0002027880404D505E041463846B0476D1CE9
:1011F000641EF9D52846BDE8F0814A68002A06D069
:101200000A68531C0B6010704868401E48607047A5
:101210000A68531C0B601070704730B5044613E029
:1012200010680578206805701068401C1060206800
:10123000401C20601888401E1880A088401EA08096
:101240008D4201D1022030BDA088002802DD18881F
:101250000028E5DC188808B90020F4E70BE01068E6
:1012600005781888401E18801068401C10608D4258
:1012700001D10320E7E718880028F0DC0120E2E72D
:10128000016082807047F0B50B46144619461E195E
:10129000751E0BE04E780F7806EB0726B2B2861863
:1012A000B0B2904201DA461CB0B2891CA942F1D317
:1012B000A9420AD10E78002707EB0626B2B286189B
:1012C000B0B2904201DA461CB0B2F0BD01480068ED
:1012D0007047000020000020014691F820000628F9
:1012E00021D11248007800F00100E0B1088A104ACC
:1012F0001268528A90420CDD088A0D4A1268528A9E
:10130000801A08820A4A48681268528A1044486063
:1013100005E00A8A486810444860002008820120DD
:1013200081F8200070470020FCE7000070000020DA
:101330007400002070B5044610206A490860FF223E
:101340000021104600F040FA00BF1D2000F0B5F962
:1013500000F001000028F8D0002063490860002157
:10136000082000F00DFA0021092000F009FA002100
:101370000C2000F005FA00210D2000F001FAFE21FA
:101380000A2000F0FDF919210B2000F0F9F9FF21E6
:10139000042000F0F5F91921052000F0F1F9FF21F2
:1013A000062000F0EDF91F21072000F0E9F9B02137
:1013B000382000F0E5F93F21282000F0E1F9302144
:1013C000292000F0DDF9F921302000F0D9F9F721CA
:1013D000312000F0D5F90D21C02000F0D1F9002115
:1013E000C12000F0CDF93322C221802000F0ECF9B9
:1013F0001221C62000F0C4F90C21C72000F0C0F96A
:101400001521C42000F0BCF9DC21CA2000F0B8F995
:101410000521CB2000F0B4F92178E42000F0B0F9E8
:101420006178E52000F0ACF9A178E22000F0A8F99D
:10143000E178E32000F0A4F92179E02000F0A0F9A0
:101440006179E12000F09CF9E42000F036F9217880
:1014500088422FD1E42000F030F90546294623A028
:10146000FFF752FCE52000F028F90546294623A0A5
:10147000FFF74AFCE22000F020F90546294623A0A8
:10148000FFF742FCE32000F018F90546294623A0A7
:10149000FFF73AFCE02000F010F90546294623A0AA
:1014A000FFF732FCE12000F008F90546294623A0A9
:1014B000FFF72AFC4FF48071002000F0E5F84FF4AC
:1014C0008071102000F0E0F81F2000F03FF9C122E9
:1014D0001B21802000F078F904221F21802000F0D9
:1014E00073F970BD100801403C0000204D4141449B
:1014F0005235203D2025780D0A0000004D41414421
:101500005234203D2025780D0A0000004D41414411
:101510005233203D2025780D0A0000004D41414402
:101520005232203D2025780D0A0000004D414144F3
:101530005231203D2025780D0A0000004D414144E4
:101540005230203D2025780D0A0000002DE9F041A1
:1015500005460F46392000F0B0F810B90020BDE86C
:10156000F08129480178002000F00AF92648008817
:10157000C0F30721012000F003F900213A2000F018
:10158000C3F82149086000213A2000F0BDF81E4947
:10159000096841EA00201C49086000213A2000F057
:1015A000B3F8044600213A2000F0AEF844EA0024E3
:1015B000241F00213A2000F0A7F8064600213A2017
:1015C00000F0A2F846EA0026681EA04200D26C1E77
:1015D00006F0800008B9002403E03946204600F0F8
:1015E00077F8094801780C2000F0CAF8064800880E
:1015F000C0F307210D2000F0C3F840221E218020F7
:1016000000F0E2F82046AAE73C00002070B504464E
:101610000D4600BF1F2000F050F800F00800002821
:10162000F8D1FF21022000F0ABF81921032000F0CF
:10163000A7F8FF202044C1B2062000F0A1F841F62F
:10164000FF102044C0F30721072000F099F8002282
:1016500011467A2000F0B8F82946204600F09CF8A0
:1016600008221F21802000F0AFF81C2000F025F890
:1016700000F0020038B11F2000F068F808221F2196
:10168000A02000F0A1F870BD70B505460C462946B3
:10169000D42000F075F8E1B2D62000F071F8C4F360
:1016A0000721D72000F06CF800BFEA2000F005F811
:1016B00000F001000028F8D170BD10B504462046A6
:1016C00000F044F82146002000F01EF810BD000094
:1016D00070B505460C4610200A4908603A20FFF70D
:1016E00041F905E06D1E0020FFF73CF92070641CF5
:1016F000002DF7D10020207010200249091F08603A
:1017000070BD00001408014070B505460C46002667
:1017100010200D49086004F01F0040EA050630461D
:10172000FFF720F9FF20FFF71DF9064604F08000BF
:1017300018B1FF20FFF716F9064610200249091FCD
:101740000860304670BD00001408014010B5044622
:1017500004F060000949097888420ED003221F2155
:10176000A02000F031F8C4F341121F21802000F0C6
:101770002BF804F060000149087010BD380000200B
:1017800070B504460D462046FFF7E0FF2A46214685
:10179000402000F019F870BD70B504460D461020C9
:1017A000084908607A20FFF7DDF804E0641E287815
:1017B000FFF7D8F86D1C002CF8D110200149091F43
:1017C000086070BD140801402DE9F04104460D4643
:1017D0001646002710200949086005F01F0040EA5E
:1017E00004073846FFF7BEF837463846FFF7BAF821
:1017F00010200249091F0860BDE8F081140801406B
:1018000010B5044604F007017520FFF7B9FF10BDBD
:101810002DE9F0410446E769204600F07BFC0546CF
:1018200015B90020BDE8F0816E68B08900F078FC41
:10183000B0F5006F03D0A0F6060068B900E000BF65
:10184000214628462269904728B100BF00BF28469C
:1018500001F008FB002504E0284601F003FB002509
:1018600000BF00BF0120DDE770B504460D46208DA6
:1018700010B1612814D103E000BF6120208500BFB2
:1018800020212846FEF7B2FC461C3246074904F1E7
:10189000280001F047FC08B9002070BD00BF00BF60
:1018A00000BF002020850220F7E70000D5180008BF
:1018B00070B504460D46E1B20548FFF7E3F900BFF5
:1018C00040210348FFF764F90028F9D0204670BD95
:1018D0000038014070B504462546284600F0C2FB9A
:1018E0000646334604A240F6CA7104480068FFF772
:1018F0001BFA80B270BD0000253575006400002021
:1019000070B504462546B5F8AC00064931F81030EC
:1019100005A240F6CA7106480068FFF705FA80B2D2
:1019200070BD0000B07700202535750A000000006A
:101930006400002070B505462C469C2000590D49D6
:101940000968498A884205DD0A480068408AC4F867
:10195000A00003E09C200059C4F8A0009834064879
:10196000A26821680068FEF7FFFB2089983C80B2DE
:1019700070BD000074000020640000202DE9F04FCD
:101980008BB005460A950A9DB5F8AC0000EB8000C7
:10199000234901EBC004E08800F0EEFA06466088B7
:1019A00000F0EAFAC7B2608800F0E6FA4FEA2028B1
:1019B000208800F0E1FA00F0FF09208800F0DCFA4E
:1019C0004FEA202AA08800F0D7FA8346607E00F014
:1019D000100008B1212200E02022208A08B12A2329
:1019E00000E02023A07EE17ECDE90832CDE906109B
:1019F000607E00F00F000B4951F820005B460A4A58
:101A000040F6CA71CDE900A9CDE90287CDE90460AD
:101A100006480068FFF788F980B20BB0BDE8F08F88
:101A200020710020B40000208C6A000864000020AF
:101A300063212E2282700A2291FBF2F302FB131221
:101A40003032C2700022027170473121017132219F
:101A5000C171332181723A214173002101747047B1
:101A600010B50446204600F009F894F896000128C5
:101A700002D1204600F03EF910BD000070B586B0DE
:101A80000446A08838B1A0F20F1048B1022825D032
:101A9000462870D1DAE000BF40F20F10A08000BFEE
:101AA0002021201D01F0AEFB10B9002006B070BD52
:101AB00000BF0422744904F15000FEF7B1FB40B1AD
:101AC00000BF10207149087000BF0020A0800120D5
:101AD000ECE700BF40F21110A08000BF2021201DC4
:101AE00001F090FB08B90020E0E700BF94F8500037
:101AF0002F2808D000BF10206449087000BF0020C4
:101B0000A0800120D2E75120005D202803D0512081
:101B1000005D3F287ED15120005D3F282CD156200A
:101B2000005D312828D15AA15C48FEF741FB0546EB
:101B3000002D4FD05AA12846FEF73AFB0546062253
:101B400059A1E81DFEF746FB022259A105F1180034
:101B5000FEF740FB57A12846FEF72AFB05465748EB
:101B60000068FEF74DFB0646324654480168284699
:101B7000FEF730FB2EE081E05120005D3F2829D1A7
:101B80005620005D322825D14DA14448FEF710FBB8
:101B90000546FDB142A12846FEF70AFB054606228E
:101BA0004AA1E81DFEF716FB02224AA105F1180022
:101BB000FEF710FB3FA12846FEF7FAFA0546464815
:101BC0000068FEF71DFB064632464348016828467A
:101BD000FEF700FB41A13148FEF7EAFA05463DB1A8
:101BE00001A8FFF725FF281F042201A9FEF7F2FA3A
:101BF0003BA12846FEF7DCFA054645B101A8FFF7F0
:101C000024FF102201A905F12100FEF7E3FA1422B6
:101C1000364900E004E004F18200FEF7DBFA0CE054
:101C2000201D01F079FA401E04F1500100220A54EF
:101C3000142204F18200FEF7CDFA012084F8960008
:101C40001BE000BF40F25510A08000BF0A21201DFC
:101C500001F0D8FA08B9002028E700BF082224497B
:101C600004F15000FEF7DCFA38B9201D01F054FAF7
:101C7000801E04F1500100220A54E2E700BF002058
:101C8000A080022012E700005B67000870000020BF
:101C90004C454430D7B4CCAC00000000E500002037
:101CA000636F6C6F723A2300354235423542000053
:101CB000C3F00000687474703A000000A0000020B7
:101CC0004C454431D7B4CCAC00000000303046461F
:101CD00030300000C1C100009C000020A1E60000DF
:101CE000525443CAB1BCE43A00000000A0670008A7
:101CF000B667000870B50446B4F84C00E5283AD041
:101D000005DC48B1E0281DD0E22868D127E0EA28A8
:101D10004ED0ED2863D157E004F1980104F1820020
:101D200000F0BAF910BB04F19801304800F0B4F9A2
:101D30002E4904F18200FEF76AFA00BFE020A4F801
:101D40004C0000BF2A49204601F032FB08B90020B0
:101D500070BD00BF00BFE220A4F84C0000BF2046C9
:101D600001F0F6FA08B90020F2E734E000BFE52000
:101D7000A4F84C0000BF1F49204601F019FB08B928
:101D80000020E5E700BF2E2104F18200FEF72EFAC5
:101D90000546A5B1062218492846FEF741FA70B952
:101DA0000020A4F84E0000BFEA20A4F84C0000BFB9
:101DB000204600F025F808B90020C9E70BE000BF75
:101DC000ED20A4F84C0000BF204601F0C1FA08B98C
:101DD0000020BDE700BF10200849087000BF00BF09
:101DE0000020A4F84C000220B2E70000AC67000815
:101DF00013680008BF6700086469000870000020CD
:101E00002DE9F0410446B4F84E0030B18F282BD0B4
:101E1000912836D0B0287DD18CE09FE0D4F898008E
:101E20000078252846D1D4F898004078212841D15F
:101E3000D4F89800C01CC4F8A4009C200059C01E0F
:101E4000C4F8A800D4F8A40010F8010C3A2813D163
:101E5000D4F8A410481C04F1980100F01DF900BF4B
:101E60008F20A4F84E0000BF204601F071FA10B98F
:101E70000020BDE8F08112E000BF9120A4F84E00E0
:101E800000BFD4F8A40000F0CFF80746D4F8A4604F
:101E900031462046B84708B90020EAE700BF20468F
:101EA00000F002FE9834E06820602169983C9C2094
:101EB000015153E09C2000592E490968498A884203
:101EC00005DD2C480068408AC4F8A00003E09C208F
:101ED0000059C4F8A000D4F898000078252807D14C
:101EE000D4F89810481C2521FEF780F9054605E036
:101EF0002521D4F89800FEF779F90546ADB1D4F85C
:101F00009800A84211D054F8980F281AA060A06831
:101F1000983C00E028E017490968498A884204DBB8
:101F200014480068408AC4F8A00000BFB020A4F89C
:101F30004E0000BF204601F035FB08B9002098E7AD
:101F400000BF54F8980FA168084444F898099C20F1
:101F50000059D4F8A010411A9C2001519C2000592E
:101F600000283FF75BAF00BF00BF0020A4F84E0081
:101F700002207EE7740000200146080240EA21208A
:101F800080B2704710B52648006800F11C0425484F
:101F9000007800F01000002840D12248007800F0BE
:101FA000200000283AD11F48007800F08000002867
:101FB00034D11C48007800F04000B0B1312204F167
:101FC0005001201D01F0F0F8312204F1500104F11C
:101FD000280001F0E9F80020A4F84C0084F89600ED
:101FE00020702046FFF73CFD18E0A4B10D480078B2
:101FF00000F0080058B12078401C20702078142888
:1020000003DB20200749087001E0002020702046F3
:10201000FFF726FD02E020200249087010BD0000F5
:10202000740000207000002070B505460B4C0FE0D6
:1020300021680868FEF7E4F8064621683246086819
:102040002946FEF7EDF810B92068406870BD241DE0
:1020500020680028ECD10248F8E70000A400002026
:10206000CB2A000870B506460025094C0BE0304627
:10207000616800F037F818B9064830F8150070BDEF
:10208000681C85B22468002CF1D10020F7E700001D
:1020900030670008CC7900202DE9F04107460D4655
:1020A00000260E4C15E03846616800F01BF868B950
:1020B000A0682860E0686860094830F81600401C95
:1020C000074921F816000120BDE8F081701C86B296
:1020D0002468002CE7D10020F6E7000030670008F4
:1020E000CC79002010B502460B46002100BF585C99
:1020F00028B1505C0D2802D0505C0A2801D1002084
:1021000010BD505C5C5CA04201D00120F8E7481C87
:10211000C1B2ECE710B504462046FEF707FB10BD40
:1021200001460806000C40EA11207047FF24FF25F5
:10213000FEF758FBFEF794FAFEF796F9FEF7A8FDB6
:102140007149B1F1807F01D301201DE021F07F4072
:10215000401E4FF0E022506150170F22002807DA8E
:1021600013071F0E694B00F00F06361F9F5503E043
:1021700013071E0E664B1E5400BF00204FF0E022D6
:10218000906107201061002008B100BFFEE761A048
:10219000FEF7BAFD6DA0FEF7B7FD6CA0FEF7B4FD2B
:1021A00078A0FEF7B1FD85A0FEF7AEFD91A0FEF789
:1021B000ABFD9EA0FEF7A8FD64A0FEF7A5FDA9A0BB
:1021C000FEF7A2FDFEF780FB01F00AFA02F006F826
:1021D00000BF4AF6C000B149088041F201004880C2
:1021E00000BF00BF08460088AD490880AB48408862
:1021F000488000BF00BF4AF6C000A849088040F2EE
:102200000110488000BF00BF08460088A54908802B
:10221000A2484088488000BF00BF4FF6FF709F492A
:102220000880FF20488000BF00BF084600889E4904
:1022300008809A484088488000BF4BF2040002F0B2
:1022400015F84FF4A04002F011F801F0F7FA59E048
:1022500002F03CF89548007884421CD093480078FE
:1022600000F0800018B192A0FEF74EFD02E096A0AB
:10227000FEF74AFD8D48007800F0400048B19849CB
:1022800098A0FEF741FD8948007820F0400087497A
:102290000870864804788548007800F0800080B196
:1022A0009548028895A18E48FEF752FD7F48007838
:1022B00040F020007D4908708F480088401C8E49FE
:1022C00008809348007885421CD09148007800F03F
:1022D000800018B18FA0FEF717FD02E093A0FEF773
:1022E00013FD8B48007800F0400048B1954996A056
:1022F000FEF70AFD8648007820F040008449087007
:1023000083480578A4E7000000F9150018ED00E007
:1023100000E400E02A2A2A2A202020202020202849
:10232000432920434F5059524947485420323031B5
:102330003320D6C6D4ECD5DFBFC6BCBC20202020BD
:102340002A2A2A2A2A2A2A0D0A0000002A202020C6
:10235000202020202020202020202020202020207D
:10236000202020202020202020202020202020206D
:1023700020202020202020202020202020202A0D66
:102380000A0000002A20202020204D4355C6BDCC45
:10239000A83A53544D3332463130335645543620E3
:1023A000202020202020202020202020202020202D
:1023B0002020202020202A0D0A0000002A20202092
:1023C0002020D2D4CCABCDF8D3B2BCFE3A454E439C
:1023D00032384A3630202020202020202020202083
:1023E00020202020202020202020202020202A0DF6
:1023F0000A0000002A2020202020B9CCBCFEBFE229
:10240000A3BA332E35202020202020202020202079
:1024100020202020202020202020202020202020BC
:102420002020202020202A0D0A0000002A20202021
:102430002020C0FDB3CCB0E6B1BE3A20302E322011
:10244000202020202020202020202020202020208C
:1024500020202020202020202020202020202A0D85
:102460000A0000002A2A2A2A2A2A2A2A2A2A2A2A6A
:102470002A2A2A2A2A2A2A2A2A2A2A2A2A2A2A2ABC
:102480002A2A2A2A2A2A2A2A2A2A2A2A2A2A2A2AAC
:102490002A2A2A2A2A2A2A0D0A00000004000020DB
:1024A0005000002054000020580000209700002019
:1024B0005443502053657276657220436F6E6E658B
:1024C0006374656420202000544350205365727665
:1024D000657220446973636F6E6E65637465640032
:1024E000047900205443502053657276657220525F
:1024F000583A25730D0A000008000020544350206C
:10250000536572766572204F4B2025640D0A0000DA
:102510009600002054435020436C69656E7420433C
:102520006F6E6E65637465642020200054435020F4
:10253000436C69656E7420446973636F6E6E656386
:10254000746564003C78002054435020436C6965F6
:102550006E742052583A25730D0A000070B5054676
:1025600015B900BF00BF70BD00BF05F0030020B16A
:1025700026A0FEF7C9FB00BFFEE700BF00BF2C4846
:102580000068854203D32B480068854204D32AA003
:10259000FEF7BAFB00BFFEE700BF25480068854292
:1025A00003D32448006885420AD300BF00BF2848EF
:1025B000B0F8B400401C81B22548A0F8B410D2E7AE
:1025C000A5F1080400BF207920B922A0FEF79CFBEA
:1025D00000BFFEE700BF002020712348006884424E
:1025E00001D221480460208811490988611A411AE2
:1025F0001748B0F8AE00401A81B21548A0F8AE10E6
:10260000204600F0D7FC00BFADE700006D656D5FB0
:10261000667265653A2073616E69747920636865D6
:10262000636B20616C69676E6D656E7400000000FD
:1026300040000020440000206D656D5F6672656596
:102640003A206C6567616C206D656D6F7279000072
:10265000C45F00206D656D5F667265653A206D65CB
:102660006D2D3E7573656400480000202DE9F0472C
:10267000054615B90020BDE8F087E81C20F00300EE
:1026800085B20C2D00DA0C25B5F5204F01DD0020B8
:10269000F1E76748008867490988401A86B2B5E0C3
:1026A000644800688419207900287DD1218806F1CA
:1026B0000800081AA84277D3218806F10800091AF1
:1026C00005F11400814232D306F1080028441FFAB4
:1026D00080F85848006800EB08070020387120880F
:1026E00038807E80A4F80080012020713888B0F501
:1026F000204F05D038884F4909680844A0F8028067
:1027000000BF4D48B0F8AE1005F10800084481B292
:102710004948A0F8AE10B0F8B010B0F8AE00814251
:1027200004DA4548B0F8AE10A0F8B0101BE0012064
:10273000207100BF20883F490988611A411A3E482C
:10274000B0F8AE00084481B23B48A0F8AE10B0F833
:10275000B010B0F8AE00814204DA3748B0F8AE10DD
:10276000A0F8B01000BF32480068844226D130483B
:10277000D0F8009005E0B9F800002E49096800EB98
:10278000010999F8040018B12C4800688145F2D17C
:102790002748C0F8009000BF0068284909688842AF
:1027A0000AD02348006800E02DE0007920B124A081
:1027B000FEF7AAFA00BFFEE700BF00BF00BF04F1AA
:1027C000080028441D490968884204D923A0FEF75F
:1027D0009BFA00BFFEE700BF00BF04F0030020B17A
:1027E0002AA0FEF791FA00BFFEE700BF00BF04F089
:1027F000030020B131A0FEF787FA00BFFEE700BF5B
:1028000004F1080037E70B480068865BC5F52040F7
:10281000B0423FF745AF00BF00BF0748B0F8B20075
:10282000401C81B20448A0F8B210002023E7000049
:102830004800002040000020C45F00204400002029
:102840006D656D5F6D616C6C6F633A20216C6672B3
:1028500065652D3E75736564000000006D656D5FF4
:102860006D616C6C6F633A20616C6C6F6361746551
:1028700064206D656D6F7279206E6F742061626F78
:1028800076652072616D5F656E642E006D656D5FAB
:102890006D616C6C6F633A20616C6C6F6361746521
:1028A00064206D656D6F72792070726F7065726CE7
:1028B0007920616C69676E65642E00006D656D5FDF
:1028C0006D616C6C6F633A2073616E69747920631B
:1028D0006865636B20616C69676E6D656E7400007E
:1028E00070B504460D4605B970BD00BF05F0030084
:1028F00020B10DA0FEF708FA00BFFEE700BF2E468C
:10290000114800EB0410C088401E81B20E4800EB55
:102910000410C1800D4850F8240030600B4840F886
:10292000246000BFE0E700006D656D705F66726552
:10293000653A206D656D2070726F7065726C7920DC
:10294000616C69676E6564007C600020581300202C
:1029500070B5044600BF0A2C04DB23A0FEF7D4F9AF
:10296000002070BD00BF284850F82450002D2CD006
:102970002549286841F8240000BF244800EB0410D2
:10298000C088401C81B2214800EB0410C1801F4860
:1029900000EB041001891D4800EB0410C08881423F
:1029A00007DA1A4800EB0410C188184800EB04103D
:1029B000018100BF00BF05F0030020B114A0FEF7A5
:1029C000A3F900BFFEE700BF0BE000BF00BF0F4848
:1029D00000EB04104089401C81B20C4800EB04104D
:1029E00041812846BDE700006D656D705F6D616CCB
:1029F0006C6F633A2074797065203C204D454D50D2
:102A00005F4D415800000000581300207C600020FA
:102A10006D656D705F6D616C6C6F633A206D656D97
:102A2000702070726F7065726C7920616C69676E6E
:102A30006564000010B504462046FEF77BFC40F2BA
:102A400076411420FEF720FE0220FEF7D9FE10BDCD
:102A500070B504460D46208D10B1C3281CD107E087
:102A60000020A4F8AC0012E000BFC320208500BF06
:102A700022460C4904F1280000F054FB08B900205C
:102A800070BD00BFB4F8AC00401CA4F8AC00B4F8B2
:102A9000AC001628E8D300BF00BF0020208502202C
:102AA000EEE700000119000870B5044654F8A40FC1
:102AB0000A21FDF79BFB451C2188691A89B26068D1
:102AC000401A606044F8A45970BD0246108D00B9E8
:102AD00000BF00BF00201085022070472DE9F05F85
:102AE00083460F46914600BF00BFBBF1000F09D0DF
:102AF000BBF1010F08D0BBF1020F07D0BBF1030FF0
:102B000008D105E036260BE0222609E00E2607E074
:102B1000002605E000BF83A0FEF7F6F800BFFEE741
:102B200000BFB9F1000F76D0B9F1010F74D0B9F13F
:102B3000020F72D0B9F1030F70D10920FFF708FF1F
:102B4000044600BF00BF24B900F02EFA0020BDE803
:102B5000F09F84F80C900020206006F110002044C3
:102B6000C01C20F00300606000BF207900F003006B
:102B700020B173A0FEF7C8F800BFFEE700BF2781B1
:102B8000F01C20F00300C0F58460B84201DD384637
:102B900004E0F01C20F00300C0F58460608100BFF9
:102BA00061896068014404F58660814204D970A09F
:102BB000FEF7AAF800BFFEE700BF00BFF01C20F040
:102BC0000300C0F58460002804DC76A0FEF79CF8C2
:102BD00000BFFEE700BF0120E081A2466089A7EBAD
:102BE000000851E00920FFF7B3FE054635B900F0B3
:102BF000DBF9204600F036F90020A8E785F80C90B4
:102C0000002068732860CAF8005000BF4FF6FF70BC
:102C1000804509DB03E03BE062E062E072E06EA029
:102C2000FEF772F800BFFEE700BFA5F808801FFAA4
:102C300088F0B0F5846F02DA1FFA88F001E04FF4F3
:102C40008460688105F11000686000BF287900F099
:102C5000030020B165A0FEF757F800BFFEE700BFF4
:102C600000BF61896068014404F58660814204D92F
:102C70003FA0FEF749F800BFFEE700BF0120E88152
:102C80006889A8EB0008AA46B8F1000FAADC3FE06B
:102C900006F1130121F00302F91C21F00301114494
:102CA00088B2FFF7E3FC04460CB900204FE704F1BB
:102CB00010003044C01C20F0030060602781678151
:102CC0000020206084F80C9000BF207900F0030001
:102CD00020B152A0FEF718F800BFFEE700BF17E0D2
:102CE00000BF0820FFF734FE04461CB900BF00BF38
:102CF00000202CE70020606027816781206084F835
:102D00000C9005E000BF50A0FDF7FEFF00BFFEE7FE
:102D100000BF0120E0810020607300BF00BF20469B
:102D200015E70000706275665F616C6C6F633A2036
:102D30006261642070627566206C61796572000062
:102D4000706275665F616C6C6F633A207062756665
:102D500020702D3E7061796C6F61642070726F70AD
:102D600065726C7920616C69676E656400000000B3
:102D7000636865636B20702D3E7061796C6F616470
:102D8000202B20702D3E6C656E20646F6573206E65
:102D90006F74206F766572666C6F772070627566EF
:102DA00000000000504255465F504F4F4C5F425567
:102DB0004653495A45206D757374206265206269D7
:102DC00067676572207468616E204D454D5F414CA8
:102DD00049474E4D454E540072656D5F6C656E20DF
:102DE0003C206D61785F7531365F74007062756686
:102DF0005F616C6C6F633A207062756620712D3E66
:102E00007061796C6F61642070726F7065726C793B
:102E100020616C69676E6564000000007062756611
:102E20005F616C6C6F633A20706275662D3E7061F5
:102E3000796C6F61642070726F7065726C7920615B
:102E40006C69676E65640000706275665F616C6CCA
:102E50006F633A206572726F6E656F757320747957
:102E6000706500002DE9F047044664B900BF24B93D
:102E700035A0FDF749FF00BFFEE700BF00BF00BF60
:102E80000020BDE8F08700BF00BF00BF207B68B115
:102E9000207B01280AD0207B022807D0207B032832
:102EA00004D02CA0FDF730FF00BFFEE700BF0026D6
:102EB00045E000BFE089002804DC2CA0FDF724FFDA
:102EC00000BFFEE700BFE089401E1FFA80F8A4F8AB
:102ED0000E80B8F1000F2ED1276800BF00BF257B00
:102EE000607B00F0020078B1A14600BFD9F8100065
:102EF00020B924A0FDF708FF00BFFEE700BF204671
:102F0000D9F81010884712E0032D04D1214609207A
:102F1000FFF7E6FC0BE0012D01D0022D04D1214684
:102F20000820FFF7DDFC02E02046FFF717FB701CCE
:102F3000C6B23C4602E000BF00BF002400BF002C28
:102F4000B7D130469DE700007020213D204E554C02
:102F50004C000000706275665F667265653A2073AA
:102F6000616E65207479706500000000706275669E
:102F70005F667265653A20702D3E726566203E2060
:102F80003000000070632D3E637573746F6D5F6673
:102F90007265655F66756E6374696F6E20213D2092
:102FA0004E554C4C0000000001200149087070474C
:102FB0004C00002070B5044600BF2F4800688442D2
:102FC00004D22EA0FDF7A0FE00BFFEE700BF00BFA9
:102FD00030480068844204D32FA0FDF795FE00BF5F
:102FE000FEE700BF00BF207920B132A0FDF78CFEC4
:102FF00000BFFEE700BF00BF2088B0F5204F04DD12
:1030000033A0FDF781FE00BFFEE700BF20881A490C
:1030100009684518AC4215D0287998B91D48006850
:1030200085420FD035480068A84201D1334804607A
:103030002888208010480088201A29880E4A1268A3
:103040001144488060880C4909684618A64211D08E
:10305000307978B929480068A04201D12748066034
:103060002088308004480088301A2188024A12687B
:103070001144488070BD000040000020706C7567EE
:103080005F686F6C65733A206D656D203E3D207200
:10309000616D000044000020706C75675F686F6CA4
:1030A00065733A206D656D203C2072616D5F656EC1
:1030B00064000000706C75675F686F6C65733A2020
:1030C0006D656D2D3E75736564203D3D20300000BB
:1030D000706C75675F686F6C65733A206D656D2DF8
:1030E0003E6E657874203C3D204D454D5F53495AF6
:1030F000455F414C49474E454400000048000020D0
:1031000010B5002400BF0348FEF782FB0446002CE4
:10311000F9D110BD6807002001468A8B088B101A70
:1031200080B270472DE9F04104460D46164660888E
:1031300010B1EE282FD11BE02DB900BF0020608018
:103140000120BDE8F0813046A8472082144800687D
:103150006060002084F8200000BF1248007800F072
:10316000040008B13046A84700BFEE20608000BFD1
:103170002046FEF7B1F80746204600F0C1F80740A8
:103180000FB90020DDE700BF208A0028E5DC002021
:1031900084F8200000BF00BF002060800220D0E73C
:1031A000640000207000002070B504460E461546ED
:1031B000002084F820006082E660E561AAB2314612
:1031C00004F11400FEF75CF800202080608070BDE0
:1031D0000146488A002801DD0120704791F820004F
:1031E000022804D1032081F820000020F5E70448DC
:1031F000007800F0020008B10120EEE70020ECE7C3
:103200007000002070B504460D46608820B1A0F221
:103210001B10002836D10EE0A08B82B204F11400FE
:10322000E168FEF72DF800BF608AA0B900BF40F248
:103230001B10608000BF2046FFF7CAFF08B90020BE
:1032400070BD00BF022084F8200011480068A06013
:1032500010480088608204F1120304F10802294634
:10326000981CFDF7DAFF00F002000028DCD02046B1
:10327000FFF752FF28B9002084F8200000BF6080CB
:10328000DEE700BF00BF002060800220D8E700001A
:10329000640000206C0000202DE9F04104460E4639
:1032A0001546608810B1CF2824D110E02DB900BF99
:1032B000002060800120BDE8F0816660258200204A
:1032C00084F820000FE000BFCF20608000BF2046C0
:1032D000FEF702F80746204600F012F807400FB943
:1032E0000020E8E700BF208A0028ECDC002084F8FA
:1032F000200000BF00BF002060800220DBE700004C
:1033000010B5044694F82000062804D10E48007831
:1033100000F00400A8B1208A0C490968498A884253
:1033200006DD0A4A1268518A606802F01BF803E061
:10333000218A606802F016F8062084F82000012037
:1033400010BD0020FCE70000700000207400002089
:1033500010B50446208D10B1632821D104E000BFD0
:1033600000BF6320208500BF2246104904F12800D9
:10337000FFF7D8FE08B9002010BD00BF9C200059FF
:10338000D4F8A010411A9C20015154F8980FA1685C
:10339000084444F898099C2000590028E0DC00BF4C
:1033A00000BF002020850220E6E700003519000854
:1033B0002DE9F04104460E46208DCA2865D007DC71
:1033C00078B1C12811D0C52829D0C8287ED144E0C1
:1033D000CC2872D0CE287AD0D02879D0D228F5D176
:1033E000B1E000BFC120208500BF3046FCF708FFD8
:1033F00007463A46314604F12800FFF74DFF10B961
:103400000020BDE8F08100BF2E2104F18200FCF70E
:1034100016FF05468DB900BFC520208500BF544862
:10342000FCF7EEFE07463A46514904F12800FFF743
:1034300033FF08B90020E4E793E0052229464D4810
:10344000FCF7EEFE28B1062229464B48FCF7E8FEC1
:1034500088B900BFC820208500BF4848FCF7D0FECF
:1034600007463A46454904F12800FFF715FF08B919
:103470000020C6E775E0042229464148FCF7D0FE4B
:1034800088B900BFCA20208500BF3E48FCF7B8FEBF
:1034900007463A463B4904F12800FFF7FDFE08B90C
:1034A0000020AEE75DE0042229463748FCF7B8FE6D
:1034B000A8B900BFCC20208500BF3448FCF7A0FE8F
:1034C00007463A46314904F1280002E04AE010E09C
:1034D00027E0FFF7E1FE08B9002092E741E004226F
:1034E00029462B48FCF79CFE88B900BFCE202085DA
:1034F00000BF2848FCF784FE07463A46254904F1F8
:103500002800FFF7C9FE08B900207AE729E0042265
:1035100029462148FCF784FE88B900BFD0202085C9
:1035200000BF1E48FCF76CFE07463A461B4904F1F3
:103530002800FFF7B1FE08B9002062E711E000BFE4
:10354000D220208500BF1648FCF75AFE07463A46AF
:10355000134904F12800FFF79FFE08B9002050E747
:1035600000BF00BF00BF00202085022049E7000007
:10357000336900085E690008646900088B68000808
:1035800070690008A768000875690008DE6800080F
:103590007A690008FA6800087F690008166900085F
:1035A0006E68000810B50446208D10B1702811D146
:1035B00003E000BF7020208500BF04F12800D4F88C
:1035C000A020D4F89810FFF767FE08B9002010BDBE
:1035D00000BF00BF00BF002020850220F7E70000E9
:1035E00010B50248FFF726FA002010BD9000002019
:1035F00010B5034940F2DC50FDF7A8FF80B210BDC2
:103600001C61002010B5034903480088FDF7FEFF48
:1036100010BD00001C6100206C00002010B50648A1
:10362000007820F080000449087000F007F903A03A
:1036300000F03CFE10BD0000960000207463705F37
:10364000636C69656E742061626F72746564210DCC
:103650000A00000010B50548006800F11C040020B5
:10366000A06003A000F022FE10BD00007400002046
:103670007463705F636C69656E742061636B65640D
:10368000210D0A0010B50648007820F0800004499A
:10369000087000F0D3F803A000F008FE10BD000091
:1036A000960000207463705F636C69656E742063BC
:1036B0006C6F736564210D0A0000000010B50B48A3
:1036C000006800F11C040A48007840F080000849B6
:1036D000087008A000F0EAFD00202070A0600BA098
:1036E00060606068FCF78CFDA06010BD7400002075
:1036F000960000207463705F636C69656E7420636C
:103700006F6E6E6563746564210D0A00414C494516
:103710004E54454B2053544D333220426F617264F6
:1037200020436F6E6E6563746564205375636365D3
:10373000737366756C6C79210D0A000010B53948F9
:10374000006800F11C043848007800F0200008B13F
:10375000FFF764FF3448007800F0800008B100F003
:1037600093F83148007800F0100008B1FFF78AFFA5
:103770002D48007800F0400008B1FFF79FFF2A486D
:10378000007800F0010008B1FFF764FF26480078D8
:1037900000F00200C8B12548007800F0400020BBCE
:1037A00023480088C72804DD00202249096881F8E1
:1037B000C700204801682048FCF729FD1B48007815
:1037C00040F04000194908700FE01848007800F0F8
:1037D000200050B118486060FCF712FDA06013484B
:1037E000007820F02000114908700F48007800F0A0
:1037F000040098B90C48007800F0020070B90A483B
:10380000007800F0010048B90748007800F0400057
:1038100020B90548007800F0080008B100F024F84D
:1038200010BD0000740000207000002096000020F1
:103830006C000020640000203C78002038B500BFF8
:103840004AF6C000ADF8000046F20170ADF8020083
:1038500000BF4FF4AF60FEF78FFB04462146684679
:1038600000F034FC38BD000010B50648006800F1D7
:103870001C04A068002803DDD4E9010101F072FDF9
:1038800010BD00007400002010B50548007820F03D
:1038900080000349087003A000F008FD10BD00007F
:1038A000960000207463705F636C69656E742074A9
:1038B000696D656F7574210D0A00000010B5104820
:1038C00000688088B0F5A04F04D0A0F530400438DF
:1038D00030B902E0FEF756FB03E000F09FF800E08D
:1038E00000BF00BF06480068C088A0F5F04005385A
:1038F00010B9FFF723FF00E000BF00BF10BD0000BC
:103900007400002010B50548007820F080000349BD
:10391000087003A000F0CAFC10BD00009700002052
:103920007463705F7365727665722061626F727422
:103930006564210D0A00000010B50548006800F11B
:103940001C040020A06003A000F0B0FC10BD00002B
:10395000740000207463705F736572766572206115
:10396000636B6564210D0A0010B50548007820F0EE
:1039700080000349087003A000F098FC10BD00000F
:10398000970000207463705F7365727665722063C0
:103990006C6F736564210D0A0000000010B50B48C0
:1039A000006800F11C040A48007840F080000849D3
:1039B000087008A000F07AFC00202070A0600BA026
:1039C00060606068FCF71CFCA06010BD7400002003
:1039D000970000207463705F736572766572206370
:1039E0006F6E6E6563746564210D0A00436F6E6EC1
:1039F00065637420746F20414C49454E54454B20FB
:103A000053544D333220426F6172642053756363A7
:103A100065737366756C6C79210D0A0010B53948B1
:103A2000006800F11C043848007800F0200008B15C
:103A3000FFF768FF3448007800F0800008B100F01C
:103A40007DF83148007800F0100008B1FFF78CFFD6
:103A50002D48007800F0400008B1FFF79FFF2A488A
:103A6000007800F0010008B1FFF766FF26480078F3
:103A700000F00200C8B12548007800F0400020BBEB
:103A800023480088C72804DD00202249096881F8FE
:103A9000C700204801682048FCF7B9FB1B480078A4
:103AA00040F04000194908700FE01848007800F015
:103AB000200050B118486060FCF7A2FBA0601348DA
:103AC000007820F02000114908700F48007800F0BD
:103AD000040098B90C48007800F0020070B90A4858
:103AE000007800F0010048B90748007800F0400075
:103AF00020B90548007800F0080008B100F00EF881
:103B000010BD00007400002070000020970000200D
:103B10006C000020640000200479002010B50648E5
:103B2000006800F11C04A068002803DDD4E901014D
:103B300001F018FC10BD00007400002010B505480D
:103B4000007820F080000349087003A000F0AEFB6D
:103B500010BD0000970000207463705F736572767B
:103B600065722074696D656F7574210D0A0000001F
:103B700070B504460D46208D10B1AB2827D112E058
:103B80000020A4F8AC001DE0B4F8AC0000EB80000D
:103B9000114901EBC000407E00F00F0068B100BF8A
:103BA000AB20208500BF22460C4904F12800FFF716
:103BB000B9FA08B9002070BD00BFB4F8AC00401CD1
:103BC000A4F8AC00B4F8AC002828DDDB00BF00BFCF
:103BD000002020850220EEE7207100207D190008DA
:103BE00010B50446FDF772FB2168401A61688842EF
:103BF00001DB012010BD0020FCE7D0E900121144D8
:103C00000160704770B504460D466560FDF75EFBC8
:103C1000206070BDC2780A44194BDA70827802EBDA
:103C200021229A7042785A7002781A701A46927855
:103C3000B2EB212F0ADA1A465278521C5A701A46F1
:103C400052781AB91A461278521C1A700C4AD27855
:103C5000CBB29A4212DA0A4A9278521C084B9A70F6
:103C60001A46927852B91A465278521C5A701A461D
:103C700052781AB91A461278521C1A70704700000E
:103C80008000002010B5044621460D480068083029
:103C9000FFF7C0FF0B480078094909680872094816
:103CA00041780748006841720648817804480068F6
:103CB00081720448C17802480068C17210BD0000DA
:103CC000740000208000002010B5354800882A28A4
:103CD00003D200203249088010BD002030490880FE
:103CE0003048808AB0F5807F03D0B0F5007F54D192
:103CF00041E02C48C08C2C49098888423AD1294897
:103D0000008D29494988884234D126491631881DB9
:103D100000F04AF94FF40070224988820846D1F831
:103D200016200262498B818420490A68C0F8162057
:103D3000898841831D490A68C0F806208988418125
:103D400001460A6A0260898C8180808B1549C8848B
:103D50000846C18B0185144800881249888312489F
:103D600041881048C1834FF4C1600E4988812A20E0
:103D70000B49088011E00B48C08C0B490988884228
:103D80000AD10848008D08494988884204D105496C
:103D90001631881D00F008F900BF00BF00BF9BE787
:103DA0006C0000201C610020500000205C000020FE
:103DB00010B55B48C08B5B49098888420CD15848D4
:103DC000008C58494988884206D1554856490A68A6
:103DD00002608988818091E05148C08B53490988ED
:103DE000084053490988514A1288114088420BD132
:103DF0004B48008C4D49498808404D4949884B4AF9
:103E000052881140884208D000BF4A4800884A4979
:103E1000088048484088488008E000BF4048C08B80
:103E2000454908803E48008C488000BF0020434937
:103E3000087016E04148007800EB4000404901EB73
:103E400080043D4800882188884205D13A4840884E
:103E50006188884200D108E038480078401C374922
:103E60000870364800780828E4DB00BF3348007843
:103E700008283ED1FF2206212948FCF787F9284867
:103E80000021016281842F490A68C0F806208988D0
:103E900041812C490A68C0F816208988418300BFF7
:103EA000254800881E49C884234841881C4801854C
:103EB00000BF00BF1E480088194988831C484188FC
:103EC0001748C18300BF4FF4807015498882C881AC
:103ED00008200882062088740420C8744FF4C1604A
:103EE000888101F13600184908602A2017490880A6
:103EF00010BD0B4861680160218981800848114923
:103F00000A68C0F806208988418108200449888110
:103F10000E4800880E300D49088000BFE8E7000019
:103F20001C610020F2530008EC53000858000020E8
:103F30005000002054000020880000208C00002049
:103F4000DC7700205C000020640000206C00002072
:103F500012490978491C114A11700021104A117048
:103F600017E00F49097801EB41010E4A02EB81008D
:103F700001884288114339B1817A084A1278511A6E
:103F8000782901DB0021016005490978491C044AB0
:103F90001170034909780829E3DB70478E0000207F
:103FA0008C000020DC77002010B502460023424C34
:103FB00023701FE0404B1B7803EB43033F4C04EBA3
:103FC000830003888BB143887BB113880488A342A4
:103FD0000BD153884488A34207D10B6843608B8878
:103FE0000381374B1B78837210BD334B1B785B1CEE
:103FF000314C2370304B1B78082BDBDB00232E4C1D
:10400000237010E02C4B1B7803EB43032B4C04EB89
:104010008300038813B9438803B908E0264B1B7853
:104020005B1C254C2370244B1B78082BEADB00BF5C
:10403000214B1B78082B34D10023224C2370224CB7
:1040400023701D4C23701DE01B4B1B7803EB4303B7
:104050001A4C04EB8300837A194C2478E31A194C28
:104060002478A34209DD837A154C2478E31A154C91
:104070002370114B1B78144C23700F4B1B785B1C67
:104080000D4C23700C4B1B78082BDDDB0E4B1B7883
:10409000094C237023461B7803EB4303074C04EBC6
:1040A0008300136803600B6843608B880381044BB3
:1040B0001B78837200BF97E78C000020DC7700201C
:1040C0008E0000208F0000208D00002030B50446B7
:1040D0000D4600BF3D480088401C3C49088008460A
:1040E0000088B0F5FA4F02DB4FF4805008800020C2
:1040F0003749087015E03648007800EB80003549F4
:1041000001EBC002507E38B130480088FDF734FF23
:104110009188884200D1DDE72D480078401C2C4969
:1041200008702B4800782828E5DB00220020284969
:10413000087018E02648007800EB8000254901EB64
:10414000C003587E08B91A4611E0587E072805D1E9
:104150001AB1987E917E884200DD1A461C4800788C
:10416000401C1B4908701A4800782828E2DB00BF71
:104170000AB9002030BD022050761748007810732D
:1041800015484178517381789173C178D17340F6A5
:10419000CA7050829082012010820020D0760120C7
:1041A000907603201076002090751020D075074877
:1041B0000088FDF7E1FE9080D58000BF2088108048
:1041C0006088508000BF1046D4E700007E000020C9
:1041D00084000020207100207A0000200020164971
:1041E00008700AE000201549134A127821F81200DD
:1041F00011480078401C104908700F4800782828A2
:10420000F0DB00200C4908700DE000200A49097815
:1042100001EB81010A4A02EBC101487606480078A9
:10422000401C05490870044800782828EDDB4FF44D
:104230008060044908807047840000206077002077
:10424000207100207E00002010B5142206490020B5
:10425000FDF719F8044614B94FF6FF7010BD20465B
:10426000FDF78AFEFAE700002A61002000210D4ACE
:10427000117010E00C490B4A127831F8121029B96C
:104280000949084A127821F812007047054909784F
:10429000491C044A1170034909782829EADB00BF48
:1042A000F3E70000840000206077002010B504468A
:1042B000214602A0FCF728FD10BD000075495020E2
:1042C0006C6F673A25730D0A0000000010B5334883
:1042D000007858B901203149087032213048FFF781
:1042E00091FC4FF47A712F48FFF78CFCFFF780F9AF
:1042F0002D49088008460088002824DD4FF400601E
:10430000FDF73AFE2949898988420BD1012000F046
:1043100053F82548008800283FDDFFF749FDFFF7E7
:1043200071F93AE040F60600FDF726FE1F4989893B
:10433000884232D1FFF7C8FC1B48008800282CDDDA
:10434000FFF760F929E01648FFF74AFC28B3144844
:10435000FFF753FC002415E000BF04EB8400144970
:1043600001EBC00013490860022000F025F800BFEF
:104370000D480088002803DDFFF71AFDFFF742F91A
:10438000601CC4B2282CE7DB0648FFF729FC20B1EB
:104390000448FFF732FCFFF7DBFD10BD1C000020D6
:1043A0000C000020140000206C0000201C61002084
:1043B000207100207400002070B50546FA4804689A
:1043C000FA48FB490860FB490860032D0ED1607E66
:1043D00000F00F00032807D1208A28B90820F649E9
:1043E0000870FFF76BFAF8E300F0A9BF022D73D154
:1043F000F248C078401CC0B2F049C87078B908468D
:104400008078401CC0B2887048B908464078401C8B
:10441000C0B2487018B908460078401C08700020E7
:10442000E7490880E7490880607E072802D0607E5F
:10443000052808D1A07E401CA076A07E782860D1F7
:10444000002060765DE0607E00285AD0208A002837
:104450004CD0A17E481EA076002952D1E07E0828CB
:1044600008D0607E022802D0607E01280FD1E07E55
:1044700005280CD1002060768020CF490870FFF716
:104480001DFA1421C948363880F82F10FEE3E07E6B
:10449000042801DD042000E0E07E03218140A176B4
:1044A000E07E401CE076C848C08C401C81B2C64803
:1044B000C184607E00F00F00092822D2DFE800F0FE
:1044C0002105060D13211421150057E30021B748DB
:1044D000363880F82F1056E314E00420B6490870EF
:1044E000FFF7ECF9DFE300BF00BFDDE3607E00F023
:1044F0000F00032805D10820AF490870FFF7DEF947
:1045000071E771E7B0484088401CAF494880A74830
:104510003638807B45280BD008460088401C088030
:104520000846C088401CC880A8A0FFF7BFFE5BE714
:104530009E483638417C007C01EB0020A049098868
:10454000884208DC99483638417C007C01EB002029
:104550009B49088003E0A7A0FFF7A8FE44E7934823
:104560003638007D00F03F0018B990483638407D5D
:1045700060B195480088401C9349088008468089AE
:10458000401C8881A7A0FFF791FE2DE7AB4800886B
:10459000AB490988884205D1A8484088A84949887C
:1045A000884213D081483638C08BA4490988884294
:1045B00006D17E483638008CA0494988884205D00B
:1045C00081480088401C804908800DE7FFF73CFEC9
:1045D0004FF6FF7188420CD07B480088401C7A4916
:1045E00008800846C089401CC88196A0FFF75EFE7F
:1045F000FAE66E483638C07D062800D162E06B4886
:104600003638C07D01280CD06F480088401C6E49A8
:1046100008800846008A401C08828FA0FFF746FEEB
:10462000E2E66948808A401C81B2674881825F481F
:10463000363890F8220008280ED06348408A401C83
:10464000614948820846008B401C81B25E48018364
:1046500088A0FFF72BFEC7E600215448363880F8C3
:104660002210808C4FF6F771884208DB4F483638AD
:10467000808C093081B24D483638818407E04B4840
:104680003638808C083081B248483638818400BF83
:1046900046483638418BC183818B018400BF00BFFF
:1046A00066480188414836384183644841883F481C
:1046B0003638818300BF4448C08A401C81B24248DA
:1046C000C182F4E34048808B401C81B23E48818324
:1046D00000F060FE4FF6FF7188420ED03A48408BE2
:1046E000401C394948830846008C401C81B236483A
:1046F000018466A0FFF7DAFD76E6694C1BE0607E78
:10470000C0B12A483638808CA188884212D1274807
:104710003638408CE18888420CD124483638408BAA
:104720002188884206D121483638808B61888842AA
:1047300000D144E228345B488442E0D91B48363833
:1047400090F82F0000F03F00022800D022E0174828
:104750003638808C544908800020544908700EE097
:1047600053485249097830F811004F490988884266
:1047700000D123E14D480078401C4C4908704B485B
:1047800000782828ECDB1048408D401C81B20E4890
:10479000418500BF0548363890F82F0000F004002E
:1047A00000B121E686E00000740000205261002084
:1047B0006400002068000020700000207A000020C3
:1047C0006C0000206E000020B077002069703A2055
:1047D000696E76616C69642076657273696F6E20AC
:1047E0006F7220686561646572206C656E677468BD
:1047F0002E00000069703A207061636B657420734D
:10480000686F72746572207468616E207265706F73
:104810007274656420696E20495020686561646522
:10482000722E000069703A20667261676D656E7461
:104830002064726F707065642E00000050000020CC
:10484000E853000869703A20626164206368656318
:104850006B73756D2E00000069703A206E65697487
:1048600068657220746370206E6F722069636D706A
:104870002E00000069636D703A206E6F74206963CA
:104880006D70206563686F2E000000007463703ADD
:104890002062616420636865636B73756D2E000030
:1048A000207100203877002086000020840000203E
:1048B00060770020FD48808C401C81B2FB488184D9
:1048C0001421FB4880F82F102820FA490880502135
:1048D000F74880F82E1090F82900F7490870F4483E
:1048E00090F82D1080F82910F3480178F04880F8EE
:1048F0002D1090F82800F0490870ED4890F82C1021
:1049000080F82810EC480178E94880F82C1090F8DD
:104910002700E9490870E64890F82B1080F8271026
:10492000E5480178E24880F82B1090F82600E2492B
:104930000870DF4890F82A1080F82610DE480178C9
:10494000DB4880F82A1090F82D00401CC1B2D848EE
:1049500080F82D10B1B990F82C00401CC1B2D44899
:1049600080F82C1071B990F82B00401CC1B2D048CF
:1049700080F82B1031B990F82A00401CC1B2CC4805
:1049800080F82A10CA48408CCC490880C848818CDD
:104990004184CA480188C648818400BF418BC183D5
:1049A000818B018400BF00BFC5480188C048418396
:1049B000C3484188BE48818300BFF5E3002400203E
:1049C000BD49087030E0BC48007800EB8000BD496C
:1049D00001EBC000407E30B9B748007800EB8000A2
:1049E00001EBC00424E0B448007800EB8000B54936
:1049F00001EBC000407E072811D14CB1AE480078D1
:104A000000EB800001EBC000807EA17E884206DDC5
:104A1000A948007800EB8000AA4901EBC004A64831
:104A20000078401CA4490870A34800782828CADBF5
:104A300000BF4CB99D48008D401C81B29B48018548
:104A4000A1A0FFF733FCCFE4A84804600320A076C0
:104A500020760020A0750420E0750020E0769448C0
:104A6000808CA0809248408CE08000BF9048408BB2
:104A700020808F48808B608000BF012060769C483A
:104A8000007820739A48417861738178A173C17866
:104A9000E17301202082864890F82910E17290F895
:104AA0002810A17290F82710617290F826002072E9
:104AB0000120FFF7E7F87E4890F82E0000F0F000A4
:104AC00050285ADD00207C4908704AE07A48007876
:104AD00036307749085C874908700846007800B985
:104AE0004AE084480078012805D173480078401CCA
:104AF0007149087035E07F480078022820D16E485F
:104B0000007837306A49085C042819D16A4800786F
:104B10003930095C684800783830654A105C41EAF1
:104B20000020664908800846008840F6CA7188421D
:104B300001DD084601E0614800886082A0821BE038
:104B40005D48007837305A49085C00B914E05A488B
:104B5000007837305649085C574909780844564967
:104B60000870534890F82E000521C1EB20105249DF
:104B70000978B1EB800FA9DB00BF00BF10214C48C2
:104B800080F82F1000BF4A4890F82F0040F0020133
:104B9000474880F82F10022180F83610042180F851
:104BA00037100F2180F83810CA2180F839102C20D6
:104BB0004049088060213E4880F82E1037E34B487A
:104BC000046000204C490870394890F82F0000F02C
:104BD000040060B10020607600E02FE247A0FFF7FC
:104BE00065FB202044490870FEF768FEA7E33048C3
:104BF00090F82E00001180002F4908702D48008881
:104C00000978401A14382B490880607E00F00F00A4
:104C1000022806D1264890F82F0000F03F00122805
:104C200022D024480088002805DC214890F82F0075
:104C300000F00300C0B11E4890F82600217A884297
:104C400011D11B4890F82710607A81420BD1184887
:104C500090F82810A07A814205D1154890F82910C3
:104C6000E07A814200D0D4E2114890F82F0000F0A1
:104C70001000D0B1208AC0B1218A04F10C00FEF7E7
:104C8000C9FF0B4890F82A00264900E0C6E20978DF
:104C900088420AD1064890F82B0022494978884278
:104CA0007ED1034840E00BE26CE179E0B077002070
:104CB0001C6100206C000020840000208600002081
:104CC00050000020207100207463703A20666F75D8
:104CD0006E64206E6F20756E7573656420636F6EF1
:104CE0006E656374696F6E732E000000740000209F
:104CF0007A00002085000020700000207463703A64
:104D000020676F742072657365742C2061626F7206
:104D100074696E6720636F6E6E656374696F6E2E63
:104D2000000000008000002090F82C00FC498978E9
:104D3000884235D1FB4890F82D00F949C97888425E
:104D40002ED1F74800782073F54841786173817857
:104D5000A173C178E173E07ED8B9217EA27E891A61
:104D600048B2A17DA0EBE10148B2A17D0144A1754B
:104D7000002801DA414248B2E17DA0EBA10148B22E
:104D8000E17D0144E175E17DA27D01EBE201217647
:104D900000BF0120E4490870207EA0760020208218
:104DA000607E00F00F0009286BD2DFE800F06A0592
:104DB00025C0F4F3F2F1F000DB48007800F00100C8
:104DC000C8B1032060764020D749087000202082B7
:104DD000D6480088002808DD0846007840F0020028
:104DE0000870D2480088FEF74DFF0020D0490880A7
:104DF000FEF764FD22E1A2E2CB48007800F001005A
:104E0000F0B3C84890F82F0000F03F00122837D1C7
:104E1000C44890F82E0000F0F00050285EDD00201D
:104E2000C44908704EE0C34800783630BD49085C7C
:104E3000C14908700846007800B94EE0BE480078C5
:104E4000012805D1BB480078401CBA49087039E0F8
:104E5000B9480078022823D1B64800783730B149E4
:104E6000085C04281CD1B34800783930095CB1488B
:104E700000783830AB4A105C41EA0020AF4901E0CD
:104E80004BE0C4E108800846008840F6CA718842B9
:104E900001DD084601E0A94800886082A0821CE08C
:104EA000A448007837309F49085C08B915E03DE216
:104EB000A048007837309B49085C9E49097808442F
:104EC0009C490870974890F82E000521C1EB2010EE
:104ED00098490978B1EB800FA5DB00BF032060760D
:104EE000904890F8260020728E4890F82710617242
:104EF00090F82810A17290F82910E1720120FEF7B5
:104F0000C1FE42208849087000202082874908801D
:104F100087490880FEF7D2FC90E020208249087083
:104F2000FEF7CCFC002086490968487632E47D48CB
:104F300090F82F0000F0010070B3607E00F01000C8
:104F400050BB208A00B1FAE178490988491C88B22F
:104F5000FEF798FE7448007840F01000724908701F
:104F600072480088002804DD0846007840F00200FE
:104F70000870FEF7A3FC0120208208206076002044
:104F8000E07600BF1121674880F82F1046E1B9E0B4
:104F900032E132E10FE1D9E0FFE7624890F82F00FB
:104FA00000F02000B8B15F4890F8351090F8340058
:104FB00041EA002063490968084462490860594889
:104FC00090F8351090F8340041EA002057490988DC
:104FD000081A564908805548008800280DDD607E73
:104FE00000F0100048B95048007840F002004E49E7
:104FF00008704E480088FEF745FE4A4890F8311088
:1050000090F8300001EB00204C490880A08A098804
:10501000884202DB4948008810B9A08A47490880C5
:105020004648008860824048007800F00300E8B3FA
:1050300000203F490880FEF741FC00BF3A48007855
:1050400000F0200040B1002039490880607614212A
:10505000344880F82F10E1E03348007800F0100069
:1050600068B1002032490880012020820420607647
:105070000020E07611212B4880F82F10CEE02C483C
:105080000088002819DD2848007800F0010008B1E8
:1050900000202082208A68B9608A254909888842D0
:1050A00002DA608A22490880214800E029E000886D
:1050B000208202E0208A1E4908800020E07600BF9E
:1050C000214800681F4908601948008800280BDD46
:1050D000208A002808DD208A2830144908801821F9
:1050E000104880F82F109DE00F48007800F0020073
:1050F00038B128200D49088010210A4880F82F1067
:1051000090E01CE10848007800F0010030B1002078
:105110006076102004490870FEF7D0FB77E00000AD
:10512000800000201C610020700000206C00002026
:105130006E000020840000208500002086000020F2
:105140007400002064000020680000207F48008870
:10515000002803DD7D480088FEF794FD7C4890F828
:105160002F0000F00100A8B17A48007800F001009B
:1051700028B1072060760020A076208201E006207A
:1051800060760120FEF77EFD102072490870FEF760
:1051900095FB3EE06F48007800F0010028B1052043
:1051A000607600202082CAE083E0684800880028FA
:1051B00000DD2EE0C3E065480088002803DD634879
:1051C0000088FEF75FFD624890F82F0000F00100B4
:1051D00060B1072060760020A0760120FEF752FD26
:1051E00010205C490870FEF769FB12E05748008800
:1051F000002800DD0DE0A2E00BE05648007800F04A
:10520000010018B1072060760020A07600BF00BF23
:1052100095E010214E4880F82F1000BF28204B4900
:10522000088000BF50214A4880F82E1000BF217A24
:10523000474880F82A10617A80F82B10A17A80F80C
:105240002C10E17A80F82D10217B80F82610617BEC
:1052500080F82710A17B80F82810E17B80F82910C6
:105260000621C175A1884184E188818400BF3A4844
:10527000018837484183384841883548818300BFD9
:1052800000BF2188C1836188018400BF607E00F077
:10529000100030B100212E4880F8311080F8301015
:1052A00006E00F212A4880F83010CA2180F831101A
:1052B00000BF4021264881752448008801122448F7
:1052C00001742248017822484174002180F8351089
:1052D00080F83410418600F05DF8C04381B21C486C
:1052E000418645201A49887300211948C1734175C8
:1052F00001751A480088401C184908800846008833
:10530000011213488174154801781148C1740021B5
:105310000183FEF799FFC04381B20D480183104815
:10532000C08B401C81B20E48C18300BF0C488088EE
:10533000401C0B49888000200649087070BD002081
:10534000024908800349087000BFF7E76C0000209D
:105350001C61002070000020500000207800002018
:10536000B077002070B504460D46002D0CDD0749CE
:105370000D8007480068844206D00846028821460E
:1053800003480068FAF7F0FE70BD00006E000020D0
:105390006800002010B5062000F002F810BD0000E3
:1053A00070B504460F48417C007C01EB00201438A6
:1053B00085B2281986B208220A491A313046FBF70D
:1053C00062FF06462A46074922313046FBF75BFF5B
:1053D000064616B94FF6FF7070BD3046FCF7CCFD9F
:1053E000FAE700001C61002000000000FFFFFFFF43
:1053F000FFFFFFFFFFFF0000FC6A000869180008BC
:10540000EC6A0008713B0008086B0008512A00088C
:10541000434C4F5345440053594E2D52435644007C
:1054200053594E2D53454E540045535441424C4917
:10543000534845440046494E2D574149542D3100AB
:1054400046494E2D574149542D3200434C4F534944
:105450004E470054494D452D57414954004C415346
:10546000542D41434B0000002F70726F63657373BE
:1054700065732E7368746D6C0025213A202F686562
:10548000616465722E68746D6C0A3C68313E5379B4
:105490007374656D2070726F6365737365733C2FF1
:1054A00068313E3C62723E3C7461626C6520776993
:1054B0006474683D2231303025223E0A3C74723ECD
:1054C0003C74683E49443C2F74683E3C74683E4ED0
:1054D000616D653C2F74683E3C74683E5072696F24
:1054E000726974793C2F74683E3C74683E506F6CEE
:1054F0006C2068616E646C65723C2F74683E3C740D
:10550000683E4576656E742068616E646C65723CB9
:105510002F74683E3C74683E50726F63737461749C
:10552000653C2F74683E3C2F74723E0A2521207022
:10553000726F6365737365730A25213A202F666F56
:105540006F7465722E68746D6C002F3430342E6861
:10555000746D6C003C68746D6C3E0A20203C626F78
:105560006479206267636F6C6F723D22776869743B
:1055700065223E0A202020203C63656E7465723EE1
:105580000A2020202020203C68313E343034202D59
:105590002066696C65206E6F7420666F756E643C62
:1055A0002F68313E0A2020202020203C68333E47CF
:1055B0006F203C6120687265663D222F223E68653F
:1055C00072653C2F613E20696E73746561642E3C88
:1055D0002F68333E0A202020203C2F63656E7465BF
:1055E000723E0A20203C2F626F64793E0A3C2F688D
:1055F000746D6C3E002F66696C65732E7368746DF4
:105600006C0025213A202F6865616465722E6874EC
:105610006D6C0A3C68313E46696C65207374617438
:105620006973746963733C2F68313E0A3C63656E2D
:105630007465723E0A3C7461626C652077696474BB
:10564000683D22333030223E0A3C74723E3C746422
:105650003E3C6120687265663D222F696E64657804
:105660002E68746D6C223E2F696E6465782E6874A6
:105670006D6C3C2F613E3C2F74643E0A3C74643E6A
:1056800025212066696C652D7374617473202F6900
:105690006E6465782E68746D6C0A3C2F74643E3CB1
:1056A00074643E3C696D67207372633D222F6661AE
:1056B00064652E706E6722206865696768743D3185
:1056C000302077696474683D25212066696C652DFA
:1056D0007374617473202F696E6465782E68746DBD
:1056E0006C0A3E203C2F74643E3C2F74723E0A3C90
:1056F00074723E3C74643E3C6120687265663D2273
:105700002F66696C65732E7368746D6C223E2F660C
:10571000696C65732E7368746D6C3C2F613E3C2F11
:1057200074643E0A3C74643E25212066696C652DD4
:105730007374617473202F66696C65732E7368745B
:105740006D6C0A3C2F74643E3C74643E3C696D672A
:10575000207372633D222F666164652E706E67222E
:10576000206865696768743D3130207769647468C2
:105770003D25212066696C652D7374617473202F3B
:1057800066696C65732E7368746D6C0A3E203C2FDD
:1057900074643E3C2F74723E0A3C74723E3C7464E6
:1057A0003E3C6120687265663D222F7463702E73E3
:1057B00068746D6C223E2F7463702E7368746D6C08
:1057C0003C2F613E3C2F74643E0A3C74643E2521AC
:1057D0002066696C652D7374617473202F74637017
:1057E0002E7368746D6C0A3C2F74643E3C74643E86
:1057F0003C696D67207372633D222F666164652E7C
:10580000706E6722206865696768743D3130207763
:10581000696474683D25212066696C652D73746127
:105820007473202F7463702E7368746D6C0A3E203D
:105830003C2F74643E3C2F74723E0A3C74723E3CB2
:1058400074643E3C6120687265663D222F7374610A
:1058500074732E7368746D6C223E2F73746174734D
:105860002E7368746D6C3C2F613E3C2F74643E0A4D
:105870003C74643E25212066696C652D73746174E7
:1058800073202F73746174732E7368746D6C0A3C8B
:105890002F74643E3C74643E3C696D672073726390
:1058A0003D222F666164652E706E672220686569EF
:1058B0006768743D31302077696474683D25212024
:1058C00066696C652D7374617473202F73746174D1
:1058D000732E7368746D6C0A3E203C2F74643E3CDA
:1058E0002F74723E0A3C74723E3C74643E3C6120EC
:1058F000687265663D222F7374796C652E637373CD
:10590000223E2F7374796C652E6373733C2F613E56
:105910003C2F74643E0A3C74643E25212066696C09
:10592000652D7374617473202F7374796C652E63A5
:1059300073730A3C2F74643E3C74643E3C696D672B
:10594000207372633D222F666164652E706E67223C
:10595000206865696768743D3130207769647468D0
:105960003D25212066696C652D7374617473202F49
:105970007374796C652E6373730A3E203C2F7464D4
:105980003E3C2F74723E0A3C74723E3C74643E3C52
:105990006120687265663D222F3430342E68746D44
:1059A0006C223E2F3430342E68746D6C3C2F613E77
:1059B0003C2F74643E0A3C74643E25212066696C69
:1059C000652D7374617473202F3430342E68746DB8
:1059D0006C0A3C2F74643E3C74643E3C696D6720E5
:1059E0007372633D222F666164652E706E6722209C
:1059F0006865696768743D31302077696474683D13
:105A000025212066696C652D7374617473202F34B1
:105A100030342E68746D6C0A3E203C2F74643E3C1A
:105A20002F74723E0A3C74723E3C74643E3C6120AA
:105A3000687265663D222F666164652E706E67220E
:105A40003E2F666164652E706E673C2F613E3C2F71
:105A500074643E0A3C74643E25212066696C652DA1
:105A60007374617473202F666164652E706E670AAB
:105A70003C2F74643E3C74643E3C696D67207372D5
:105A8000633D222F666164652E706E672220686513
:105A9000696768743D31302077696474683D2521F9
:105AA0002066696C652D7374617473202F66616460
:105AB000652E706E670A3E203C2F74643E3C2F7446
:105AC000723E0A3C2F7461626C653E0A3C2F63652E
:105AD0006E7465723E0A25213A202F666F6F7465D9
