:020000040800F2
:10000000E82800205D3E0008D5090008D70900084F
:10001000DB090008DF090008E30900080000000010
:10002000000000000000000000000000E7090008D8
:10003000E909000800000000EB090008ED090008CC
:10004000773E0008773E0008773E00081B34000822
:10005000773E0008773E0008773E0008773E0008AC
:10006000773E0008773E0008773E0008773E00089C
:10007000773E0008773E0008773E0008773E00088C
:10008000773E0008773E0008773E0008773E00087C
:10009000773E0008773E0008773E0008773E00086C
:1000A000773E0008773E0008773E0008773E00085C
:1000B000FF6E0008773E0008773E0008773E000894
:1000C000773E0008773E0008773E0008773E00083C
:1000D000773E0008D33D0008773E0008773E0008D1
:1000E000773E0008773E0008773E0008773E00081C
:1000F000773E0008773E0008773E0008773E00080C
:10010000773E0008773E0008773E0008773E0008FB
:10011000773E0008773E000869350008773E000802
:10012000773E0008773E0008773E0008773E0008DB
:1001300000F002F800F06FF80AA090E8000C82448A
:100140008344AAF10107DA4501D100F064F8AFF267
:10015000090EBAE80F0013F0010F18BFFB1A43F0A5
:100160000103184790DC0000B0DC000010F8013BF0
:100170000A4413F0030408BF10F8014B1D1108BF17
:1001800010F8015B641E05D010F8016B641E01F8C5
:10019000016BF9D1002D15D010F8014B03F00C03C1
:1001A0000C2BA1EB04040ABF10F8013BA4EB831451
:1001B000A4EB032405F1010314F8016B5B1E01F8A5
:1001C000016BF9D5914238BF10F8013BD1D370478C
:1001D0000023002400250026103A28BF78C1FBD850
:1001E000520728BF30C148BF0B60704764290AF02E
:1001F000D78275290AF0D48278290AF00D83632901
:100200000AF0B38573290AF0B885002070471FB53E
:100210001FBD10B510BD0AF046FE1146FFF7F7FFEF
:1002200000F009F90AF064FE03B4FFF7F2FF03BC23
:1002300003F074FD2DE9F04106460F4615460024F3
:1002400010E0281B401EC1B20A2002F058FEB6FB87
:10025000F0F00A21B0FBF1F201FB1200303038550A
:10026000601CC4B2AC42ECDBBDE8F0812DE9FE4F6E
:1002700004460A21102003F05BF905460BF0C0FA92
:10028000029002980BF070FA07464FF06632F94B75
:100290000BF076F805460AF041FE029002980BF04A
:1002A00063FAF54AF54BCDE900010BF067F9074613
:1002B000F34AF44B0AF00CFF05460022F24B0AF019
:1002C0005FFE82460AF02AFE0290F04902980BF087
:1002D000ABFA05460BF074FA1FFA80F90A2099FB75
:1002E000F0F085B2022221462846FFF7A3FF2E2018
:1002F000A0700A2099FBF0F100FB11903030E07003
:1003000000202071BDE8FE8F10B5044602F04FFFBB
:100310002D202071E0712020A0723A20607300200F
:100320002074DB49888804222146FFF783FFD849DF
:1003300088790222611DFFF77DFFD549C879022225
:1003400004F10801FFF776FFD1490878022204F191
:100350000B01FFF76FFFCE494878022204F10E012E
:10036000FFF768FF10BD10B5CA48007858B90120E2
:10037000C84908703221C84807F0CAFC4FF47A71A6
:10038000C64807F0C5FC09F096F8C549088008463C
:100390000088002824DD4FF4006007F034FDC149D7
:1003A000898988420BD1012007F07CFEBC48008877
:1003B00000283FDD08F08DFF09F085F83AE040F6AF
:1003C000060007F020FDB7498989884232D108F03C
:1003D00014FFB348008800282CDD09F074F829E0E8
:1003E000AD4807F0A8FC28B3AB4807F099FC0024FF
:1003F00015E000BF04EB8400AB4901EBC000AB4942
:100400000860022007F04EFE00BFA54800880028C3
:1004100003DD08F05EFF09F056F8601CC4B2282C1A
:10042000E7DB9E4807F087FC20B19C4807F078FC8A
:1004300008F035FE10BD0EB50025FF26FF2703F09E
:10044000FDFB03F065FC4FF4165003F076FC00F062
:10045000BFFB00F049FF00F0E1FB02F07FFF03F07B
:1004600001F84FF478409249088092A010210B4681
:10047000C822CDE900100A213C2002F0F4FD91A031
:1004800010210B46C822CDE900101E213C2002F0AD
:10049000EAFD90A010210B46C822CDE900103221C0
:1004A0003C2002F0E0FD15E08EA010210B46C82292
:1004B000CDE9001046213C2002F0D5FDC82003F014
:1004C000FAFB4FF6FF705623F022462100903C20A5
:1004D00002F048FB08F0D8FF0028E5D107F0E0FC67
:1004E00086A010210B46C822CDE9001046213C20F1
:1004F00002F0B9FD87A010210B46C822CDE90010FB
:100500005A213C2002F0AFFD88A010210B46C822E2
:10051000CDE900106E213C2002F0A5FD87A010213E
:100520000B46C822CDE9001082213C2002F09BFD41
:1005300087A010210B46C822CDE9001096213C204F
:1005400002F091FD87A010210B46C822CDE90010D2
:1005500011461E2002F087FD84A010210B46C82200
:10056000CDE90010DC211E2002F07DFD7DA01021D0
:100570000B46C822CDE900104FF487711E2002F00F
:1005800072FD7AA010210B46C822CDE900104FF46D
:1005900091711E2002F067FD74A010210B46C82245
:1005A000CDE900104FF491711E2002F05CFD1F2078
:1005B0003F49088000BF4AF6C000ADF8080041F28C
:1005C0000100ADF80A0000BF00BFBDF8080069498E
:1005D0000880BDF80A00488000BF00BF4AF6C0008E
:1005E000ADF8080040F20110ADF80A0000BF00BFEE
:1005F000BDF8080060490880BDF80A00488000BFC7
:1006000000BF4FF6FF70ADF80800FF20ADF80A00FC
:1006100000BF00BFBDF8080058490880BDF80A00B7
:10062000488000BF4BF2040007F004FD4FF4A040E7
:1006300007F000FD08F086FF77E1FFF794FE002049
:1006400000F006FB04464E480078864210D04C4825
:10065000007800F0800050B14AA010210B46C8225B
:10066000CDE90010B4211E2002F0FDFCA0E095E0D1
:10067000C2E0000066664A3FE17A14AE47E1F63F09
:1006800022FDF675E09C713F0000394000002041DA
:10069000F2080020100000200000002008000020C8
:1006A000F4010020C4090020C8190020FC0100202A
:1006B0002A000020576172536869702053544D33EB
:1006C00032000000454E4332384A363020544553FC
:1006D0005400000041544F4D40414C49454E544553
:1006E0004B000000454E4332384A363020496E698F
:1006F00074204572726F7221000000004B45593022
:100700003A5365727665722053656E64204D736747
:10071000000000004B4559323A436C69656E742005
:1007200053656E64204D73670000000049503A31F4
:1007300039322E3136382E312E3136004D41534B61
:100740003A3235352E3235352E3235352E300000E1
:10075000474154455741593A3139322E3136382EB6
:10076000312E31005443502052583A005443502007
:1007700054583A00D8010020DC010020E00100209C
:10078000190200205443502053657276657220434D
:100790006F6E6E65637465642020200063A0102175
:1007A0000B46C822CDE90010B4211E2002F05BFCEC
:1007B0006448007800F04000E0B14FF6FF70D823A5
:1007C000F022C8210090562002F0CCF95E4810219A
:1007D0000B469A22CDE90010C821562002F043FCB6
:1007E00059495AA009F04EFF5648007820F04000C1
:1007F0005449087053480678012C24D15148007898
:1008000000F08000F8B12A4655A14F4809F046FF94
:100810004FF6FF70EC23F022DC210090562002F00E
:10082000A1F9494810210B469A22CDE90010DC219C
:10083000562002F018FC4348007840F0200041495F
:100840000870681CC5B24B480078874240D04948C0
:10085000007800F0800050B147A010210B46C8225C
:10086000CDE90010FA211E2002F0FDFB09E048A0AE
:1008700010210B46C822CDE90010FA211E2002F0FB
:10088000F2FB3C48007800F04000F8B14FF6FF70F2
:100890004FF48F73F0224FF487710090562002F0CE
:1008A00061F9414810210B469A22CDE900104FF41E
:1008B0008771562002F0D7FB3B493CA009F0E2FECD
:1008C0002C48007820F040002A4908702948077811
:1008D000032C27D12748007800F0800010B32A4667
:1008E00037A1314809F0DAFE4FF6FF704FF49973E3
:1008F000F0224FF491710090562002F033F92A480B
:1009000010210B469A22CDE900104FF49171562028
:1009100002F0A9FB1748007840F020001549087044
:10092000681CC5B2012003F0C6F986E65443502086
:1009300053657276657220446973636F6E6E65638A
:100940007465640019020020AC210020544350203B
:100950005365727665722052583A25730D0A00006D
:1009600054435020536572766572204F4B202564A6
:100970000D0A00001802002054435020436C6965A2
:100980006E7420436F6E6E65637465642020200072
:1009900054435020436C69656E7420446973636FDF
:1009A0006E6E656374656400E4200020544350203B
:1009B000436C69656E742052583A25730D0A000025
:1009C00054435020436C69656E74204F4B2025645E
:1009D0000D0A0000704700BFFEE700BFFEE700BF42
:1009E000FEE700BFFEE770477047704770470000A2
:1009F0000CB50020019000906C48006840F48030F5
:100A00006A49086000BF6948006800F4003000903F
:100A10000198401C0190009818B90198B0F5A06F9A
:100A2000F1D16248006800F4003010B1012000905C
:100A300001E0002000900098012843D15C48006844
:100A400040F010005A4908600846006820F0030092
:100A500008600846006840F002000860534840689B
:100A6000524948600846406848600846406840F47B
:100A7000806048600846406820F47C104860084662
:100A8000406840F4E81048600846006840F0807014
:100A9000086000BF4548006800F000700028F9D0E9
:100AA0004248406820F003004049486008464068DA
:100AB00040F00200486000BF3C48406800F00C0075
:100AC0000828F9D10CBD10B5FFF792FF10BD10B585
:100AD0003648006840F00100344908600846406824
:100AE00034490840314948600846006832490840A6
:100AF0002E4908600846006820F4802008600846F7
:100B0000406820F4FE0048604FF41F008860FFF743
:100B1000DAFF4FF000602949086010BD10B50021D0
:100B200000200022214B5B6803F00C0121B1042955
:100B300006D0082928D107E0214B224C236027E06A
:100B40001F4B204C236023E0184B5B6803F47010AC
:100B5000164B5B6803F48032022303EB904022B90A
:100B6000194B4343174C23600DE0104B5B6803F4B3
:100B7000003323B1144B4343124C236003E0104B6A
:100B80004343104C236003E00D4B0E4C236000BF29
:100B900000BF064B5B68C3F303130C4CE15C094BCD
:100BA0001B68CB40074C236010BD000000100240C2
:100BB000002002400000FFF8FFFFF6FE08ED00E015
:100BC00000127A001400002000093D0018000020E7
:100BD00008B50121482004F0B9F82020ADF8000044
:100BE00010208DF8030003208DF8020069460948A3
:100BF00003F08AFD2021074803F033FE2020ADF8E2
:100C000000006946044803F07FFD2021024803F0FC
:100C100028FE08BD000C01400018014008B5012164
:100C2000442004F093F81C20ADF8000048208DF813
:100C300003006946354803F067FD0120ADF8000068
:100C400028208DF803006946314803F05DFD08BD9A
:100C500010B5044614B101202E4908702D480078C3
:100C6000002837D01021294803F0E1FD78B1082190
:100C7000264803F0DCFD50B10421244803F0D7FDE1
:100C800028B10121224803F0D2FD012822D10A20F7
:100C900003F011F800201F49087010211B4803F0D1
:100CA000C6FD08B9012010BD0821184803F0BFFD9A
:100CB00008B90220F7E70421144803F0B8FD08B989
:100CC0000320F0E70121124803F0B1FD01281BD1F8
:100CD0000420E8E710210D4803F0A9FD012813D1F5
:100CE00008210A4803F0A3FD01280DD1042107487B
:100CF00003F09DFD012807D10121054803F097FD70
:100D000010B90120034908700020CCE70018014009
:100D10000008014028000020F74908807047F64984
:100D2000891C08807047F448801C00887047F24A8C
:100D30001080921C1180704710B504462046FFF7C2
:100D4000EBFF052002F093FFFFF7EDFF10BDEB482E
:100D5000C079E94908807047E749891C08807047D5
:100D600030B5014601F01F04C1F34513CA0AE5027C
:100D700005EB43151544A8B230BD00BF011EA0F11C
:100D80000102D0B2FAD1704710B503460C46DB48D9
:100D9000808849F24131884205D0D848808846F69B
:100DA0000401884214D1D549087AFFF7B5FF18121B
:100DB000FFF7B5FFD8B2FFF7B2FFD049487AFFF787
:100DC000ABFF2012FFF7ABFFE0B2FFF7A8FF12E086
:100DD000CA488079012804D1C8480088401EC01A3A
:100DE00083B2C649087A1946FFF7A1FFC349487A7A
:100DF0002146FFF79CFF10BD2DE9F04105460E4648
:100E000000240027A046BD480088A84203DDBB4857
:100E10004088B04202DC0020BDE8F081314628461F
:100E2000FFF7B2FFB548808849F24131884205D0CA
:100E3000B248808846F60401884203D12E20FFF78D
:100E40006BFF02E02220FFF767FFAC48808849F281
:100E50002031884202D10220FFF78FFFA648801C74
:100E6000008800B100240220FFF787FFA248801C01
:100E70000488A248808849F2413188420CD102207E
:100E8000FFF77BFF9C48801CB0F80080E7B24FF66C
:100E9000FF7000EA072708E09848808846F60401BA
:100EA000884202D19448801C04889448808849F282
:100EB0002531884216D09148808844F235518842C5
:100EC00010D08E488088091F88420BD08B488088BC
:100ED00048F68911884205D0884880884BF2055130
:100EE000884201D1204697E78448808849F2413101
:100EF000884207D1E012C002B91240EA411040EA2C
:100F0000E82089E72046FFF72BFF85E700B57B48FF
:100F1000808849F24131884205D07848808846F679
:100F20000401884203D12920FFF7F6FE04E040F2D5
:100F300073110720FFF7FBFE00BD00B56F488088E6
:100F400049F24131884205D06C48808846F6040158
:100F5000884203D12820FFF7DFFE03E000210720AD
:100F6000FFF7E5FE00BD70B5044600230026634888
:100F7000807901281ED16148808846F604018842A4
:100F800018D0082C15D2DFE804F00406080A0C0E6D
:100F9000101206240DE007240BE0042409E00524C8
:100FA00007E0012405E0002403E0032401E002241B
:100FB00000BF00BF5148808849F24131884205D0C6
:100FC0004E48808846F6040188427CD1082C1CD209
:100FD000DFE804F00406090C0F12151800BF14E036
:100FE00043F0800311E043F040030EE043F0C00300
:100FF0000BE043F0200308E043F0600305E043F01A
:10100000A00302E043F0E00300BF00BF362643F038
:1010100008033A48808846F60401884201D143F02B
:10102000020319463046FFF782FE03F0200068B144
:101030003248008831494988884214DA2F480588A7
:1010400040882E490880084645800CE02B480088DF
:101050002A494988884206DD28480588408827496A
:101060000880084645802549087AFFF755FE00208C
:10107000FFF755FE0020FFF752FE20490988491E60
:10108000C1F30F20FFF74BFE1C490978491EC8B277
:10109000FFF745FE1949487AFFF73EFE0020FFF7AB
:1010A0003EFE0020FFF73BFE14494988491EC1F36C
:1010B0000F20FFF734FE11498978491EC8B2FFF7A7
:1010C0002EFE36E0FFE7082C20D2DFE804F004070C
:1010D0000A0D0F12191C43F0300317E043F0100300
:1010E00014E043F0200311E000BF0FE043F03803A9
:1010F0000CE043F0280309E0FE07006CE80800203C
:1011000043F0180302E043F0080300BF00BFFE48AD
:10111000808848F68911884204D1112646F24000A1
:10112000034302E0032643F4805319463046FFF799
:10113000FEFD70BD30B504460D4629462046FFF73A
:1011400023FEFFF704FEF1480088F149088030BD16
:1011500030B503460C461546EB48808849F24131CC
:10116000884205D0E848808846F60401884214D1B8
:10117000E549087AFFF7D0FD1812FFF7D0FDD8B285
:10118000FFF7CDFDE049487AFFF7C6FD2012FFF7D3
:10119000C6FDE0B2FFF7C3FD12E0DB48807901280D
:1011A00004D1D9480088401EC01A83B2D649087AB3
:1011B0001946FFF7BCFDD449487A2146FFF7B7FD31
:1011C000D148C079D249891E0880881C058030BD6D
:1011D00010B50446002C3DD1CB498871F020088021
:1011E0004FF4A07048800846808849F24131884217
:1011F00005D0C548808846F60401884214D12C20C9
:10120000C149C8712A2008722B204872084680887C
:1012100046F6040188424ED14FF4A070BA490880C6
:101220004FF4F070488046E0B748808848F689114E
:10123000884207D12220B449C8714E2008724F203D
:10124000487238E02220B049C8712020087221205D
:10125000487230E0AC48808846F6040188422AD0C3
:101260000120A94988714FF4A0700880F0204880BF
:101270000846808849F24131884207D12C20A24992
:10128000C8712A2008722B20487214E09E4880887A
:1012900048F68911884207D122209B49C8714F2006
:1012A00008724E20487206E022209749C87121201A
:1012B0000872202048720020FFF755FE10BD70B55F
:1012C000044600269048058840884543002108468A
:1012D000FFF75AFDFFF73BFD00BF02E08C4804809A
:1012E000761CAE42FAD370BD00B59FB00121080252
:1012F00003F01FFD012140F2691003F027FD0120DA
:10130000ADF8780010208DF87B0003208DF87A006E
:101310001EA9804803F0F8F94CF23370ADF878005C
:1013200018208DF87B0003208DF87A001EA97A48DA
:1013300003F0EAF94FF68070ADF8780018208DF8C8
:101340007B0003208DF87A001EA9744803F0DCF9B5
:1013500041F20100ADF8780018208DF87B000320E1
:101360008DF87A001EA96E4803F0CEF9012008908E
:10137000002009900F200A9000200B900C900D90F7
:101380000E9001900290032003900020049005909D
:101390000690079006200F900020109011901020CA
:1013A00012900020139015901490169017904FF4FF
:1013B00080501890002019904FF480401A9000201F
:1013C0001B9008A81C9001A81D900FA802F082FE97
:1013D0000121062002F0E6FF322002F06CFC012120
:1013E0000020FFF7A4FC322002F065FC0020FFF78C
:1013F000A3FC4549888008468088FF280ADB084608
:1014000080884FF6FF71884204D03F488088B0F54D
:10141000134F4BD1D320FFF77FFCFFF784FCFFF77E
:1014200082FCFFF780FC38498880084680884FF6A8
:10143000FF7101EA002034498880FFF774FC3249CB
:1014400089880843304988800846808849F24131BC
:1014500088421BD0BF20FFF75FFCFFF764FCFFF75B
:1014600062FCFFF760FCFFF75EFC274988800846B6
:1014700080884FF6FF7101EA002023498880FFF73A
:1014800052FC2149898808431F4988801E4880886A
:1014900049F24131884209D01B48808846F6040150
:1014A000884203D049F24130174988801648818824
:1014B0001CA009F0E7F81448808849F241318842BD
:1014C0007ED1CF20FFF728FC0020FFF728FCC120A9
:1014D000FFF725FC3020FFF722FCED20FFF71CFC76
:1014E0006420FFF71CFC0320FFF719FC1220FFF714
:1014F00016FC8120FFF713FCE820FFF70DFC852088
:10150000FFF70DFC102015E0E80800202A0000205D
:101510000008006C000C014000140140001801405C
:1015200000200140204C43442049443A25780D0ACC
:1015300000000000FFF7F3FB7A20FFF7F0FBCB2061
:10154000FFF7EAFB3920FFF7EAFB2C20FFF7E7FB68
:101550000020FFF7E4FB3420FFF7E1FB0220FFF758
:10156000DEFBF720FFF7D8FB2020FFF7D8FBEA20AF
:10157000FFF7D2FB0020FFF7D2FB0020FFF7CFFBE5
:10158000C020FFF7C9FB1B20FFF7C9FBC120FFF7F5
:10159000C3FB0120FFF7C3FBC520FFF7BDFB3020D5
:1015A000FFF7BDFB3020FFF7BAFBC720FFF7B4FB06
:1015B000B720FFF7B4FB3620FFF7AEFB482000E072
:1015C000AEE0FFF7ACFB3A20FFF7A6FB5520FFF794
:1015D000A6FBB120FFF7A0FB0020FFF7A0FB1A201D
:1015E000FFF79DFBB620FFF797FB0A20FFF797FB5D
:1015F000A220FFF794FBF220FFF78EFB0020FFF7FD
:101600008EFB2620FFF788FB0120FFF788FBE020F8
:10161000FFF782FB0F20FFF782FB2A20FFF77FFBFB
:101620002820FFF77CFB0820FFF779FB0E20FFF74F
:1016300076FB0820FFF773FB5420FFF770FBA9200F
:10164000FFF76DFB4320FFF76AFB0A20FFF767FBFC
:101650000F20FFF764FB0020FFF761FB0020FFF77E
:101660005EFB0020FFF75BFB0020FFF758FBE1204B
:10167000FFF752FB0020FFF752FB1520FFF74FFB4F
:101680001720FFF74CFB0720FFF749FB1120FFF75E
:1016900046FB0620FFF743FB2B20FFF740FB5620BD
:1016A000FFF73DFB3C20FFF73AFB0520FFF737FB38
:1016B0001020FFF734FB0F20FFF731FB3F20FFF72F
:1016C0002EFB3F20FFF72BFB0F20FFF728FB2B20E3
:1016D000FFF722FB0020FFF722FB0020FFF71FFB94
:1016E0000120FFF71CFB3F20FFF719FB2A20FFF723
:1016F00013FB0020FFF713FB0020FFF710FB002077
:10170000FFF70DFBEF20FFF70AFB1120FFF704FBAB
:10171000782002F0D0FA2920FFF7FEFA01F016BA7D
:10172000FE48808846F6040188427CD11120FFF7EC
:10173000F3FA142002F0BFFAD020FFF7EDFA0720E9
:10174000FFF7EDFA4220FFF7EAFA1D20FFF7E7FA6C
:10175000D120FFF7E1FA0020FFF7E1FA1A20FFF7A6
:10176000DEFA0920FFF7DBFAD220FFF7D5FA0120D5
:10177000FFF7D5FA2220FFF7D2FAC020FFF7CCFA04
:101780001020FFF7CCFA3B20FFF7C9FA0020FFF743
:10179000C6FA0220FFF7C3FA1120FFF7C0FAC520EE
:1017A000FFF7BAFA0320FFF7BAFAC820FFF7B4FA36
:1017B0000020FFF7B4FA2520FFF7B1FA2120FFF748
:1017C000AEFA0520FFF7ABFA0020FFF7A8FA0A20CF
:1017D000FFF7A5FA6520FFF7A2FA2520FFF79FFA89
:1017E0007720FFF79CFA5020FFF799FA0F20FFF7B8
:1017F00096FA0020FFF793FAF820FFF78DFA012000
:10180000FFF78DFAFE20FFF787FA0020FFF787FA2F
:101810000220FFF784FA2020FFF77EFA3620FFF738
:101820007BFA082000E02CE0FFF779FA3A20FFF776
:1018300073FA5520FFF773FA2B20FFF76DFA00209B
:10184000FFF76DFA0020FFF76AFA0120FFF767FA49
:101850003F20FFF764FA2A20FFF75EFA0020FFF727
:101860005EFA0020FFF75BFA0120FFF758FADF204D
:10187000FFF755FA782002F01EFA2920FFF74CFAFC
:101880004CE7A648808849F2253188427ED147F648
:10189000F001E520FFF74BFA4FF480710120FFF7CC
:1018A00046FA4FF4E0610220FFF741FA41F23001BD
:1018B0000320FFF73CFA00210420FFF738FA40F23A
:1018C00002210820FFF733FA00210920FFF72FFA41
:1018D00000210A20FFF72BFA00210C20FFF727FA3E
:1018E00000210D20FFF723FA00210F20FFF71FFA38
:1018F00000211020FFF71BFA07211120FFF717FA2C
:1019000000211220FFF713FA00211320FFF70FFA2E
:1019100000210720FFF70BFA41F290611020FFF73A
:1019200006FA40F227211120FFF701FA9D2112202B
:10193000FFF7FDF94FF4C8511320FFF7F8F92521FF
:101940002920FFF7F4F90D212B20FFF7F0F90721EB
:101950003020FFF7ECF940F203313120FFF7E7F9CF
:1019600003213220FFF7E3F940F206213520FFF78B
:10197000DEF908213620FFF7DAF940F20641372078
:10198000FFF7D5F94FF44171382000E057E0FFF739
:10199000CEF907213920FFF7CAF940F202613C2055
:1019A000FFF7C5F908213D20FFF7C1F900215020BC
:1019B000FFF7BDF9EF215120FFF7B9F900215220BF
:1019C000FFF7B5F940F23F115320FFF7B0F94FF49C
:1019D00027416020FFF7ABF901216120FFF7A7F94C
:1019E00000216A20FFF7A3F900218020FFF79FF96B
:1019F00000218120FFF79BF900218220FFF797F952
:101A000000218320FFF793F900218420FFF78FF94D
:101A100000218520FFF78BF910219020FFF787F92F
:101A20004FF4C0619220FFF782F940F23311072092
:101A3000FFF77DF922210020FFF779F96EE637489C
:101A4000808849F2283188426AD141F28F01EC2026
:101A5000FFF76DF941F23421EF20FFF768F94FF4F9
:101A600080710120FFF763F94FF4E0610220FFF776
:101A70005EF941F230010320FFF759F900210420FB
:101A8000FFF755F940F202210820FFF750F9002135
:101A90000920FFF74CF900210A20FFF748F901213E
:101AA0000C20FFF744F900210D20FFF740F9002139
:101AB0000F20FFF73CF900211020FFF738F907212C
:101AC0001120FFF734F900211220FFF730F900212F
:101AD0001320FFF72CF901210720FFF728F9322006
:101AE00002F0E9F841F290411020FFF720F940F2AE
:101AF00027211120FFF71BF9322002F0DCF88A21A0
:101B00001220FFF714F9322002F0D5F84FF4D0512B
:101B10001320FFF70CF90621292002E0E808002035
:101B20008AE0FFF704F90D212B20FFF700F932209E
:101B300002F0C1F800212020FFF7F9F80021212050
:101B4000FFF7F5F8322002F0B6F800213020FFF759
:101B5000EEF840F204613120FFF7E9F840F2053178
:101B60003220FFF7E4F800213520FFF7E0F840F6D7
:101B700009413620FFF7DBF84FF401713720FFF7FA
:101B8000D6F840F201313820FFF7D1F840F2077162
:101B90003920FFF7CCF800213C20FFF7C8F840F6C9
:101BA0000A213D20FFF7C3F8322002F084F800211B
:101BB0005020FFF7BCF8EF215120FFF7B8F80021C3
:101BC0005220FFF7B4F840F23F115320FFF7AFF86F
:101BD0004FF427416020FFF7AAF801216120FFF7A9
:101BE000A6F800216A20FFF7A2F800218020FFF765
:101BF0009EF800218120FFF79AF800218220FFF74C
:101C000096F800218320FFF792F800218420FFF747
:101C10008EF800218520FFF78AF810219020FFF729
:101C200086F84FF4C0619220FFF781F840F233113B
:101C30000720FFF77CF871E5FE48808849F22031E3
:101C400088427DD100210846FFF771F84FF480717A
:101C50000120FFF76CF84FF4E0610220FFF767F80E
:101C600041F230010320FFF762F800210420FFF762
:101C70005EF840F202210820FFF759F80021092000
:101C8000FFF755F800210A20FFF751F801210C2039
:101C9000FFF74DF800210D20FFF749F800210F2034
:101CA000FFF745F8322002F006F840F20111072054
:101CB000FFF73DF8322001F0FEFF4FF4865110206F
:101CC000FFF735F807211120FFF731F84FF488713D
:101CD0001220FFF72CF84FF430611320FFF727F89C
:101CE00000212920FFF723F844F210012B20FFF7F1
:101CF0001EF800215020FFF71AF8EF215120FFF7BE
:101D000016F800215220FFF712F840F23F1153203D
:101D1000FFF70DF84FF41C516020FFF708F8012180
:101D20006120FFF704F800216A20FFF700F8002186
:101D30008020FEF7FCFF00218120FEF7F8FF00E085
:101D40002EE000218220FEF7F2FF00218320FEF723
:101D5000EEFF00218420FEF7EAFF00218520FEF738
:101D6000E6FF10219020FEF7E2FF00219220FEF70F
:101D7000DEFF01219320FEF7DAFF4FF488719520F2
:101D8000FEF7D5FF00219720FEF7D1FF0021982014
:101D9000FEF7CDFF40F273110720FEF7C8FFBDE448
:101DA000A448808849F2313188427DD141F2140142
:101DB000E720FEF7BCFF4FF480710120FEF7B7FF6C
:101DC0004FF400710220FEF7B2FF41F23801032008
:101DD000FEF7ADFF40F202210820FEF7A8FF002128
:101DE0000920FEF7A4FF00210A20FEF7A0FF002132
:101DF0000C20FEF79CFF00210D20FEF798FF00212C
:101E00000F20FEF794FF00211020FEF790FF07211E
:101E10001120FEF78CFF00211220FEF788FF002121
:101E20001320FEF784FFC82001F045FF41F29061C6
:101E30001020FEF77CFF40F227211120FEF777FFEC
:101E4000322001F038FF0C211220FEF770FF322003
:101E500001F031FF4FF400611320FEF768FF1121FC
:101E60002920FEF764FF0B212B20FEF760FF3220B4
:101E700001F021FF00212020FEF759FF40F23F1121
:101E80002120FEF754FF00213020FEF750FF4FF4D1
:101E900083713120FEF74BFF00213220FEF747FF10
:101EA0004FF40171352000E064E0FEF740FF41F29D
:101EB0000A613620FEF73BFF40F207713720FEF73C
:101EC00036FF4FF483713820FEF731FF40F207717F
:101ED0003920FEF72CFF40F202413C20FEF727FF9D
:101EE00040F60F413D20FEF722FF00215020FEF773
:101EF0001EFFEF215120FEF71AFF00215220FEF7AE
:101F000016FF40F23F115320FEF711FF4FF41C5112
:101F10006020FEF70CFF01216120FEF708FF002181
:101F20006A20FEF704FF00218020FEF700FF002159
:101F30008120FEF7FCFE00218220FEF7F8FE002142
:101F40008320FEF7F4FE00218420FEF7F0FE00213E
:101F50008520FEF7ECFE10219020FEF7E8FE4FF4FE
:101F6000C0619220FEF7E3FE40F233110720FEF736
:101F7000DEFE85E42F48808845F2084188427DD105
:101F80004FF480710120FEF7D2FE4FF4E061022091
:101F9000FEF7CDFE41F230010320FEF7C8FE00211E
:101FA0000420FEF7C4FE40F207210820FEF7BFFE22
:101FB00000210920FEF7BBFE00210A20FEF7B7FE34
:101FC00000210C20FEF7B3FE00210D20FEF7AFFE2E
:101FD00000210F20FEF7ABFE142001F06CFE41F251
:101FE000B0611020FEF7A3FE01211120FEF79FFE35
:101FF00001211720FEF79BFE4FF49C711220FEF783
:1020000096FE4FF400611320FEF791FE092129206E
:10201000FEF78DFE09212A20FEF789FE0021A4206B
:10202000FEF785FE00215020FEF781FEEF215120B2
:1020300002E00000E8080020FEF779FE00215220AF
:10204000FEF775FE40F23F115320FEF770FE4FF48D
:102050001C516020FEF76BFE01216120FEF767FE38
:1020600000216A20FEF763FE00218020FEF75FFE5C
:1020700000218120FEF75BFE002100E028E08220A5
:10208000FEF755FE00218320FEF751FE002184203B
:10209000FEF74DFE00218520FEF749FE132190201A
:1020A000FEF745FE00219220FEF741FE032193201A
:1020B000FEF73DFE4FF488719520FEF738FE40F2A2
:1020C00073110720FEF733FE322001F0F4FDB5E472
:1020D000FE48808841F2055188427DD100210720C9
:1020E000FEF725FE322001F0E6FD4FF48E7112203E
:1020F000FEF71DFE0121A420FEF719FE0F21082086
:10210000FEF715FE08210A20FEF711FE08210D201A
:10211000FEF70DFE40F207713020FEF708FE0721A2
:102120003120FEF704FE40F203613220FEF7FFFD8E
:102130004FF4E0613320FEF7FAFD40F20221342033
:10214000FEF7F5FD02213520FEF7F1FD41F60F7196
:102150003620FEF7ECFD40F207713720FEF7E7FD71
:1021600000213820FEF7E3FD00213920FEF7DFFDD6
:1021700040F207713A20FEF7DAFD00213B20FEF71E
:10218000D6FD07213C20FEF7D2FD00213D20FEF7C1
:10219000CEFD322001F08FFD01210720FEF7C7FDA3
:1021A00001211720FEF7C3FD322001F084FD4FF41A
:1021B000BD511020FEF7BBFD40F217211120FEF7A4
:1021C000B6FD4FF48F711220FEF7B1FD4FF4706130
:1021D0001320FEF7ACFD00E095E000212A20FEF779
:1021E000A6FD0A212920FEF7A2FD4FF49F711220BF
:1021F000FEF79DFD00215020FEF799FDEF215120B3
:10220000FEF795FD00215220FEF791FD40F23F11AF
:102210005320FEF78CFD4FF41C516020FEF787FD24
:1022200001216120FEF783FD00216A20FEF77FFD7A
:1022300000218020FEF77BFD00218120FEF777FD45
:1022400000218220FEF773FD00218320FEF76FFD41
:1022500000218420FEF76BFD00218520FEF767FD3D
:1022600013219020FEF763FD4FF440719220FEF79A
:102270005EFD05219320FEF75AFD00219520FEF713
:1022800056FD00219720FEF752FD00219820FEF711
:102290004EFD4FF480710120FEF749FD4FF4E061DF
:1022A0000220FEF744FD41F238010320FEF73FFD16
:1022B00000210420FEF73BFD00210C20FEF737FD36
:1022C00000210F20FEF733FD00212020FEF72FFD17
:1022D00000212120FEF72BFD21210720FEF727FDFD
:1022E000142001F0E8FC61210720FEF720FD1420F6
:1022F00001F0E1FC40F273110720FEF718FD1420F5
:1023000001F0D9FC97E4714880884BF2055188426E
:102310007ED100210846FEF70AFD00210846FEF79F
:1023200006FD00210846FEF702FD00210846FEF7E3
:10233000FEFC0121A420FEF7FAFC142001F0BBFCF6
:102340004FF41C516020FEF7F2FC40F202210820FD
:10235000FEF7EDFC4FF405713020FEF7E8FC43F288
:1023600015713120FEF7E3FC40F204613220FEF7E4
:10237000DEFC40F616613320FEF7D9FC42F2112153
:102380003420FEF7D4FC4FF4A8513520FEF7CFFCE3
:1023900048F207513620FEF7CAFC41F207413720C8
:1023A000FEF7C5FC41F203413820FEF7C0FC2021B6
:1023B0003920FEF7BCFC1A219020FEF7B8FC002162
:1023C0001020FEF7B4FC07211120FEF7B0FC00211D
:1023D0001220FEF7ACFC00211320FEF7A8FC14200D
:1023E00001F069FC4FF4E6611020FEF7A0FC40F21A
:1023F00037111120FEF79BFC142001F05CFC4FF418
:10240000DC711220FEF793FC142001F054FC00E074
:1024100087E04FF470611320FEF789FC80212A20A9
:10242000FEF785FC48212920FEF781FC142001F0ED
:1024300042FC4FF480710120FEF779FC4FF4E0611B
:102440000220FEF774FC41F238010320FEF76FFC16
:1024500040F202210820FEF76AFC00210A20FEF764
:1024600066FC00210C20FEF762FC00210D20FEF727
:102470005EFC30210E20FEF75AFC00215020FEF7B2
:1024800056FCEF215120FEF752FC00215220FEF7AE
:102490004EFC40F23F115320FEF749FC4FF41C5113
:1024A0006020FEF744FC01216120FEF740FC002182
:1024B0006A20FEF73CFC11219020FEF738FC4FF417
:1024C000C0619220FEF733FC02E00000E808002023
:1024D00040F202419320FEF72AFC02219420FEF7ED
:1024E00026FC142001F0E7FB01210720FEF71FFC6A
:1024F000142001F0E0FB61210720FEF718FC40F2F8
:1025000073110720FEF713FC00212020FEF70FFCBB
:1025100000212120FEF70BFC22210020FEF707FC02
:1025200014E3FE4880884CF2055188427ED1002198
:102530000846FEF7FCFB00210846FEF7F8FB1420D6
:1025400001F0B9FB00210846FEF7F1FB0021084627
:10255000FEF7EDFB00210846FEF7E9FB00210846E7
:10256000FEF7E5FB0121A420FEF7E1FB142001F0BA
:10257000A2FB4FF41C516020FEF7D9FB40F6060188
:102580000820FEF7D4FB40F203713020FEF7CFFBAA
:1025900001213120FEF7CBFB04213220FEF7C7FBDF
:1025A0004FF481713320FEF7C2FB4FF440713420A9
:1025B000FEF7BDFB40F203113520FEF7B8FB1F21EB
:1025C0003620FEF7B4FB40F203713720FEF7AFFB75
:1025D00001213820FEF7ABFB04213920FEF7A7FBD1
:1025E00015219020FEF7A3FB4FF482611020FEF727
:1025F0009EFB40F247211120FEF799FB4FF4DE715C
:102600001220FEF794FB4FF460611320FEF78FFB5E
:10261000782001F050FB4FF480710120FEF787FB1A
:102620004FF400710220FEF782FB00E050E041F21F
:1026300030010320FEF77BFB08210A20FEF777FB21
:1026400000210C20FEF773FB20210E20FEF76FFB0C
:1026500000210F20FEF76BFB00212020FEF767FB17
:1026600000212120FEF763FB3D212A20FEF75FFBBE
:10267000142001F020FB2D212920FEF758FB00211A
:102680005020FEF754FB4DF2EF015120FEF74FFBB7
:1026900000215220FEF74BFB40F23F115320FEF782
:1026A00046FB00216120FEF742FB00216A20FEF775
:1026B0003EFB4FF440719220FEF739FB0521932039
:1026C000FEF735FB4FF480710720FEF730FB3DE24B
:1026D0009248808848F6891188427DD101210020E6
:1026E000FEF725FB4AF6A4010320FEF720FB00219C
:1026F0000C20FEF71CFB40F60C010D20FEF717FB2B
:102700004FF42C510E20FEF712FBB0211E20FEF7D5
:102710000EFB42F63F310120FEF709FB4FF4C0618A
:102720000220FEF704FB00211020FEF700FB46F21A
:1027300078011120FEF7FBFA00210520FEF7F7FAD9
:1027400000210620FEF7F3FA4EF61C711620FEF764
:10275000EEFA03211720FEF7EAFA40F233210720B0
:10276000FEF7E5FA00210B20FEF7E1FA00210F2029
:10277000FEF7DDFA00214120FEF7D9FA00214220C0
:10278000FEF7D5FA00214820FEF7D1FA40F23F11BA
:102790004920FEF7CCFA00214A20FEF7C8FA0021B2
:1027A0004B20FEF7C4FA4FF46F414420FEF7BFFA06
:1027B00000214520FEF7BBFA40F23F114620FEF70C
:1027C000B6FA40F207713020FEF7B1FA4FF401710A
:1027D0003120FEF7ACFA00E03DE04FF40171322009
:1027E000FEF7A5FA40F202513320FEF7A0FA40F2BC
:1027F00007513420FEF79BFA4FF401713520FEF7A4
:1028000096FA4FF401713620FEF791FA40F2025128
:102810003720FEF78CFA40F202313A20FEF787FAB1
:1028200040F202313B20FEF782FA00212320FEF71E
:102830007EFA00212420FEF77AFA4FF40041252089
:10284000FEF775FA00214F20FEF771FA00214E20A5
:10285000FEF76DFA7AE13148808844F231518842BE
:102860007DD101210020FEF762FA0A2001F023FA4F
:1028700041F228611020FEF75AFA0E211220FEF7CD
:1028800056FA40F639211320FEF751FA0A2001F0DA
:1028900012FA40211120FEF74AFA50211520FEF7C6
:1028A00046FA0A2001F007FA1E211220FEF73FFA2D
:1028B0000A2001F000FA4FF4B1511020FEF737FA68
:1028C00042F639211320FEF732FA0A2001F0F3F91B
:1028D0004FF480710120FEF72AFA4FF44071022074
:1028E000FEF725FA41F238010320FEF720FA40F204
:1028F00002210820FEF71BFA08210A20FEF717FA2A
:1029000000213020FEF713FA40F202413120FEF799
:102910000EFA4FF48371322002E00000E808002034
:10292000FEF705FA40F203513320FEF700FA4FF4A8
:1029300082713420FEF7FBF940F201313520FEF7B9
:10294000F6F940F207713620FEF7F1F940F2053151
:102950003720FEF7ECF94FF40271382000E040E038
:10296000FEF7E5F940F60B713920FEF7E0F9022198
:102970004120FEF7DCF94FF41C516020FEF7D7F937
:1029800001216120FEF7D3F94FF404719020FEF786
:10299000CEF94FF485719220FEF7C9F904219320F6
:1029A000FEF7C5F94FF48071A020FEF7C0F90121B0
:1029B0000720FEF7BCF921210720FEF7B8F92321F3
:1029C0000720FEF7B4F933210720FEF7B0F940F2F3
:1029D00033110720FEF7ABF90021A020FEF7A7F97D
:1029E000B4E0FB48808844F235518842F8D1302168
:1029F0001520FEF79CF910219A20FEF798F9202166
:102A00001120FEF794F943F228411020FEF78FF9C8
:102A100002211220FEF78BF941F238011320FEF754
:102A200086F9282001F047F912210846FEF77FF9C0
:102A3000282001F040F943F220411020FEF777F9F9
:102A400043F238011320FEF772F9462001F033F902
:102A500000213020FEF76BF940F202413120FEF7F1
:102A600066F940F207313220FEF761F94FF4417107
:102A70003320FEF75CF904213420FEF758F940F2C8
:102A800001413520FEF753F940F207713620FEF779
:102A90004EF940F205313720FEF749F94FF4C26193
:102AA0003820FEF744F94FF4C2613920FEF73FF9B0
:102AB0004FF480710120FEF73AF94FF44071022083
:102AC000FEF735F941F230010320FEF730F940F608
:102AD00008010820FEF72BF908210A20FEF727F944
:102AE0004FF41C516020FEF722F901216120FEF70E
:102AF0001EF94FF49F719020FEF719F94FF4807181
:102B00009220FEF714F94FF480719320FEF70FF92D
:102B10004FF44051A020FEF70AF91021A320FEF740
:102B200006F901210720FEF702F921210720FEF70F
:102B3000FEF823210720FEF7FAF833210720FEF7DD
:102B4000F6F840F233110720FEF7F1F80020FEF707
:102B50003FFB01209F4908604FF6FF70FEF7AFFB77
:102B60001FB000BD2DE9F04F05460E4617469846AA
:102B7000DDF824A04FF0000B781B401C1FFA80FBEF
:102B8000344613E021462846FEF7FEF8FEF7DFF84C
:102B90004FF0000906E05046FEF7C1F809F10100C8
:102BA0001FFA80F9D945F6DB601C84B24445E9DDA3
:102BB000BDE8F08F2DE9F84F07460D46904699463F
:102BC000DDF828B0A8EB0700401C80B20090A9EB0C
:102BD0000500401C1FFA80FA002415E0281981B274
:102BE0003846FEF7D1F8FEF7B2F8002607E004FBFE
:102BF0000A603BF8100078490880701C86B2009883
:102C00008642F4DB601C84B25445E7DBBDE8F88FF4
:102C10002DE9FF4F84B081468A4600200390029040
:102C20000698A0EB09050798A0EB0A06CDF80490DA
:102C3000CDF800A0002D01DD012705E00DB900272A
:102C400002E04FF0FF376D42002E02DD4FF0010829
:102C500006E016B94FF0000802E04FF0FF38764268
:102C6000B54201DD2C4600E034464FF0000B21E078
:102C7000009A91B2019A90B2FEF75CFA0398284448
:102C800003900298304402900398A04205DD039817
:102C9000001B03900198384401900298A04205DD82
:102CA0000298001B02900098404400900BF1010034
:102CB0001FFA80FB601C8345DADD08B0BDE8F08FA9
:102CC000F0B504460D4616461F462B4632462946A9
:102CD0002046FFF79DFF3B46224629462046FFF748
:102CE00097FF3B46324639462046FFF791FF3B4669
:102CF000324629463046FFF78BFFF0BD2DE9F04301
:102D000006460F469046002445460320A0EB48099E
:102D10003CE07A1B91B2321990B2FEF70BFA3A1BE3
:102D200091B2721990B2FEF705FA3A1991B272197E
:102D300090B2FEF7FFF97A1991B2321990B2FEF70C
:102D4000F9F97A1991B2321B90B2FEF7F3F93A19F8
:102D500091B2721B90B2FEF7EDF97A1B91B2321B61
:102D600090B2FEF7E7F93A1B91B2721B90B2FEF7F0
:102D7000E1F9641CB9F1000F03DAA000801D814461
:102D800004E0601B80000A3081446D1EAC42C0DD4F
:102D9000BDE8F0832DE9F84F05460F4690461E46E4
:102DA00000970E48B0F80090A8F1200000F0FF084E
:102DB0000A98002859D1002454E00C2E12D108EBB7
:102DC0004800074901EB800010F804A00FE0000064
:102DD000E8080020808121420008006C2A000020C1
:102DE000C0B90008B94800EB081010F804A04FF073
:102DF000000B31E00AF0800018B1B548A0F800904F
:102E000003E0B4480088B249088039462846FEF7F6
:102E100091F94FEA4A604FEA106A781C87B2AE48CF
:102E20000088A84204DCAA48A0F80090BDE8F88F0A
:102E30000098381AB0420BD1009F681C85B2A64892
:102E40000088A84203DCA248A0F80090EEE706E064
:102E50000BF1010000F0FF0BBBF1080FCADB00BF54
:102E6000601CC4B2B442A8DB44E0002440E00C2E55
:102E700007D108EB4800994901EB800010F804A045
:102E800004E0924800EB081010F804A04FF0000B8B
:102E900028E00AF0800018B139462846FEF74AF9C2
:102EA0004FEA4A604FEA106A781C87B28A48408825
:102EB000A84203DC8648A0F80090B7E70098381ACB
:102EC000B0420BD1009F681C85B283480088A8429D
:102ED00003DC7F48A0F80090A8E706E00BF10100B2
:102EE00000F0FF0BBBF1080FD3DB00BF601CC4B2C6
:102EF000B442BCDB7648A0F8009000BF96E710B55E
:102F00000246012000E050430B1EA1F10104E1B292
:102F1000F9D110BD2DE9FF4F81B0074691461E46FD
:102F20000E9D4FF0000A002439E0301B401EC1B254
:102F30000A20FFF7E4FFB9FBF0F00A21B0FBF1F241
:102F400001FB1208BAF1000F16D1701EA04213DD6A
:102F5000B8F1000F0ED10020AB4605EBDB71491034
:102F600001FB0471009088B22B4620220299FFF7E2
:102F700011FF12E04FF0010A0020AB4605EBDB71B8
:102F8000491001FB0471009088B208F13001CAB207
:102F90002B460299FFF7FEFE00BF601CC4B2B4428C
:102FA000C3DB05B0BDE8F08F2DE9FF4F82B00646C8
:102FB00092461F46DDE90F480020019000254DE0B4
:102FC000781B401EC1B20A20FFF799FFBAFBF0F050
:102FD0000A21B0FBF1F201FB1209019850BB781EE7
:102FE000A84227DDB9F1000F22D108F0800078B1A6
:102FF00008F00100A34604EBDB71491001FB0561F9
:10300000009088B2234630220399FFF7C3FE0EE0FA
:1030100008F00100A34604EBDB71491001FB0561D8
:10302000009088B2234620220399FFF7B3FE13E0F5
:103030000120019008F00100A34604EBDB71491068
:1030400001FB0561009088B209F13001CAB2234644
:103050000399FFF79FFE00BF681CC5B2BD42AFDBFE
:1030600006B0BDE8F08F2DE9F84704460D469046BE
:103070009946DDE9096704F0FF0A08EB04001FFA2E
:1030800080F809EB05001FFA80F916E0444502DBE1
:103090005446A81985B24D4500DB14E0002000908D
:1030A0003A78334629462046FFF774FE304606EB51
:1030B000D07104EB61018CB27F1C38787E2802DC71
:1030C00038782028E2DA00BFBDE8F88734BE00086F
:1030D0002A0000202C000020E8080020C0B90008C9
:1030E00008B503208DF8000000208DF801008DF850
:1030F000020001208DF80300684600F0D4FE08BDF0
:10310000F0B503460C461546642093FBF0F0C6B2BA
:10311000642093FBF0F700FB1730C1B2132E02DDE1
:1031200001F16400C1B20846CF1701EB977701EBBC
:10313000A707BAB2072092FBF0F700FB172082B274
:103140005719601EDFF8FCC21CF80000384482B238
:10315000CF1701EB9777BF10A1EB87071FB9032C9F
:1031600001DA501E82B2072092FBF0F700FB172015
:10317000C0B2F0BD0146CA1701EB92729210A1EBEA
:10318000820292B9642091FBF0F200FB121050B958
:103190004FF4C87091FBF0F200FB121008B9012047
:1031A00070470020FCE70120FAE70020F8E770B53F
:1031B000002600240025A44806883604001D008847
:1031C0000644A248B6FBF0F4A1480088A0423CD0D7
:1031D0009F490C8040F2B27510E02846FFF7CAFF05
:1031E00040B1B4F5B77F02D3A4F5B77404E0681C0E
:1031F00085B206E0A4F26D14681C85B2B4F5B67F02
:10320000EBD800BF93488580002516E09149888857
:10321000FFF7B0FF30B1012D04D11D2C01D31D3CAF
:1032200009E00CE08C48405DA04203D88A48405D2C
:10323000241A00E003E0681C85B21C2CE6D200BF13
:10324000681C84498871601CC8718048B6FBF0F125
:1032500000FB11644FF46160B4FBF0F07D4908702D
:103260004FF46160B4FBF0F100FB11403C21B0FB76
:10327000F1F0784948704FF46160B4FBF0F100FB65
:1032800011403C21B0FBF1F201FB12007149887042
:103290000B46DA7999799888FFF732FF6D49087201
:1032A000002070BD2DE9F05F06460F469046994616
:1032B000DDE90AAB002440F2B270864203DB40F63F
:1032C0003300864202DD0120BDE8F09F40F2B27576
:1032D0000AE02846FFF74EFF10B16048044401E0C1
:1032E0005F480444681C85B2B542F2DB781EC7B261
:1032F000002510E05848405D40F2A321484304EB0C
:10330000C0143046FFF736FF18B1012D01D14F48E8
:103310000444681C85B2BD42ECDBA8F1010040F218
:10332000A321484304EBC014C9EB4910C0EB0920AA
:1033300004EB0014CAEB0A1004EB80045C44012186
:103340004FF0C05001F00FFD012001F036FB204688
:1033500001F08DFF01F0BEFF0020B5E71CB5002491
:10336000042000F03EFE45F25001884247D0012182
:103370004FF0C05001F0F7FC012001F01EFB00F0FF
:10338000FBFD012001F04FFC04E0601CC4B20A20E8
:1033900000F091FC412001F0AEFB0028F5D0FA2CA2
:1033A00001DB01201CBD4FF4807001F058FC0120AE
:1033B00001F05BFC01F08EFF01F095FF0121084652
:1033C00001F02CFF01F086FF01F035FF47F6FF709A
:1033D00001F05AFF01F07EFF372000210A2302226C
:1033E000CDE900100C2140F2D970FFF75BFF01F02E
:1033F0002BFF45F25001042000F0E7FD07E001F04B
:1034000072FF0121084601F009FF01F063FFFFF799
:1034100067FEFFF7CCFE0020C4E710B5012001F0E5
:1034200087FF08B1FFF7C3FE022001F081FF10B152
:10343000022001F08DFF052001F08AFF01F04AFF14
:1034400010BD000024C4000818280040805101006D
:103450002E000020F208002030C400080085E201A0
:103460008033E10100B587B001214FF4017001F014
:103470006DFC0121480201F083FC00214FF4007033
:1034800001F07EFC4FF4004001F0C4FB0220ADF8D7
:10349000040000208DF8070001A9314801F034F93B
:1034A000304802F0F3FF002002908DF80C008DF8F8
:1034B0000D004FF4602004900020059001208DF84D
:1034C000180002A9274803F008F80121254803F055
:1034D00030F8244803F04FF800BF224803F050F8BA
:1034E0000028FAD11F4803F055F800BF1D4803F02B
:1034F00056F80028FAD101211A4803F05AF807B00B
:1035000000BD10B50446072301222146154803F0EB
:103510007CF80121134803F04CF800BF0221114848
:1035200003F0B8F90028F9D00E4803F0D5F810BD23
:103530002DE9F04107460C460025002608E03846F4
:10354000FFF7DFFF0544052000F0B5FB701CC6B295
:10355000A642F4DBB5FBF4F080B2BDE8F0810000D8
:10356000000801400024014010B501211D4802F06F
:10357000F2FD20B11C480068401C1B490860012175
:10358000184802F0F9FD10BD7FB505460C46012133
:10359000102001F0E8FBADF80850ADF80440002021
:1035A000ADF80A00ADF8060001A90E4801F0AEFF23
:1035B000012241210B4802F020FB0121094802F0C1
:1035C00001FB36208DF8000001208DF8010002205B
:1035D0008DF8020001208DF80300684600F063FCBE
:1035E0007FBD0000001000403000002070B505468F
:1035F000002405E0601CC4B2C82C01DD002070BDB1
:1036000002213A4802F00BFF0028F3D02946374840
:1036100002F0B2FE002405E0601CC4B2C82C01DD3B
:103620000020ECE70121314802F0F9FE0028F3D038
:103630002E4802F0A3FEC0B2E1E700B587B0012139
:10364000082001F083FB0121880301F08CFB4FF47B
:103650006040ADF8180018208DF81B0003208DF88D
:103660001A0006A9224801F04FF84FF460412048A3
:1036700001F0F7F80020ADF804004FF48270ADF8C7
:1036800006000020ADF808000220ADF80A00012075
:10369000ADF80C004002ADF80E003820ADF8100077
:1036A0000020ADF812000720ADF8140001A90F4862
:1036B00002F08CFD01210D4802F02DFEFF20FFF7E6
:1036C00095FF07B000BD10B50446084800884FF6C6
:1036D000C7710840054908800846008820430880D3
:1036E0000121024802F017FE10BD00000038004022
:1036F000000C014000B587B00121880301F033FBC5
:1037000001214FF4947001F021FB0420ADF8040076
:1037100010208DF8070003208DF8060001A9FE484F
:1037200000F0F2FF0421FC4801F09BF84FF48050B8
:10373000ADF8040001A9F94800F0E6FF4FF480510C
:10374000F64801F08EF84FF4E070ADF8040001A9DE
:10375000F34800F0D9FF4FF4E071F14801F081F82F
:103760004FF46040ADF8040018208DF807000320E6
:103770008DF8060001A9E94800F0C6FF4FF460414A
:10378000E64801F06EF80020ADF808004FF48270B2
:10379000ADF80A000020ADF80C00ADF80E00ADF851
:1037A00010004FF40070ADF812003820ADF814008E
:1037B0000020ADF816000720ADF8180002A9D9487E
:1037C00002F004FD0121D74802F0A5FDFF20FFF71C
:1037D0000DFF07B000BD10B5FFF78CFF0820FFF705
:1037E00072FF40F2CF214FF47A70FFF7CDFE002038
:1037F000CD4908600A2000F05EFA0120CB49C1F8EB
:1038000098010A2000F057FA10BD70B505460C4625
:1038100000260020C4490831086004F01F0040EA77
:1038200005063046FFF7E2FEFF20FFF7DFFE064603
:1038300004F0800018B1FF20FFF7D8FE06460120F3
:10384000B94908310860304670BD2DE9F0410446A1
:103850000D46164600270020B3490831086005F0E0
:103860001F0040EA04073846FFF7C0FE3046FFF766
:10387000BDFE0120AD49C1F8A001BDE8F08170B5E1
:1038800005460C460020A849083108603A20FFF799
:10389000ADFE05E06D1E0020FFF7A8FE2070641C41
:1038A000002DF7D10020207001209F4908310860C9
:1038B00070BD70B504460D4600209B490831086074
:1038C0007A20FFF793FE04E0641E2878FFF78EFE4F
:1038D0006D1C002CF8D1012093490831086070BD9F
:1038E00010B5044604F060009149097888420ED072
:1038F00003221F21A020FFF7A8FFC4F341121F21BC
:103900008020FFF7A2FF04F060008949087010BD15
:1039100010B504462046FFF7E3FF21460020FFF7DD
:1039200074FF10BD70B504460D462046FFF7D8FF62
:103930002A4621464020FFF788FF70BD70B5054636
:103940000C4600262946D420FFF7ECFFE1B2D62032
:10395000FFF7E8FFC4F30721D720FFF7E3FF01E0FB
:10396000701C86B2EA20FFF7D3FF00F0010018B107
:1039700040F6FF708642F3DB70BD70B5044600254B
:10398000FFF729FFFF2200211046FFF75EFF04E04A
:10399000681C85B2012000F08EF91D20FFF7B8FFEA
:1039A00000F0010010B9B5F5FA7FF1DBB5F5FA7F4B
:1039B00001DB012070BD00205E4908600021082065
:1039C000FFF7B0FF00210920FFF7ACFF00210C201A
:1039D000FFF7A8FF00210D20FFF7A4FF10210A2008
:1039E000FFF7A0FF1A210B20FFF79CFF11210420F5
:1039F000FFF798FF1A210520FFF794FFFF2106200B
:103A0000FFF790FF1F210720FFF78CFFB021382020
:103A1000FFF788FF3F212820FFF784FF302129206E
:103A2000FFF780FFF9213020FFF77CFFF7213120DD
:103A3000FFF778FF0D21C020FFF774FF0021C120A0
:103A4000FFF770FF3322C2218020FFF7FEFE122114
:103A5000C620FFF767FF0C21C720FFF763FF152182
:103A6000C420FFF75FFFEE21CA20FFF75BFF0521AF
:103A7000CB20FFF757FF2178E420FFF753FF617851
:103A8000E520FFF74FFFA178E220FFF74BFFE17839
:103A9000E320FFF747FF2179E020FFF743FF61793B
:103AA000E120FFF73FFF4FF480710020FFF746FF52
:103AB0004FF480711020FFF741FF1F20FFF710FF28
:103AC000C0221B218020FFF7C0FE04221F2180207E
:103AD000FFF7BBFEE420FFF71BFF2178884201D1EE
:103AE000002067E7012065E710B57220FFF710FF9F
:103AF00010BD70B504460D4611210220FFF712FFDC
:103B00001A210320FFF70EFF11202044C1B2062026
:103B1000FFF708FF10E0000000140140000C014016
:103B20000020014000380040980124420000244257
:103B3000340000203800002041F611202044C0F35A
:103B400007210720FFF7EEFE002211467A20FFF73B
:103B50007CFE29462046FFF7ACFE08221F2180206C
:103B6000FFF773FE1C20FFF7D3FE00F0020020B128
:103B700008221F21A020FFF768FE70BD2DE9F0414B
:103B800005460F463920FFF7C3FE10B90020BDE8F7
:103B9000F081294801780020FFF7C4FE26480088FC
:103BA000C0F307210120FFF7BDFE00213A20FFF7F7
:103BB0002CFE2149086000213A20FFF726FE1E490D
:103BC000096841EA00201C49086000213A20FFF7FB
:103BD0001CFE044600213A20FFF717FE44EA0024A9
:103BE000241F00213A20FFF710FE064600213A204C
:103BF000FFF70BFE46EA0026681EA04200D26C1EAC
:103C000006F0800008B9002403E039462046FFF79B
:103C100036FE094801780C20FFF784FE064800882C
:103C2000C0F307210D20FFF77DFE40221E218020DA
:103C3000FFF70BFE2046AAE73800002010B56FF012
:103C4000040000F07AF92E4800682E49B0FBF1F02C
:103C50002D4908700846007800EB4001C1EBC01008
:103C60004FF6FF7101EAC0002849088010BD0146E7
:103C7000254A12784A434FF0E0235A6100229A61A4
:103C80001A46126942F001021A6100BF4FF0E022A9
:103C9000106900F001021AB100F48032002AF5D058
:103CA0004FF0E022126922F001024FF0E0231A6186
:103CB00000229A6170470146144A12884A434FF025
:103CC000E0235A6100229A611A46126942F0010209
:103CD0001A6100BF4FF0E022106900F001021AB132
:103CE00000F48032002AF5D04FF0E022126922F071
:103CF00001024FF0E0231A6100229A617047000030
:103D00001400002000127A003C0000203E00002039
:103D100010B54FF4A06000F0C1F810BD014600BF1F
:103D2000704700BF494A128802F04002002AF9D0C9
:103D3000C2B2464B1B1D1A80704710B586B00446B0
:103D4000012144F2050001F001F84FF40070ADF8D4
:103D5000140003208DF8160018208DF8170005A90F
:103D60003B4800F0D1FC4FF48060ADF81400042013
:103D70008DF8170005A9364800F0C6FC25208DF8FF
:103D8000000003208DF801008DF8020001208DF85D
:103D90000300684600F087F801940020ADF80800A1
:103DA000ADF80A00ADF80C00ADF810000C20ADF82D
:103DB0000E0001A9254801F070F8012240F22551BA
:103DC000224801F002F90121204801F0F2F806B082
:103DD00010BD10B540F225511C4801F0DBF910B3BD
:103DE0001A4801F057F9C4B21A48008800F400409C
:103DF000C8B91848008800F4804060B10A2C03D08C
:103E000000201449088020E01248008840F4004057
:103E10001049088019E00D2C06D10E48008840F4A6
:103E200080400C49088010E00A480088C0F30D006B
:103E300009490C5407480088401C06490880084678
:103E40000088C72801DD0020088010BD003801402F
:103E50000008014044000020FC0800200948804779
:103E600009480047FEE7FEE7FEE7FEE7FEE7FEE75C
:103E7000FEE7FEE7FEE7FEE704480549054A064B74
:103E800070470000CF0A000831010008E822002036
:103E9000E8280020E8240020E824002031490143DC
:103EA000314A1160704770B5002100230F22C47899
:103EB00004B32D4C246804F4E064C4F5E064210AE2
:103EC000C1F10403CA40447804FA03F18478144031
:103ED00021430901254C0678A155047804F01F05FB
:103EE0000124AC4005786D11AD0005F1E025C5F861
:103EF000004109E0047804F01F050124AC401C4D8A
:103F00000678761145F8264070BD1A4A0A400243E9
:103F1000154B1B1F1A60704739B1134A121D1268E6
:103F20000243114B1B1D1A6006E00F4A121D126856
:103F300082430D4B1B1D1A607047042808D14FF0B7
:103F4000E021096941F004014FF0E022116107E02E
:103F50004FF0E021096921F004014FF0E0221161E6
:103F6000704700000000FA050CED00E000E400E0FE
:103F700080E100E080FFFF1F10B5012000F01AFF74
:103F8000002000F017FF10BD2A490860704729493A
:103F9000091F08607047274984310860704701464F
:103FA0000020254A10884FF67F4210400843224ADD
:103FB00010807047014600201F4A10884FF680721B
:103FC000104008431C4A1080704708B50022009238
:103FD000194A2C3A0092009A02440092009A116009
:103FE00008BD08B501460020009013482C38009009
:103FF0000098084400900098008808BD0D489C3047
:104000000068C0B270470C480830008840F00100DA
:1040100009490831088070470648A0300068C0B2DE
:10402000704705480830008840F002000249083116
:104030000880704704860D422C6C004030B943F272
:10404000DB028100A1F1C0410A6005E043F2D20227
:104050008100A1F1C0410A606FF07042411C8900EB
:10406000A1F1C0410A608100A1F1C041C1F8042161
:10407000704710280AD118214FF0204211664021C4
:1040800051664FF0FC319166D16610E01821F74A75
:10409000116040214FF02042C2F884104FF0FC31F3
:1040A000F24A083211604FF02042C2F88C1070477B
:1040B0001820EE492031086000200906C1F8A4004C
:1040C0004FF0FC30E94928310860091D0860091DDE
:1040D00008607047D0E901121143C26811430269B8
:1040E00011434269114382691143C2691143026A53
:1040F0001143426A1143826A1143C26A1143026B3F
:10410000114302689200A2F1C0421160816808293F
:104110000BD101688900A1F1C041096841F040025A
:1041200001688900A1F1C0410A60416B0968426BD6
:10413000526841EA0211426B926841EA0221426BE5
:10414000928941EA0241426B128A41EA0251426B72
:10415000127D41EA0261426B926911430268521C6E
:104160009200A2F1C0421160C16AB1F5804F1BD12B
:10417000816B0968826B526841EA0211826B926816
:1041800041EA0221826B128A41EA0251826B127D5E
:1041900041EA0261826B9269114302689200A2F1C6
:1041A000C042C2F8041107E06FF070420168890054
:1041B000A1F1C041C1F80421704730B500210022AF
:1041C0000023446844F0080485682C43C5682C43E8
:1041D00005692C43456944EA4524856944EA45312B
:1041E000C4692468C5696D6844EA0524C5692D89D8
:1041F00044EA0544C5692D7B44EA0562046A2468E3
:10420000056A6D6844EA0524056A2D8944EA054477
:10421000056A2D7B44EA05630468102C05D14FF034
:1042200020442166A266E36608E0904C21604FF0CE
:104230002044C4F888208D4C0C34236030BD0168C4
:1042400041F01001426841EA4221826841EA42316C
:10425000864A20321160C1680968C268526841EA22
:104260000221C268128941EA0241C268127B41EA16
:1042700002617E4A28321160016909680269526848
:1042800041EA02210269128941EA02410269127B74
:1042900041EA0261754A2C3211604169096842693C
:1042A000526841EA02214269128941EA02414269A7
:1042B000127B41EA02614FF02042C2F8B010704711
:1042C000002101600221416000218160C160016123
:1042D00041618161C16101624FF4805141624900D5
:1042E00081620021C16201630F21426B1160426B48
:1042F0005160FF21426B91600F21426BD160426B94
:104300001161426B51610021426B91610F21826BFF
:104310001160826B5160FF21826B91600F21826B73
:10432000D160826B1161826B51610021826B91615E
:10433000704710210160002141608160C16001610E
:1043400041618161FC21C2691160C2695160C26929
:104350009160C269D160026A1160026A5160026AAA
:104360009160026AD1607047002101604160816004
:10437000FC21C2681160C2685160C2689160C26865
:10438000D16002691160026951600269916002693D
:10439000D16042691160426951604269916042692D
:1043A000D160704751B18200A2F1C042126842F060
:1043B00001038200A2F1C042136009E08200A2F171
:1043C000C04212682A4B1A408300A3F1C0431A600E
:1043D000704799B1102808D14FF02042126E42F078
:1043E00004024FF020431A661DE0204A126842F092
:1043F00004024FF02043C3F8802014E0102809D1B4
:104400004FF02042126E1A4BDB1E1A404FF0204331
:104410001A6608E0154A1268154BDB1E1A404FF069
:104420002043C3F88020704748B110492031096803
:1044300041F004014FF02042C2F8A01009E00B49FE
:10444000203109680A4AD21E11404FF02042C2F8BA
:10445000A0107047B9B110280CD14FF02042126E55
:1044600042F040024FF020431A661FE0800000A097
:10447000FEFF0F00724A126842F040024FF02043E4
:10448000C3F8802012E0102808D14FF02042126EAD
:104490006C4B1A404FF020431A6607E0684A1268D6
:1044A000684B1A404FF02043C3F880207047014604
:1044B0000020102903D14FF02042506F02E0604AE3
:1044C00014321068704710B5F2B1102807D14FF0C0
:1044D00020435B6E0B434FF02044636632E0B0F53F
:1044E000807F08D1564B1B1D1B680B434FF02044A7
:1044F000C4F8843026E0524B24331B680B434FF042
:104500002044C4F8A4301DE0102807D14FF0204308
:104510005B6E8B434FF02044636613E0B0F5807F01
:1045200008D1474B1B1D1B688B434FF02044C4F838
:10453000843007E0424B24331B688B434FF0204408
:10454000C4F8A43010BD10B5024600200023102A84
:1045500003D14FF02044636E09E0B2F5807F03D1B0
:10456000374C241D236802E0354C2434236803EAC9
:1045700001040CB1012000E0002010BD102807D17B
:104580004FF02042526E8A434FF020435A6613E0A8
:10459000B0F5807F08D12A4A121D12688A434FF075
:1045A0002043C3F8842007E0254A243212688A4356
:1045B0004FF02043C3F8A420704770B50246002096
:1045C000002300240025102A03D14FF02046736EEB
:1045D00009E0B2F5807F03D1194E361D336802E041
:1045E000174E2436336803EA010403EAD10514B1F7
:1045F0000DB1012000E0002070BD102808D14FF05F
:104600002042526E22EAD1024FF020435A6615E052
:10461000B0F5807F09D10A4A121D126822EAD10240
:104620004FF02043C3F8842008E0054A2432126882
:1046300022EAD1024FF02043C3F8A42070470000C3
:10464000800000A0BFFF0F0010B50446CC48844294
:1046500008D10121042000F093FB0021042000F088
:104660008FFB46E0C748844208D10121082000F0B2
:1046700087FB0021082000F083FB3AE0C248844217
:1046800008D10121102000F07BFB0021102000F058
:1046900077FB2EE0BD48844208D10121202000F0A4
:1046A0006FFB0021202000F06BFB22E0B848844221
:1046B00008D10121402000F063FB0021402000F0E0
:1046C0005FFB16E0B348844208D10121802000F04E
:1046D00057FB0021802000F053FB0AE0AE488442E3
:1046E00007D10121801500F04BFB0021A01500F03F
:1046F00047FB10BD10B50121084600F041FB002129
:10470000012000F03DFB10BD2DE9F04102460025DF
:104710000026002000230024002791F803C00CF09D
:104720000F0591F803C00CF0100CBCF1000F03D082
:1047300091F802C04CEA050591F800C0BCF1000FE9
:1047400031D0146800202BE04FF0010C0CFA00F37C
:10475000B1F800C00CEA03069E4220D183004FF05E
:104760000F0C0CFA03F7BC4305FA03FC4CEA0404F3
:1047700091F803C0BCF1280F06D14FF0010C0CFAE0
:1047800000FCC2F814C00AE091F803C0BCF1480F65
:1047900005D14FF0010C0CFA00FCC2F810C0401C0F
:1047A0000828D1D31460B1F800C0BCF1FF0F34DD8C
:1047B000546800202EE000F1080C4FF0010808FAC0
:1047C0000CF3B1F800C00CEA03069E4221D183002D
:1047D0004FF00F0C0CFA03F7BC4305FA03FC4CEA4C
:1047E000040491F803C0BCF1280F05D100F1080CB6
:1047F00008FA0CF8C2F8148091F803C0BCF1480F15
:1048000007D100F1080C4FF0010808FA0CF8C2F8C3
:104810001080401C0828CED35460BDE8F0814FF6CC
:10482000FF710180022181700421C170704702462E
:10483000002093680B400BB1012000E0002070477E
:104840000146886880B2704702460020D3680B405A
:104850000BB1012000E0002070470146C86880B21B
:10486000704701617047416170470AB1016100E022
:1048700041617047C16070474FF480320A438261E2
:104880008161826182698269704702460020434BE0
:1048900018684FF68073184040EA021008433F4BF7
:1048A000186070473E49C8617047F0B50A4600235A
:1048B00000240021002500F00046B6F1004F02D18F
:1048C000364EF16901E0354E7168C0F3034583B29D
:1048D00000F44016B6F5401F08D121F070612F4E4C
:1048E000766826F070662D4F7E6012E000F4801628
:1048F000B6F5801F06D1032606FA05F4A14341F060
:10490000706106E0460D360103FA06F6B14341F048
:10491000706122B1460D360103FA06F6314300F00C
:104920000046B6F1004F02D11C4EF16101E01B4E72
:104930007160F0BD30B500228B071C0F0F2303FA06
:1049400004F2164B08338C1053F824309343134C65
:1049500008348D1044F8253023468C1053F8243049
:104960008C07240F00FA04F423430C4C08348D10F8
:1049700044F8253030BD0A49DC310860704700003A
:1049800000080140000C01400010014000140140EB
:1049900000180140001C01400020014000000140BF
:1049A0000000204210B50121080700F0F6F90021AF
:1049B0004FF0805000F0F1F910BD2A4908627047AD
:1049C00028490861704701460020274A106820F0F6
:1049D000E0000843106070472249A031086070472A
:1049E00010B502460020204B186820F00300104349
:1049F00018601E4B1B6843F004031C4C2360012904
:104A000001D130BF00E020BF184B1B6823F0040326
:104A1000164C236010BD1448006840F00400124991
:104A200008600846006840F0020008600F4800680F
:104A300040F004000D49086000BF00BF30BF704760
:104A400001460020084A52680A400AB1012000E0ED
:104A5000002070470449096841EA8001024A116058
:104A60007047000000000E420070004010ED00E0B2
:104A7000DF48006840F00100DD49086008464068F2
:104A8000DC490840DA49486008460068DA490840CD
:104A9000D74908600846006820F48020086008466E
:104AA000406820F4FE0048604FF41F0088607047A3
:104AB000CF49096821F48031CD4A11601146096857
:104AC00021F480211160B0F5803F03D0B0F5802F34
:104AD0000ED106E0C649096841F48031C44A11602C
:104AE00007E0C349096841F4A021C14A116000E010
:104AF00000BF00BF704710B5014600220023002010
:104B00004A11012A02D1BA4C236806E0022A02D1D6
:104B1000B74C236A01E0B64C636A01F01F0201241E
:104B200094401C400CB1012000E0002010BD38B5BD
:104B3000002000900024002500BF3120FFF7DBFF9C
:104B400005460098401C00900098B0F5A06F01D079
:104B5000002DF2D03120FFF7CEFF08B1012400E094
:104B60000024204638BD01460020A14A106820F0EC
:104B7000F80040EAC10010607047A0490860704723
:104B8000024600209A4B586820F47C1042EA010348
:104B90001843974B5860704798490866704701461C
:104BA0000020934A506820F003000843506070478B
:104BB0008F48406800F00C007047014600208C4A86
:104BC000506820F0F0000843506070470146002014
:104BD000874A506820F4E0600843506070470146FF
:104BE0000020834A506820F4605040EAC1005060C1
:104BF000704729B17E4A527A02437D4B5A7204E0D3
:104C00007B4A527A82437A4B5A7270477B49D83139
:104C10000860704701460020754A506820F4404003
:104C20000843506070470021714A20321170704A69
:104C300082F82010012802D004280AD104E00121C2
:104C40006B4A2032117005E00521694A203211704B
:104C500000E000BF00BF70476949086070476449C1
:104C6000096A0143624A1162704765494439086024
:104C7000704730B500210022002400235C4D6D6890
:104C800005F00C0121B1042905D0082923D105E044
:104C90005C4D056022E05B4D05601FE0544D6D6882
:104CA00005F47012524D6D6805F48034022505EB51
:104CB00092421CB9544D554305600BE04C4D6D6854
:104CC00005F400351DB1504D5543056002E04D4DD2
:104CD0005543056002E04B4D056000BF00BF444DE9
:104CE0006D6805F0F0010909484D6B5C0568DD4011
:104CF00045603F4D6D6805F4E061090A434D6B5C0A
:104D00004568DD4085603A4D6D6805F46051C90A1B
:104D10003E4D6B5C4568DD40C560354D6D6805F402
:104D20004041890B3A4D6B5CC568B5FBF3F50561F5
:104D300030BD29B12E4A526902432D4B5A6104E01D
:104D40002B4A526982432A4B5A61704729B1284A3B
:104D500092690243264B9A6104E0254A9269824394
:104D6000234B9A61704729B1214AD2690243204BF3
:104D7000DA6104E01E4AD26982431D4BDA61704752
:104D800029B11B4AD2680243194BDA6004E0184A81
:104D9000D2688243164BDA60704729B1144A12690F
:104DA0000243134B1A6104E0114A12698243104B0B
:104DB0001A61704712494039086070470F49C8644A
:104DC00070470B49C87170470948406A40F08070CD
:104DD00007494862704701460020054A92680A4028
:104DE0000AB1012000E00020704701498872704735
:104DF000001002400000FFF8FFFFF6FE00004242F4
:104E00008004424200127A0000093D004600002062
:104E10005600002010B50446FB48844209D1012108
:104E20008803FFF7ADFF00214FF48040FFF7A8FF94
:104E300032E0F648844209D101214804FFF7ADFF72
:104E400000214FF40030FFF7A8FF25E0F04884422E
:104E500009D101218804FFF7A0FF00214FF4802031
:104E6000FFF79BFF18E0EB48844209D10121C804F9
:104E7000FFF793FF00214FF40020FFF78EFF0BE0B8
:104E8000E548844208D101210805FFF786FF00218B
:104E90004FF48010FFF781FF10BD2DE9F04786B079
:104EA00005460E460024A24600BFA1460027B08951
:104EB00000B100BF2F462C8A4CF6FF700440F088EA
:104EC00004432C82AC894EF6F3100440B08831893B
:104ED0000843718908430443AC81AC8A4FF6FF4014
:104EE0000440B0890443AC8201A8FFF7C2FEC64863
:104EF000874202D1DDF810A001E0DDF80CA0A889FE
:104F000000F4004040B10AEBCA0000EB0A1031681F
:104F10004900B0FBF1F807E00AEBCA0000EB0A1009
:104F200031688900B0FBF1F86420B8FBF0F00401AF
:104F30002009642101FB1089A88900F4004040B1D8
:104F4000322000EBC900B0FBF1F000F00700044391
:104F500008E0322000EB09106421B0FBF1F000F012
:104F60000F0004432C8106B0BDE8F0874FF41651C2
:104F7000016000218180C18001810C2141810021DB
:104F80008181704710B502460020108A4FF2FF035E
:104F900018400B884C8823438C882343CC882343B8
:104FA0001843108210BD0021018041808180C180A2
:104FB000704721B1828942F40052828104E08289E3
:104FC0004DF6FF731A4082817047F0B50346002406
:104FD00000260025002040F66A17B94200D100BF24
:104FE0001846C1F3421401F01F06012707FA06F51F
:104FF000012C01D10C3004E0022C01D1103000E072
:1050000014301AB107682F43076002E00768AF4306
:105010000760F0BD1AB1838A0B43838202E0838A62
:105020008B4383827047028A4FF6F0731A400282E4
:10503000028A0A430282704782894FF2FF731A4044
:10504000828182890A438281704721B1828942F03C
:105050000202828104E082894FF6FD731A40828148
:105060007047028A4FF6DF731A400282028A0A43AF
:105070000282704721B1028A42F48042028204E037
:10508000028A4BF6FF731A4002827047C1F308028E
:105090008280704701468888C0F308007047818984
:1050A00041F0010181817047028BD2B20283028BF1
:1050B00042EA012202837047028B02F47F4202839C
:1050C000028B0A430283704721B1828A42F0200298
:1050D000828204E0828A4FF6DF731A408282704730
:1050E00021B1828A42F01002828204E0828A4FF665
:1050F000EF731A408282704721B1828A42F008021F
:10510000828204E0828A4FF6F7731A4082827047E7
:1051100021B1828942F40042828103E08289C2F394
:105120000E028281704721B1828A42F4006282823B
:1051300004E0828A4FF2FF731A4082827047828AAB
:105140004FF6FB731A408282828A0A43828270473A
:1051500021B1828A42F00202828204E0828A4FF602
:10516000FD731A408282704702460020B1F5007F2D
:1051700000D100BF13880B400BB1012000E00020DC
:10518000704701F40072B2F5007F00D100BFCA433E
:105190000280704770B502460024002300250020DD
:1051A00040F66A16B14200D100BFC1F3421501F0CA
:1051B0001F03012606FA03F3012D02D1968933401D
:1051C00006E0022D02D1168A334001E0968A334070
:1051D0000C12012606FA04F41688344013B10CB1FF
:1051E000012000E0002070BD10B50022002340F631
:1051F0006A14A14200D100BF0A1201249440A3B254
:10520000DC43048010BD0000003801400044004031
:1052100000480040004C00400050004029B1504A76
:10522000128802434E4B1A8004E04D4A1288824392
:105230004B4B1A8070474A48001D008840F0100010
:105240004749091D088070474548001D00884FF6F2
:10525000EF7108404249091D08807047002140480D
:105260001C300188001F008841EA0040704700B5EB
:105270000246FFF7E0FF100C394918310880091D7C
:105280000A80FFF7E1FF00BD00B50246FFF7D3FF3C
:10529000C2F30340324908310880091D0A80FFF734
:1052A000D3FF00BD00B50246FFF7C5FF100C2C4927
:1052B00020310880091D0A80FFF7C6FF00BD0020CD
:1052C0002749103109880907080B25491431098835
:1052D0000843704700BF2248001D008800F02000EE
:1052E0000028F8D070471E48001D00884FF6F7715F
:1052F00008401B49091D088000BF1948001D00888F
:1053000000F008000028F8D0704701460020144A39
:10531000121D12880A400AB1012000E000207047E7
:105320000F49091D098881430D4A121D11807047DC
:10533000014600200A4A121D12880A40D0B2084ACB
:1053400012880A4012B108B1012000E00020704725
:105350000349091D09888143014A121D11807047C4
:105360000028004010B50446FE48844208D10121BF
:10537000C014FFF705FD0021E014FFF701FDC4E0B4
:10538000B4F1804F08D101210846FFF706FD002146
:105390000120FFF702FDB8E0F348844208D1012163
:1053A0000220FFF7FAFC00210220FFF7F6FCACE038
:1053B000EE48844208D101210420FFF7EEFC0021D1
:1053C0000420FFF7EAFCA0E0E948844208D101216B
:1053D0000820FFF7E2FC00210820FFF7DEFC94E044
:1053E000E448844208D101211020FFF7D6FC0021B7
:1053F0001020FFF7D2FC88E0DF48844208D1012169
:105400002020FFF7CAFC00212020FFF7C6FC7CE02B
:10541000DA48844208D101214014FFF7B1FC002191
:105420006014FFF7ADFC70E0D548844209D101213A
:10543000C804FFF7A5FC00214FF40020FFF7A0FCF3
:1054400063E0D048844209D101210805FFF798FCA8
:1054500000214FF48010FFF793FC56E0CA488442C5
:1054600009D101214805FFF78BFC00214FF4001002
:10547000FFF786FC49E0C548844208D1012140205D
:10548000FFF78BFC00214020FFF787FC3DE0C04880
:10549000844208D101218020FFF77FFC0021802079
:1054A000FFF77BFC31E0BB48844208D10121801525
:1054B000FFF773FC0021A015FFF76FFC25E0B6484D
:1054C000844209D101210804FFF75AFC00214FF45E
:1054D0008030FFF755FC18E0B048844209D1012123
:1054E0004804FFF74DFC00214FF40030FFF748FC63
:1054F0000BE0AB48844208D101218804FFF740FC4F
:1055000000214FF48020FFF73BFC10BD00220288F1
:10551000944B98420ED0994B98420BD0B0F1804FEB
:1055200008D0914B984205D0904B984202D0904BB6
:10553000984204D14FF68F731A404B881A438D4B13
:10554000984207D08C4B984204D04FF6FF431A4044
:10555000CB881A4302808B8883850B880385814B17
:1055600098420BD0854B984208D08B4B984205D07F
:105570008A4B984202D08A4B984201D10B7A03861B
:1055800001238382704770B5002400220023058C1C
:105590004FF6FE7635400584028C8388048B4FF6E7
:1055A0008F752C40B51E2C400D882C43751E2A404B
:1055B0000D892A434D882A436A4DA8420BD06F4D6E
:1055C000A84208D0744DA84205D0744DA84202D01C
:1055D000734DA84213D14FF6F7752A404D892A43DF
:1055E0004FF6FB752A408D882A434FF6FF652B4006
:1055F0004FF6FF552B408D892B43CD892B4383805C
:105600000483CD888586028470BD70B50024002295
:105610000023058C4FF6EF7635400584028C838895
:10562000048B48F6FF752C404FF6FF452C400D8843
:105630004FF6FF7606EA05252C434FF6DF752A4024
:105640000D8906EA05152A434D8806EA05152A4301
:10565000444DA84202D0494DA8421DD14FF67F7556
:105660002A404D894FF6FF7606EA05152A434FF684
:10567000BF752A408D8806EA05152A434FF6FF3587
:105680002B404FF2FF752B408D8906EA85052B4391
:10569000CD8906EA85052B4383800483CD88058761
:1056A000028470BD70B5002400220023058C4FF6E3
:1056B000FF6635400584028C8388848B4FF68F7596
:1056C0002C404FF6FC752C400D882C434FF6FF55AF
:1056D0002A400D894FF6FF7606EA05252A434D88B4
:1056E00006EA05252A431F4DA84202D0234DA842B1
:1056F0001DD14FF2FF752A404D894FF6FF7606EA1D
:1057000005252A434FF6FF352A408D8806EA0525F0
:105710002A434EF6FF752B404DF6FF752B408D89C1
:1057200006EA05152B43CD8906EA05152B43838030
:105730008483CD888587028470BD70B500220023E4
:105740000024058C4EF6FF7635400584038C848852
:10575000828B48F6FF752A404FF6FF452A400D8898
:1057600020E00000002C0140000400400008004040
:10577000000C0040001000400014004000340140C4
:10578000004C01400050014000540140001800400E
:10579000001C004000200040004001400044014047
:1057A000004801404FF6FF7606EA05252A434DF6EC
:1057B000FF752B400D8906EA05352B434D8806EA17
:1057C00005352B43FA4DA84202D0FA4DA84208D124
:1057D0004BF6FF752C408D894FF6FF7606EA85154E
:1057E0002C4384808283CD88A0F84050038470BD10
:1057F000828B4FF2FF331A408283828B4FF6FF7306
:1058000003EA01231A4382837047F0B50C4615461C
:10581000002200210026078C4EF6FF7C07EA0C07C9
:105820000784828B018C4FF6FF7707EA043640F637
:10583000FF473A404FF6FF7707EA05273A434FF60E
:10584000FF7707EA03373A43D94FB8420ED0D94F12
:10585000B8420BD0B0F1804F08D0D74FB84205D036
:10586000D64FB84202D0D64FB84206D14DF6FF7798
:10587000394046F48057394305E047F6FF57394031
:1058800044F48057394382830184F0BD828B4FF604
:10589000F3731A408283828B0A4382837047F0B588
:1058A0000C461546002200210026078C4FF6FF6C9F
:1058B00007EA0C070784828B018C4FF6FF7707EA13
:1058C00004264FF60C773A404FF6FF7707EA0317A6
:1058D0002F433A43B64FB8420ED0B64FB8420BD022
:1058E000B0F1804F08D0B44FB84205D0B34FB842A2
:1058F00002D0B34FB84206D14FF6FF57394046F4B5
:105900008077394305E04FF2FF57394044F4807700
:10591000394382830184F0BD028B4FF2FF331A407A
:105920000283028B4FF6FF7303EA01231A430283BB
:105930007047F0B50C461546002200210026078C62
:105940004FF6EF7C07EA0C070784028B018C4FF6B9
:10595000FF7707EA041640F6FF473A404FF6FF7715
:1059600007EA03373A434FF6FF7707EA05273A433A
:105970008F4FB8420ED08F4FB8420BD0B0F1804F4E
:1059800008D08D4FB84205D08C4FB84202D08C4F12
:10599000B84206D14FF6DF77394046F01007394359
:1059A00005E04FF65F77394044F010073943028332
:1059B0000184F0BD028B4FF6F3731A400283028B11
:1059C0000A4302837047F0B50C46154600220021B9
:1059D000068C4FF6FE773E400684028B018C4FF614
:1059E0000C7632407E1C06EA03162E433243704E7C
:1059F000B0420ED06F4EB0420BD0B0F1804F08D005
:105A00006D4EB04205D06D4EB04202D06C4EB042E9
:105A100006D14FF6FD76314044F00106314305E0F2
:105A20004FF6F576314044F001063143028301849C
:105A3000F0BD70B505460C465D4885420ED05D4808
:105A400085420BD0B5F1804F08D05B48854205D028
:105A50005A48854202D05A48854200D100E000BF32
:105A6000208850B92389A28861882846FFF7ABFFB8
:105A7000E1882846FFF79EFF25E0208804280AD108
:105A80002389A28861882846FFF753FFE1882846CA
:105A9000FFF742FF17E0208808280AD12389A2884F
:105AA00061882846FFF7FBFEE1882846FFF7EEFEF7
:105AB00009E02389A28861882846FFF7A6FEE188CD
:105AC0002846FFF795FE70BD2DE9F04105460C46CE
:105AD00000260127608808B9022600E00026A08879
